:020000040800F2
:10000000080A00202D020008272800081F280008E1
:1000100023280008750F0008A12B0008000000002D
:10002000000000000000000000000000552800084B
:10003000790F000800000000292800085728000850
:10004000470200084702000847020008470200086C
:10005000470200084702000847020008470200085C
:10006000470200084702000847020008470200084C
:10007000470200084702000847020008470200083C
:10008000470200084702000847020008470200082C
:10009000470200084702000847020008470200081C
:1000A000470200084702000847020008470200080C
:1000B00047020008470200086128000847020008BC
:1000C00047020008470200084702000847020008EC
:1000D00047020008912B0008470200084702000869
:1000E00047020008470200084702000847020008CC
:1000F00047020008470200084702000847020008BC
:1001000047020008470200084702000847020008AB
:10011000470200084702000847020008470200089B
:10012000470200084702000847020008470200088B
:1001300000F002F800F06BF80AA090E8000C82448E
:100140008344AAF10107DA4501D100F060F8AFF26B
:10015000090EBAE80F0013F0010F18BFFB1A43F0A5
:10016000010318475C4100007C4100000A444FF045
:10017000000C10F8013B13F0070408BF10F8014B06
:100180001D1108BF10F8015B641E05D010F8016B4B
:10019000641E01F8016BF9D113F0080F1EBF10F8AF
:1001A000014BAD1C0C1B09D16D1E58BF01F801CBD2
:1001B000FAD505E014F8016B01F8016B6D1EF9D555
:1001C0009142D6D37047000000230024002500266A
:1001D000103A28BF78C1FBD8520728BF30C148BFAA
:1001E0000B607047642900F00584752900F00284D3
:1001F000782900F03B84632900F04F86732900F0D2
:100200005486002070471FB51FBD10B510BD00F00B
:100210007FFE1146FFF7F7FF02F004FE00F09DFE9F
:1002200003B4FFF7F2FF03BC02F0DFFC094880478C
:1002300009480047FEE7FEE7FEE7FEE7FEE7FEE7C8
:10024000FEE7FEE7FEE7FEE704480549054A064BE0
:10025000704700005F2800083101000808040020F2
:10026000080A0020080600200806002038B50C46C1
:10027000114600281A461CBF0568002D074B0AD0FE
:100280004AB104B939B9049828B1059B00930346D3
:100290002046A8470346184632BD00BF03000200AF
:1002A0002DE9F04104460E46216817464A681D466E
:1002B00090478046B8F5003F19D1226806999368A7
:1002C000204698478046B8F5003F10D12368314654
:1002D000DE683A462046B0478046B8F5003F06D172
:1002E0002368079A29461D692046A8478046216849
:1002F0000A68204690474046BDE8F0812DE9F04F5E
:10030000ADF5087D0246002044AC51F820301BBA00
:1003100044F82030401C1028F7D3102444AB44A8E4
:1003200000EB8405A5F1400755F8400CFE6944AD8B
:1003300005EB8407A7F1400170404D6B90EA7540D2
:100340004FEA702690EA7040704044AD05EB840699
:10035000A6F1400744AEFD6880EA756006EB8407AD
:10036000A7F14005AE6A704043F82400641C442C99
:10037000D5D3002044A944AC51F8203004EB8001CF
:1003800004AC0D696B4044F82030401C4028F1D388
:10039000104600924FF0000E009DC46D036E426E39
:1003A000816E2E6F6F6FC06EAD6F4FF0190BCDF871
:1003B00008B0CEF1200BDFF830C100EB345A6CFAF4
:1003C0000BFCE24483EA040B4FEA7A6982EA0B0BE6
:1003D0000DF1100A594489EA3458CDF804A0884434
:1003E0005AF82E1088440DF5887B86EA0001CDF876
:1003F0000CB079406D185BF82E104D4401EB0509E7
:100400003D4611464FEA76374FEAF35206460EF163
:10041000010E234689EAF950BEF1100F444680EAE6
:10042000F930C2D3DFF8C4B0B4461026C6F1200AB2
:10043000DDF8088000EB34596BFA0AFAD14469FA06
:1004400008F842EA030909EA040902EA030A4AEA47
:100450000909494488EA345E8E44019951F826100E
:100460008E440CEA000127EA000A4AEA01010D4421
:100470000399454451F82680A8443D4611464FEA69
:100480007C374FEAF3528446761C234688EAF850BC
:10049000402E744680EAF830C8D3009ED6F85CE05F
:1004A00084EA0E04F465009C266E73402366009B6C
:1004B0005C6E62405A66009A936E5940916600994C
:1004C000CA6E5040C8660098016F8CEA010101674E
:1004D0000099486F47404F670098816F4D4085678E
:1004E0000DF5087DBDE8F08F1945CC798A9D877A96
:1004F00010B5064C38B100F081F820B17C2100F035
:100500003EFC4FF40034204610BD00BF0300020043
:1005100010B588B0044668460849202200F0DBFB8D
:10052000204600F06BF808B9054804E0202269462F
:10053000083000F0CAF808B010BD00BFB8050008C8
:100540000300020038B50C46212C064D07D200F0FE
:1005500055F820B12146083000F0C6F80546284677
:1005600032BD00BF0300020038B50C46154600F04E
:1005700045F808B9054832BD2B46214601B0BDE813
:10058000304000F12402083000F0B2B8030002004D
:1005900038B50C46154600F031F808B9054832BDAB
:1005A0002B46224601B0BDE8304000F1240108305E
:1005B00000F0F2B8030002006F168073B9B214495C
:1005C000D742241700068ADABC306FA9AA38311640
:1005D0004DEE8DE34E0EFBB0F1040008110500084E
:1005E000450500086905000891050008FD0200089E
:1005F0005D060008A9060008650600080168024AB1
:10060000914218BF00207047D8050008F0B5A3B08C
:1006100004460D4616461F4602A800F00BF828991E
:100620000191009733462A462146FFF739FE23B051
:10063000F0BD000010B5040008BF002408D0054834
:10064000054B20600822402104F1080000F039F831
:10065000204610BDD8050008EC05000820225C30BB
:1006600000F0F4BAF0B58468A308002204F0030493
:1006700007E000F15C0555F8226035BA41F82250D8
:10068000521C9A42F5D300220BE000F15C0502EB0C
:10069000830755F82360D500C5F11805EE40CE5507
:1006A000521CA242F1D3F0BD30B5C46803690022E8
:1006B000E31AD5188C5C0544521C082A2C77F8D311
:1006C00030BD0360C1600261704738B5044615460D
:1006D0000022626023685A68904700206061A06130
:1006E000A5604FF4003032BD81604FF40030704798
:1006F0002DE9F84304462079D4F80C80450748BF1B
:10070000244845D466691D46A8F1010000EAD603D5
:1007100006EBC506B6EBC50F666102D2A669761C6C
:10072000A6611746A66906EB5576A6610E46E9183E
:10073000884225D2A8EB03094A463146F81800F052
:1007400085FA2268136839460FE04246384600F0C1
:100750007DFA23681A6839462046904707E0311829
:1007600011F00300F1D122681368204698474846EB
:1007700000EB0809A9F10101A942F0D3002300E030
:1007800000202A1A3118F81800F060FA4FF40030EF
:10079000BDE8F283040002002DE9FC4F024685B05B
:1007A000D0681369DFF86CC1DFF86C81A0EB030A35
:1007B000506840F004005060002703A802900DF13B
:1007C0000C0ED8E9003403A8544DC0E90034287851
:1007D000534D00280CBF0023042399465CF80330D6
:1007E0005EF80940234401261D601C689E60DCF809
:1007F0000430039DDCF80090DEF804605D40654045
:10080000484C654089EA0606474C66407519474CD6
:100810006540D8E9006B03AC0028C4E9006B0EBF4B
:10082000002404200424029E5CF80000345920189F
:100830003F4C04600126046886600398029E434092
:100840006340384C7068634089EA0000364C604071
:10085000034438484340280018BF01205B1E9B41D9
:10086000042F2CBFC0B2D80F02F1140353F820009C
:1008700007F00303C3F10303DB00D8400DF80700C2
:100880007F1C082F9DD315460C466A69AB69E86842
:10089000D20842EA4372401E00EA020700230240E7
:1008A0009B420AD8524508D28020E0557F1C57450C
:1008B00016D2AAEB0701E01910E08020E05500E015
:1008C000E355E8687F1C8742FAD32A6813682846F4
:1008D0009847BAF1000F03D05146204600F02DFA98
:1008E0002A68069E059F93686946284698472A68A5
:1008F000D2F8009021462846C8472B68DA68394666
:10090000284690470EB1A86830604FF4003007B019
:10091000BDE8F08FB0420008B8420008A4030020F0
:100920005FC5109304850012FC68017AC0F524FFAE
:1009300024AF33D426AF698B704700000FB404494D
:1009400010B503AA029800F0B5FA10BC5DF814FBCC
:100950000800002070B5044685690068C10601D50D
:10096000302600E02026C00707D070BDD4E9012161
:1009700030469047206A401C20626D1EF6D570BD3F
:1009800070B5044685690078C00707D170BDD4E909
:10099000012120209047206A401C20626D1EF6D560
:1009A00070BD70B50C460546012A05D02878800632
:1009B00000D5EA69002302E0012305E05B1C9342B5
:1009C00002D2E05C0028F9D1A869E618C01AA86133
:1009D000286A184428622846FFF7BCFF04E0D5E9DE
:1009E000012114F8010B9047B442F8D32846FFF7D1
:1009F000C7FF70BD2DE9F041064600241068752937
:100A0000314616A510D0AFF30080002802DA40422C
:100A100013A507E031688A0701D512A502E049074E
:100A200004D511A5012401E0AFF3008000210A22C2
:100A300006F1240709E0B0FBF2FCB0FBF2F302FB85
:100A40001C00303078541846491C0028F3D1234646
:100A50002A463046BDE8F04100F0BCB90000000075
:100A60002D0000002B0000002000000070B504469F
:100A70000D4621461068AFF300802188090502D594
:100A80000F4A7A4402E00E4A7A440E32002104F101
:100A9000240305E000F00F060009965D5E54491C32
:100AA0000028F7D120780023000704D5702D02D04C
:100AB00009B1022311322046BDE8704000F08AB926
:100AC000F63600002DE9F05F894604464FF0000A33
:100AD000DFF874B1FB44C0F820A02046E1688847E5
:100AE000002874D0252806D0D4E901219047206A37
:100AF000401C2062F1E700265F462046E1688847F7
:100B00002028054607DB312D05D2781910F8200C76
:100B100008B10643F1E7B00701D526F00406C4F892
:100B20001CA00027C4F818A02A2D09D0284602F0DE
:100B300055F838B304EB8708303DC8F8185019E071
:100B400059F8041B204604EB87029161E16888474D
:100B5000012F054618D1E069002820DA26F020068A
:100B60001DE0D8F8180000EB800005EB400030389D
:100B7000C8F818002046E1688847054602F02EF8BC
:100B80000028EED1012F0AD02E2D08D12046E16891
:100B900088477F1C0546022F46F02006C4DBA0696B
:100BA000002803DA404246F00106A061F00701D0B8
:100BB00026F010066C2D0BD0682D09D04C2D39D0A5
:100BC0006A2D35D0742D35D07A2D33D016E038E02B
:100BD000E1682F4620468847B842054609D16C2F68
:100BE00026D04FF48060E1680643204688470546DA
:100BF00004E06C2F1AD04FF4807006430DB3A5F1BA
:100C00004100192802D8203546F400664A46294694
:100C1000204626604E46FFF7E5FA80B101280BD04A
:100C2000F61D26F0070000F1080956E74020E4E72A
:100C30008020D8E70020D6E706F104094DE72846D2
:100C400052E7206ABDE8F09FCC360000032A40F24C
:100C5000308010F0030C00F0158011F8013BBCF15E
:100C6000020F624498BF11F801CB00F8013B38BF76
:100C700011F8013BA2F1040298BF00F801CB38BF84
:100C800000F8013B11F0030300F02580083AC0F0A2
:100C9000088051F8043B083A51F804CBA0E808104A
:100CA000F5E7121D5CBF51F8043B40F8043BAFF37D
:100CB0000080D20724BF11F8013B11F801CB48BFD7
:100CC00011F8012B24BF00F8013B00F801CB48BF0D
:100CD00000F8012B704710B5203AC0F00B80B1E846
:100CE0001850203AA0E81850B1E81850A0E8185061
:100CF000BFF4F5AF5FEA027C24BFB1E81850A0E86A
:100D0000185044BF18C918C0BDE810405FEA827C83
:100D100024BF51F8043B40F8043B08BF7047D2079A
:100D200028BF31F8023B48BF11F8012B28BF20F83B
:100D3000023B48BF00F8012B70474FF00002042926
:100D4000C0F0128010F0030C00F01B80CCF1040CFA
:100D5000BCF1020F18BF00F8012BA8BF20F8022B2E
:100D6000A1EB0C0100F00DB85FEAC17C24BF00F8D4
:100D7000012B00F8012B48BF00F8012B70474FF002
:100D8000000200B5134694469646203922BFA0E8DB
:100D90000C50A0E80C50B1F12001BFF4F7AF0907E7
:100DA00028BFA0E80C5048BF0CC05DF804EB8900D8
:100DB00028BF40F8042B08BF704748BF20F8022B1B
:100DC00011F0804F18BF00F8012B70477047704733
:100DD000704770472DE9F0470D4699469246044604
:100DE00000F124080168880604D5E06921F01001AB
:100DF000216000E00120A84201DD471B00E0002740
:100E0000A1697A1902EB0900081AA0612078C006CE
:100E100002D42046FFF79EFD002608E0D4E9012118
:100E20001AF806009047206A401C761C20624E4546
:100E3000F4DB2078C0060AD52046FFF78BFD06E0DC
:100E4000D4E9012130209047206A401C2062381EDE
:100E5000A7F10107F4DC07E0D4E9012118F8050047
:100E60009047206A401C2062281EA5F10105F3DC92
:100E70002046FFF785FD2078000602D50220BDE858
:100E8000F0870120FBE710B5436913B1AFF3008091
:100E900001E0FFF786FD012010BD127800F124016A
:100EA0000A7000224A700122EDE711684FF0FF320C
:100EB000E9E70000074B70B50D467B4400F011F8E0
:100EC0000446284600F020F810B14FF0FF3070BD06
:100ED000204670BDBB1E000001694A1C02610878F3
:100EE000704700B58FB0CDE901310021059105496A
:100EF0007944CDE9031011466846FFF7E3FD0FB0D2
:100F000000BD0000E5FFFFFF007B00F080007047A0
:100F1000754600F02BF8AE4605006946534620F0B2
:100F20000700854618B020B5FFF78EF9BDE82040D0
:100F30004FF000064FF000074FF000084FF0000B95
:100F400021F00701AC46ACE8C009ACE8C009ACE848
:100F5000C009ACE8C0098D46704710B50446AFF330
:100F600000802046BDE81040FFF75AB9004870479E
:100F7000A803002000BFFEE77047F0B504460D4609
:100F80001E4694F8207020688368A86800B900E0C5
:100F900000BF012F01D0022F7CD103F0806030B957
:100FA00003F0006018B903F08050002873D0C3F339
:100FB0000161022905D9606A40F4000060620120E5
:100FC000F0BD012088403060A86860B9B5F800C065
:100FD000E86840EA4C5C206800F5C07000EB011046
:100FE000C0F800C00FE0D5E901C040EACC00D5F858
:100FF0000CC040EA0C00D4F800C00CF5C07C0CEB2F
:10100000011CCCF80000D5F810C0206800F5C070B5
:1010100000EB0110C0F804C0287D01280ED1206823
:1010200000F5C07000EB0110406840F4807C20683F
:1010300000F5C07000EB0110C0F804C0D0790006C4
:1010400092F806C040EA0C4092F805C040EA0C2C29
:1010500010794CEA000C206800F5C07000EB01101C
:10106000C0F80CC0D078000692F802C040EA0C40EC
:1010700092F801C040EA0C2092F800C040EA0C004F
:10108000D4F800C00CF5C07C0CEB011CCCF80800B7
:10109000206801E016E00FE000F5C07000EB0110E1
:1010A000006840F0010C206800F5C07000EB0110F2
:1010B000C0F800C0002083E7606A40F4001060625E
:1010C00001207DE7606A40F480206062012077E7BC
:1010D000F0B504460A46216894F82050012D01D04D
:1010E000022D74D1D1F8000240F00100C1F80002D5
:1010F000107D00F01F06012000FA06F3D1F81C0253
:101100009843C1F81C02D069C8B9D1F80C029843C1
:10111000C1F80C02908880B2968940EA064601F533
:101120001070576940F83760108880B2168940EA1D
:10113000064601F51070576900EBC7004660D0699C
:10114000012819D1D1F80C021843C1F80C0290887B
:1011500080B2168840EA064601F51070576940F8DB
:101160003760908980B2168940EA064601F5107012
:10117000576900EBC7004660906928B9D1F80402AE
:101180009843C1F8040204E0D1F804021843C1F8FE
:101190000402106928B9D1F814029843C1F8140266
:1011A00004E0D1F814021843C1F81402106A0128AF
:1011B00004D1D1F81C021843C1F81C02D1F8000276
:1011C00020F00100C1F800020020F0BDFFE7606AD6
:1011D00040F4802060620120F7E710B5024600204D
:1011E00092F82030012B01D0022B09D121B91468CB
:1011F000E46804F0030003E01468246904F00300C9
:1012000010BD70B5044694F82050012D01D0022D78
:101210007DD151B92068C06800F0030080B9606AD0
:1012200040F400106062012070BD2068006900F089
:10123000030028B9606A40F4001060620120F3E7FF
:10124000206800F5D87000EB0110006800F0040081
:101250009060906840B9206800F5D87000EB0110EC
:101260000068400D106007E0206800F5D87000EBC2
:1012700001100068C0085060206800F5D87000EBCD
:101280000110006800F00200D060206800F5D870FE
:1012900000EB0110406800F00F001061206800F5BD
:1012A000D87000EB0110406800F47F40000A9061A4
:1012B000206800F5D87000EB01104068000C506108
:1012C000206800F5D87000EB011080681870206865
:1012D00000F5D87000EB0110806800F47F40000A30
:1012E0005870206800F5D87000EB0110806800F499
:1012F0007F00000C9870206800F5D87000EB01109A
:101300008068000ED870206800F5D87000E02FE0EB
:1013100000EB0110C0681871206800F5D87000EB70
:101320000110C06800F47F40000A5871206800F581
:10133000D87000EB0110C06800F47F00000C9871B9
:10134000206800F5D87000EB0110C068000ED8715D
:1013500031B92068C06840F020002668F06005E0E0
:101360002068006940F020002668306100205BE7BB
:10137000606A40F480206062012055E70146002049
:1013800091F82020012A01D0022A11D10B689B6814
:1013900003F0806303B1401C0B689B6803F000639B
:1013A00003B1401C0B689B6803F0805303B1401CE1
:1013B000704770B504460CB9012070BD94F8200048
:1013C00010B9204600F0B0F82068006820F0020054
:1013D0002168086000F0AEFB05460DE000F0AAFBB6
:1013E000401B0A2808D9606A40F40030606205207A
:1013F00084F820000120E0E72068406800F0020047
:101400000028EBD12068006840F0010021680860E6
:1014100000F090FB05460DE000F08CFB401B0A2815
:1014200008D9606A40F400306062052084F820002A
:101430000120C2E72068406800F001000028EBD0DE
:10144000207E012806D12068006840F080002168D5
:10145000086005E02068006820F0800021680860CE
:10146000607E012806D12068006840F040002168B5
:10147000086005E02068006820F0400021680860EE
:10148000A07E012806D12068006840F02000216875
:10149000086005E02068006820F0200021680860EE
:1014A000E07E012806D12068006820F01000216845
:1014B000086005E02068006840F0100021680860BE
:1014C000207F012806D12068006840F008002168CC
:1014D000086005E02068006820F0080021680860C6
:1014E000607F012806D12068006840F00400216870
:1014F000086005E02068006820F0040021680860AA
:10150000D4E902010843216908436169084361681D
:10151000491E08432168C86100206062012084F8E8
:101520002000002049E7000010B586B00446244999
:101530002068884241D100BF00BF2248806940F046
:101540000400204988610846806900F00400019089
:1015500000BF00BF00BF00BF00BF0846806940F069
:10156000040088610846806900F00400019000BF13
:1015700000BF00BF00BF0846C06940F00070C861EE
:101580000846C06900F00070019000BF00BF8814D9
:10159000029002200390012004900320059002A9EC
:1015A000094800F017F94FF4006002900020039002
:1015B00002A9054800F00EF900BF06B010BD0000FA
:1015C00000640040001002400008014070B504466D
:1015D00094F82000012822D1022084F820002068FD
:1015E000006820F001002168086000F0A3FA0546B9
:1015F0000DE000F09FFA401B0A2808D9606A40F409
:1016000000306062052084F82000012070BD206851
:10161000406800F001000028EBD16062F6E7606AE4
:1016200040F4002060620120F0E7000070B504463D
:10163000002594F82100022803D00420A06301258E
:10164000C1E02068006820F00E0021680860206872
:10165000006820F00100216808605C492068884229
:1016600052D95A4978392068884201D1012047E08F
:10167000564964392068884201D1102040E053491E
:1016800050392068884201D1801539E04F493C39F2
:101690002068884201D1801432E04C492839206802
:1016A000884202D14FF480302AE04849143920683A
:1016B000884202D14FF4801022E0444920688842D9
:1016C00001D140041CE042492068884201D1012038
:1016D00016E03F4914312068884201D110200FE004
:1016E0003B4928312068884201D1801508E03849FB
:1016F0003C312068884201D1801401E04FF48030F1
:101700003349091F086051E0304978392068884220
:1017100001D1012047E02D4964392068884201D178
:10172000102040E0294950392068884201D18015B5
:1017300039E026493C392068884201D1801432E0E2
:10174000224928392068884202D14FF480302AE0AB
:101750001E4914392068884202D14FF4801022E0DB
:101760001A492068884201D140041CE018492068C9
:10177000884201D1012016E01549143120688842C1
:1017800001D110200FE0124928312068884201D190
:10179000801508E00E493C312068884201D1801450
:1017A00001E04FF48030094980394860012084F815
:1017B000210000BF002084F8200000BF606B10B142
:1017C0002046616B8847284670BD000080000240BB
:1017D000080402402DE9F847024600239C467BE1BD
:1017E0004FF0010808FA03F4D1F8008008EA040079
:1017F000A0427DD1DFF8F4A2D1F80480A8EB0A0959
:10180000D0453AD014DCB8F1030F50D009DCB8F160
:10181000000F31D0B8F1010F1CD0B8F1020F49D13F
:1018200020E0B8F1110F18D0B8F1120F42D11EE02C
:10183000B9F5881F25D006DCB9F5803F20D0B9F571
:10184000801F37D11AE0B9F5001F18D0B9F5041F71
:1018500030D117E0D1F80CC02DE0D1F80C8008F1A0
:10186000040C28E0D1F80C8008F1080C23E0D1F832
:101870000C8008F10C0C1EE000BF00BF00BF00BFD1
:1018800000BF00BFD1F80880B8F1000F02D14FF0BF
:10189000040C0BE0D1F80880B8F1010F03D14FF030
:1018A000080C146102E04FF0080C546103E04FF0A3
:1018B000000C00E000BF00BFFF2801D8904601E007
:1018C00002F104084646FF2802D84FEA830803E0E5
:1018D000A3F108084FEA88084746D6F800804FF081
:1018E0000F0909FA07F928EA09080CFA07F900E0D4
:1018F0007AE048EA0908C6F80080D1F8048008F0C8
:101900008058B8F1805F6FD100BFDFF8E481D8F86C
:10191000188048F00108DFF8D891C9F81880C84647
:10192000D8F8188008F00108CDF8008000BF00BF8B
:101930004FEAB9384FEA930958F829504FEA8378AB
:101940004FEA18794FF00F0808FA09F825EA080558
:10195000DFF8A081424502D14FF0000824E0DFF813
:101960009881424502D14FF001081DE0DFF88C81DB
:10197000424502D14FF0020816E0DFF8848142456B
:1019800002D14FF003080FE0DFF87881424502D121
:101990004FF0040808E0DFF87081424502D14FF0B3
:1019A000050801E04FF006084FEA83794FEA1979FC
:1019B00008FA09F848EA0505DFF850814FEA93096B
:1019C00048F82950D1F8048008F48038B8F5803FF1
:1019D0000BD1DFF83C81D8F8008048EA0008DFF836
:1019E0003091C9F800800AE075E0DFF82481D8F86A
:1019F000008028EA0008DFF81891C9F80080D1F8C3
:101A0000048008F40038B8F5003F0ED1DFF80081FB
:101A100008F10408D8F8008048EA0008DFF8F090E0
:101A200009F10409C9F800800DE0DFF8E48008F14D
:101A30000408D8F8008028EA0008DFF8D49009F1FB
:101A40000409C9F80080D1F8048008F48018B8F5BA
:101A5000801F0ED1DFF8B88008F10808D8F80080A0
:101A600048EA0008DFF8A89009F10809C9F80080E1
:101A70000DE0DFF89C8008F10808D8F8008028EA1B
:101A80000008DFF88C9009F10809C9F80080D1F846
:101A9000048008F40018B8F5001F0ED1DFF870803C
:101AA00008F10C08D8F8008048EA0008DFF86090D8
:101AB00009F10C09C9F800800DE0DFF8548008F145
:101AC0000C08D8F8008028EA0008DFF8449009F1F3
:101AD0000C09C9F800805B1CD1F8008028FA03F8D3
:101AE000B8F1000F7FF47CAEBDE8F887000011105C
:101AF0000010024000080140000C014000100140AD
:101B00000014014000180140001C01400800014081
:101B10000004014010B5C26821EA020302EA010490
:101B200043EA0443036110BD0AB1016101E00B0403
:101B300003617047014800687047000010000020F2
:101B40000348006803490978084401490860704760
:101B5000100000201800002010B50848006840F070
:101B6000100006490860052000F080F80F2000F002
:101B700007F800F02BF8002010BD00000020024004
:101B800070B504460E4800784FF47A71B1FBF0F05E
:101B90000C490968B1FBF0F5284600F0E3FB08B1F9
:101BA000012070BD102C07D200222146501E00F0EB
:101BB0001EF80548046001E00120F2E70020F0E78C
:101BC000180000200000002014000020704701468B
:101BD0000846002809DB00F01F0301229A40430950
:101BE0009B0003F1E023C3F8002100BF70472DE9FB
:101BF000F05F80460D461646002700F0D3FF0746EB
:101C000039462A46334601F00700C0F1070ABAF107
:101C1000040F02D94FF0040A01E0C0F1070AD146CF
:101C200000F1040ABAF1070F02D24FF0000A01E0F6
:101C3000A0F1030AD4464FF0010A0AFA09FAAAF100
:101C4000010A0AEA020A0AFA0CFA4FF0010B0BFA2F
:101C50000CFBABF1010B0BEA030B4AEA0B04214628
:101C6000404600F0A7FFBDE8F09F000000BF00F075
:101C70000702064B19684FF6FF031940044B0B434C
:101C800043EA0221014B196000BF70470CED00E0F0
:101C90000000FA0570B504460D460CB9012070BD70
:101CA0005A48006800F00700A8420ED25748006862
:101CB00020F007002843554908600846006800F0F6
:101CC0000700A84201D00120E9E7207800F00200D7
:101CD00002281DD1207800F00400042805D14C48CA
:101CE000406840F4E0604A494860207800F008000D
:101CF000082805D14648406840F46050444948608F
:101D00004348406820F0F000A1680843404948601B
:101D1000207800F0010078B36068012806D13C48C3
:101D2000006800F4003090B90120B8E7606802282C
:101D300006D13748006800F0007040B90120AEE7D6
:101D40003348006800F0020008B90120A7E73048D6
:101D5000406820F00300616808432D494860FFF7A0
:101D6000E9FE064609E0FFF7E5FE801B41F28831F7
:101D7000884202D9032092E707E02548406800F036
:101D80000C006168B0EB810FEDD12048006800F0D5
:101D90000700A8420ED91D48006820F0070028431C
:101DA0001A4908600846006800F00700A84201D000
:101DB000012074E7207800F00400042807D11448BB
:101DC000406820F4E060E1680843114948602078E9
:101DD00000F00800082808D10D48406820F4605041
:101DE000216940EAC1000A49486000F03FF808490B
:101DF0004968C1F30311074A515CC84006490860AD
:101E000006480068FFF7BCFE002048E700200240BB
:101E1000001002406441000800000020140000206F
:101E200001480068704700000000002000B5FFF77F
:101E3000F7FF04494968C1F30221034A515CC840D5
:101E400000BD0000001002407441000800B5FFF71B
:101E5000E7FF04494968C1F3C221034A515CC84005
:101E600000BD00000010024074410008F0B585B0CC
:101E70000FF26C0C9CE8E01001A8A0E8E0101CA593
:101E80002D68009500210022002300240020194D18
:101E9000696801F00C05F5B1042D02D0082D19D1A7
:101EA00001E0154819E001ADC1F38346AC5D01F4D2
:101EB000803555B10F4D6D68C5F340451DF80520BF
:101EC0000D4D6543B5FBF2F302E00C4D04FB05F349
:101ED000184602E000BF084800BF00BF05B0F0BDD3
:101EE00002030405060708090A0B0C0D0E0F10105B
:101EF000010200000010024000127A0000093D00BB
:101F0000F8B504460CB90120F8BD207800F00100B6
:101F1000002878D0F848406800F00C0004280CD065
:101F2000F548406800F00C00082811D1F2484068DC
:101F300000F48030B0F5803F0AD1EF48006800F42B
:101F4000003000285FD0606800285CD10120DBE70A
:101F500000BF6068B0F5803F06D1E748006840F4F4
:101F60008030E549086028E0606858B9E2480068B8
:101F700020F48030E04908600846006820F48020A2
:101F800008601AE06068B0F5A02F0BD1DA4800684D
:101F900040F48020D84908600846006840F480304A
:101FA00008600AE0D448006820F48030D249086014
:101FB0000846006820F48020086000BF606888B18F
:101FC000FFF7B8FD054606E0FFF7B4FD401B6428A7
:101FD00001D9032098E7C848006800F400300028C1
:101FE000F2D010E0FFF7A6FD054606E0FFF7A2FDE0
:101FF000401B642801D9032086E7BF48006800F42D
:1020000000300028F2D1207800F00200022857D1D9
:10201000B948406800F00C0050B1B748406800F083
:102020000C00082818D1B448406800F4803098B9F2
:10203000B148006800F0020020B12069012801D0F9
:10204000012061E7AC48006820F0F800616940EACF
:10205000C100A949086033E02069E8B10120A7491F
:102060000860FFF767FD054606E0FFF763FD401BCC
:10207000022801D9032047E79F48006800F00200CA
:102080000028F2D09C48006820F0F800616940EA1E
:10209000C1009949086013E0002098490860FFF7E3
:1020A00049FD054606E0FFF745FD401B022801D922
:1020B000032029E79048006800F002000028F2D1D0
:1020C000207800F0080008282DD1A069B8B10120BF
:1020D0008B490860FFF72EFD054606E0FFF72AFD55
:1020E000401B022801D903200EE78348406A00F014
:1020F00002000028F2D0012000F098FB13E000203D
:102100007F490860FFF716FD054606E0FFF712FD60
:10211000401B022801D90320F6E67748406A00F008
:1021200002000028F2D1207800F00400042873D1C6
:1021300000277148C06900F0805070B900BF6E4838
:10214000C06940F080506C49C8610846C06900F021
:102150008050009000BF00BF01276A48006800F46B
:102160008070B0B96748006840F4807065490860C5
:10217000FFF7E0FC054606E0FFF7DCFC401B6428A7
:1021800001D90320C0E65F48006800F48070002891
:10219000F2D000BFE068012806D15748006A40F03D
:1021A00001005549086227E0E06858B95248006AC2
:1021B00020F00100504908620846006A20F004003F
:1021C000086219E0E06805280BD14B48006A40F02E
:1021D0000400494908620846006A40F001000862AC
:1021E0000AE04548006A20F00100434908620846B9
:1021F000006A20F00400086200BFE068A0B1FFF7A9
:1022000099FC054609E0FFF795FC401B41F2883137
:10221000884202D9032077E622E03748006A00F0BE
:1022200002000028EFD012E0FFF784FC054608E02A
:10223000FFF780FC401B41F28831884201D903201E
:1022400062E62D48006A00F002000028F0D1012F5C
:1022500005D12948C06920F080502749C86100BFD6
:10226000E069C8B32448406800F00C00082860D03A
:10227000E069022848D1002020490866FFF75AFC8F
:10228000054606E0FFF756FC401B022801D9032053
:102290003AE61948006800F000700028F2D1206A80
:1022A000B0F5803F07D11448406820F40030A168A1
:1022B000084311494860D4E9080108430E494968B8
:1022C00021F4741108430C49486001200B49086649
:1022D000FFF730FC054607E03DE0FFF72BFC401B15
:1022E000022801D903200FE60348006800F00070BF
:1022F0000028F2D02FE0000000100240000042420F
:102300008004424200700040002014490866FFF734
:1023100011FC054606E0FFF70DFC401B022801D921
:102320000320F1E50E48006800F000700028F2D1AB
:1023300011E0E069012800D1E6E50948466806F4A5
:102340008031206A814204D106F47011606A8142B2
:1023500001D00120D8E50020D6E50000000042426F
:102360000010024070B504462546681EB0F1807F1B
:1023700001D301200FE0681E4FF0E02148610F21DA
:102380004FF0FF3000F016FC00204FF0E021886194
:1023900007200861002070BD10B504460CB901206B
:1023A00010BD94F83D0028B9002084F83C00204678
:1023B00000F025F8022084F83D00211D206800F07F
:1023C00071FA012084F8460000BF84F83E00012124
:1023D0003F200155402001554120015500BF00BF5D
:1023E000012084F842004320015544200155452036
:1023F000015500BF012084F83D000020D0E7704760
:10240000014691F83D00012801D0012070470220CB
:1024100081F83D000868C06840F001000B68D86092
:10242000164B0868984213D0154B086898420FD095
:102430000868B0F1804F0BD0124B0868984207D063
:10244000114B0868984203D0104B086898420CD191
:102450000868806800F00702062A0CD00868006847
:1024600040F001000B68186005E00868006840F063
:1024700001000B6818600020C8E70000002C014034
:10248000003401400004004000080040000C0040FF
:10249000704700002DE9F047044620680568206871
:1024A000C668206847694FF00008C14605F00F086C
:1024B000B8F1000F0AD105F0200038B106F0200075
:1024C00020B1204600F066FABDE8F087B8F1000FB1
:1024D00071D007F0010018B906F4907000286AD096
:1024E00005F0010030B106F4807018B1E06B40F0E7
:1024F0000100E06305F0040030B107F0010018B1FD
:10250000E06B40F00200E06305F0020030B107F03C
:10251000010018B1E06B40F00400E06305F0080032
:1025200048B106F0200010B907F0010018B1E06BC7
:1025300040F00800E063E06B68B305F0200028B1CC
:1025400006F0200010B1204600F024FA206840690F
:10255000C0F38019E06B00F0080010B9B9F1000F6A
:1025600022D0204600F0F6F92068406900F04000D3
:10257000B0B12068406920F0400021684861606B7C
:1025800050B11848616B4863606BFFF74FF810B1AA
:10259000606B416B88470CE02046FFF779FF08E04D
:1025A0002046FFF775FF04E02046FFF771FF00208B
:1025B000E06389E7FFE705F0800030B106F08000B6
:1025C00018B1204600F0B4FA7EE705F0400030B1C3
:1025D00006F0400018B1204600F0CCF974E700BFC7
:1025E00072E700004129000810B504460CB901202B
:1025F00010BDA06900B100E000BF94F8390028B90F
:10260000002084F83800204600F028F8242084F8C0
:1026100039002068C06820F400502168C860204656
:1026200000F008FA2068006920F4904021680861F1
:102630002068406920F02A00216848612068C0684D
:1026400040F400502168C8600020E063202084F836
:10265000390084F83A000020CAE7000010B586B0BF
:1026600004462849206888424AD100BF00BF264856
:10267000806940F00400244988610846806900F0C0
:102680000400019000BF00BF00BF00BF00BF0846AC
:10269000806940F0040088610846806900F0040009
:1026A000019000BF00BF00BF00BF00BF08468069A7
:1026B00040F4804088610846806900F480400190C1
:1026C00000BF00BF00BF4815029002200390012008
:1026D00004900320059002A90C48FFF77BF84FF403
:1026E000806002900020039002A90848FFF772F86A
:1026F0002520FFF76CFA032211462520FFF777FA11
:1027000006B010BD00380140001002400008014032
:1027100010B5034693F83A0020282FD101B10AB929
:10272000012010BD00BF93F83800012801D102201C
:10273000F7E7012083F8380000BF99629A85DA85AF
:102740000020D863222083F83A0000BF002083F8DD
:10275000380000BF1868C06840F480701C68E060F2
:102760001868406940F001001C6860611868C06822
:1027700040F020001C68E0600020D2E70220D0E793
:1027800010B504462049206888423BD11F48008884
:1027900000F4004088BB1D48008800F4804070B100
:1027A0001B4800780A2803D000201849088024E03C
:1027B0001648008840F40040144908801DE0144881
:1027C00000780D2806D11148008840F480400F4958
:1027D000088012E00E4800780C490988C1F30D0109
:1027E0000C4A505409480088401C08490880084693
:1027F0000088C72801DD002008800122044906481E
:10280000FFF786FF10BD0000003801400C000020DB
:102810000E000020F8010020C0020020704700BF19
:10282000FEE700BFFEE770477047000008B50849A3
:102830000968C9084FF47A72B1FBF2F14143009183
:1028400000BF00BF00994A1E00920029F9D108BDBF
:1028500000000020704710B5FFF772F910BD7047F7
:1028600010B50E480068C06800F0010078B10C494E
:1028700008698047002009490968486200BF642050
:1028800006490968C86264210448C16000BF6FF04E
:10289000010002490968086110BD00005C030020C6
:1028A0006000002010B50268204B98420ED0204BEB
:1028B00098420BD0B0F1804F08D01E4B984205D003
:1028C0001D4B984202D01D4B984203D122F070025A
:1028D0004B681A43154B98420ED0154B98420BD0BB
:1028E000B0F1804F08D0134B984205D0124B98425C
:1028F00002D0124B984203D122F44072CB681A43A3
:1029000022F080034C6943EA040202608B68C362D0
:102910000B688362054B984202D0054B984201D167
:102920000B6903630123436110BD0000002C0140CB
:10293000003401400004004000080040000C00404A
:1029400070B505466C6A0020E085E0842046FFF7FC
:102950009FFD70BD0168C96821F490710268D16063
:102960000168496921F0010102685161202180F864
:102970003A10704710B504462068C06820F0400047
:102980002168C860202084F839002046FFF746FF00
:10299000002010BD70B5044694F83A00222847D1B3
:1029A000A068B0F5805F0CD1206950B90025A66AF7
:1029B00020684068C0F308003080A06A801CA062D4
:1029C00015E0A56A0026A068B0F5805F03D0A06876
:1029D00028B9206918B920684068287004E0206888
:1029E000406800F07F002870A06A401CA062E08D63
:1029F000401E80B2E085C8B92068C06820F0200081
:102A00002168C8602068C06820F480702168C860B0
:102A10002068406920F0010021684861202084F886
:102A20003A002046FFF7ACFE002070BD0020FCE716
:102A30000220FAE770B504462168096921F4405183
:102A4000E2681143226811612269A1681143626939
:102A500041EA02052168C96841F20C6291432943A9
:102A60002268D1602168496921F44071A26911434B
:102A7000226851612D4A2168914202D1FFF7E6F99F
:102A800001E0FFF7D3F900EBC00101EB0011626830
:102A90009200B1FBF2F100EBC00202EB001263689E
:102AA0009B00B2FBF3F26423B2FBF3F202EBC2032E
:102AB00003EB0212A1EB8201322202EB011164222C
:102AC000B1FBF2F101F0F00100EBC00202EB0012E9
:102AD00063689B00B2FBF3F26423B2FBF3F201EBF9
:102AE000021200EBC00101EB001163689B00B1FB17
:102AF000F3F100EBC00303EB00136668B600B3FB11
:102B0000F6F36426B3FBF6F303EBC30606EB0313FD
:102B1000A1EB8301322303EB01116423B1FBF3F139
:102B200001F00F0111442268916070BD003801402E
:102B3000014691F83900212828D18868B0F5805FD6
:102B40000BD1086948B90A6A1088C0F308000B68FD
:102B50005860086A801C086205E00B6A581C08620D
:102B600018780B685860C88C401E80B2C88458B969
:102B70000868C06820F080000B68D8600868C068EA
:102B800040F040000B68D860002070470220FCE74E
:102B900010B50248FFF77EFC10BD0000C002002007
:102BA00000BFFEE702480068C0F302207047000043
:102BB0000CED00E010B5002804DB0A07130E054AEF
:102BC000135406E00A07140E034A00F00F031B1FFC
:102BD000D45410BD00E400E018ED00E030380A28BD
:102BE00001D2012070470020704700BF70470000ED
:102BF0002DE9F0418AB004460D4616461F46DDF821
:102C000040801C481C49086008464760C0F808809E
:102C1000C46006614561002101764176817601211B
:102C2000C176002101774177FEF7C3FB18B101207F
:102C30000AB0BDE8F08100200590069001200790C1
:102C400000200090019002900390049001200890D1
:102C50000E20099069460848FEF73AFA08B10220AA
:102C6000E6E70548FEF7B2FC08B10320E0E70020E4
:102C7000DEE70000006400400003002070B5044659
:102C80000D4600210E48FEF7A8FA08B9002070BDD5
:102C90002B460C4A00210A48FEF7B3FA08B100207F
:102CA000F5E708480068A04205D10648806810B9D9
:102CB0000448C06808B10020E9E70248007CE6E764
:102CC0000003002040030020F8B504460D461646D8
:102CD000012000900C480460446000200A4988608C
:102CE000C860084606616B462A460848FEF745F963
:102CF00008B10120F8BD00BF0448FEF73FFB0328E0
:102D0000FAD10020F6E7000028030020000300208D
:102D100001490860704700000400002010B5044617
:102D20004FF47A7104FB01F000F002F810BD0000CE
:102D300070B5034600224FF0E02675690D4E3668E7
:102D400003FB06F44FF0E026B16910E04FF0E026F7
:102D5000B06988420BD0884202D20E1A324402E097
:102D60002E1A0E4432440146A24200D300E0EDE7A1
:102D700000BF70BD0400002000BF054A126802F0C9
:102D80004002002AF9D0C2B2014B1B1D1A607047E5
:102D90000038014000B585B000BF00BF1E48806903
:102DA00040F008001C4988610846806900F008006E
:102DB000009000BF00BF00BF00BF00BF0846806991
:102DC00040F0400088610846806900F040000090B3
:102DD00000BF00BF00BF202001900120029003909F
:102DE0000320049001A90D48FEF7F4FC2020019077
:102DF00001A90B48FEF7EEFC00BF01222021074885
:102E0000FEF792FE00BF00BF012220210448FEF71A
:102E10008BFE00BF05B000BD00100240000C014059
:102E20000018014088B000BF00BF00BF2CA103C93B
:102E3000CDE90301002400BFFEF78EFE4FF4E01041
:102E400000F05DF84820FFF763FF4FF4E13000F039
:102E500089F82548416848208847FFF79BFF0020F4
:102E600004235A044FF4E0010090FFF7C1FE002054
:102E700005900690082205A91120FFF725FF2EE0F6
:102E800000200390049003A91220FFF7F7FE0446E8
:102E90000CB300BF20211548FEF73CFE00BF002008
:102EA0000590069007A80821114B0A46CDE90010AD
:102EB00003A910480068FDF7D9F920220C4905A89C
:102EC000FDF709FF082205A91120FFF7FDFE4FF4C9
:102ED000FA70FFF723FF4FF4FA70FFF71FFFCFE7F9
:102EE000010101010101010160000020000C01400D
:102EF000D8010020AC42000801460868704730B590
:102F00008FB005460124282105A8FDF738FF1421BC
:102F10006846FDF734FF012005900004069000206C
:102F2000079002200C90C1030D910E9505A8FEF7A5
:102F3000E7FF04460CB100BFFEE70F20009002201F
:102F40000190002002904FF48060039000200490D4
:102F500002216846FEF79EFE04460CB100BFFEE764
:102F60000FB030BD10B5044609480A49086008464C
:102F7000446000218160C160016181610C21416177
:102F8000FFF732FB012204490248FFF7C1FB10BDE5
:102F900000380140C00200200E00002030B595B07E
:102FA000054613AB12AA09A9284600F03FFA0446C9
:102FB00014B1204615B030BD0020149026E02249FF
:102FC00009689DF8502001EBC20113AB11AA4868B3
:102FD00001A900F02BFA04460CB12046EAE709A942
:102FE00001A800F0AFFC60B99DF844009DF84810BE
:102FF000884201DD0220DDE79DF850001249887506
:103000000AE09DF85000401CC0B214900E48007DAC
:103010009DF850108842D2DC00BF0B48007D9DF81F
:103020005010884201D10420C4E714A9284600F0BA
:10303000DDFA04460CB12046BCE79DF85000024979
:1030400048750020B6E70000600000202DE9F0413F
:103050009AB09C48847D007DA04202DC1AB0BDE895
:10306000F0819849096801EBC40106AB07AA4868DA
:1030700008A900F0DBF908A993A0FDF75FFC002682
:1030800044E09048008B0121B1400840D8B1222192
:103090008FA0FDF753FC304600F042FB89492431F4
:1030A000471839468BA0FDF749FC222188A0FDF77F
:1030B00045FC304600F034FB82492431084410A915
:1030C00041F8260018E0304600F02AFB7D49243103
:1030D000085810A941F826007A48C07D30B910A8D8
:1030E00050F826107CA0FDF729FC05E010A850F848
:1030F00026107AA0FDF722FC9DF81C00401EB0426D
:1031000002D078A0FDF71AFC701CC6B29DF81C0016
:103110008642B6DB74A0FDF711FC01F007F86948A0
:10312000407D0B280DD2DFE800F0060D151E27327A
:103130003F4E5F7287006349096851F83400804749
:10314000054690E05F4A126852F83410109888479C
:10315000054688E05B4B1B6853F83420DDE910011D
:10316000904705467FE0574F3F6857F8343010A826
:1031700007C89847054676E0DFF848C1DCF800C08C
:103180005CF8347010A80FC8B84705466BE0149877
:10319000DFF830C10090DCF800C05CF8347010A893
:1031A0000FC8B84705465EE0DDE91401DFF814C139
:1031B000CDE90001DCF800C05CF8347010A80FC83D
:1031C000B84705464FE0DDE914121698DFF8F4C061
:1031D000CDE900120290DCF800C05CF8347010A851
:1031E0000FC8B84705463EE0DDE91423DDE91610B7
:1031F000DFF8D0C0CDE90023CDE90210DCF800C033
:103200005CF8347010A80FC8B84705462BE0DDE91C
:103210001523DDE91710CDE90123CDE9031014983A
:10322000DFF8A0C00090DCF800C05CF8347010A893
:103230000FC8B847054616E0DDE91623DDE918108A
:10324000CDE90223CDE90410DDE91401DFF874C0F3
:10325000CDE90001DCF800C05CF8347010A80FC89C
:10326000B847054600BF00BF00F00EFF9DF81800EC
:1032700001280CD11348C07D20B929461BA0FDF7B9
:103280005DFB07E029461BA0FDF758FB02E018A0F4
:10329000FDF754FB0B4890F8EC0088B10948D0F8D2
:1032A000F0000A21B0FBF1F201FB12070548D0F84B
:1032B000F000B0FBF1F83A46414611A0FDF73EFBA5
:1032C00000BFCBE6600000200D0A25732800000037
:1032D0002563000025730000256C640030582558D4
:1032E000000000002C000000290000003D256C7546
:1032F0003B0D0A003D305825583B0D0A00000000E8
:1033000046756E6374696F6E2052756E2054696DD8
:10331000653A25642E2531646D730D0A00000000A6
:10332000F0B50346154600200022002600245BE08D
:103330001F782C2F01D104B901221F78292F01D029
:103340001F780FB904B950E0002E3AD11F78302F02
:1033500002DB1F78392F17DD1F782D2F14D01F782F
:103360002B2F11D01F78612F02DB1F78662F0BDD0A
:103370001F78412F02DB1F78462F05DD1F78582F5D
:1033800002D01F78782F0CD102B12EE01F78612F68
:1033900003DB1F78203F0F7001E01F780F70491C7E
:1033A0001FE01F78222F04D102B11EE00126012464
:1033B00017E01F78202F14D01F782C2F11D0FF2654
:1033C00013E01F78222F00D1002402B10DE044B198
:1033D0001F785C2F02D15B1C471CF8B21F780F705E
:1033E000491C471CF8B25B1CA2E700BF00270F7006
:1033F0002E70F0BD10B50446002010700BE0207850
:103400000870641C491C1078401C10701078984299
:1034100001DB012010BD2078202802D02078002870
:10342000EDD10020087000BFF4E700002DE9FF4F48
:1034300085B0804689460027002004900390012033
:1034400002904FF0000B002544461DE02078202814
:1034500016D005F07F00052812DA0DB945F0800579
:1034600005F07F00042803D120782A2800D00EE040
:10347000207805F07F010DF80100681CC5B202E05C
:10348000852D00D103E0641C20780028DED100BF28
:103490008DB1002005F07F010DF8010051A16846B3
:1034A00000F050FA18B900210898017002E00121DB
:1034B0000898017000254FF0000A444614E0641C8F
:1034C0000AF1010000F0FF0A2078202802D02078BD
:1034D0002A2809D1204600F0A7F90646282E03D055
:1034E0002A2E01D0CDF810A02078282802D02078EC
:1034F0000028E4D14446049810B10498401C0444C8
:103500004FF0000A002654E0207810B94FF0010A6D
:1035100050E02078282803D116B9781CC7B213E0F0
:103520002078292808D13EB917B1781EC7B201E02A
:103530004FF0010A47B93DE02078222804D10EB9A6
:10354000012000E00020064647B9207820282FD02F
:10355000207889F8000009F1010929E020782C2859
:1035600004D101200290681CC5B214E02078202804
:1035700011D0207828280ED04DB9BBF1050F06DAFE
:1035800020780DF80B000BF1010000F0FF0B029802
:10359000401CC0B20290012F0AD10298022807D124
:1035A0000298401CC0B202900398401CC0B2039025
:1035B000641CA9E700BF0398012809D100200DF879
:1035C0000B0008A1684600F0BDF908B9002003907F
:1035D000079903980870002089F80000504609B048
:1035E000BDE8F08F766F6964000000002DE9F043BC
:1035F000B5B005460F460024002604E000213D48F2
:103600008155701CC6B20A2EF8DB06E06D1C2878C6
:1036100018B9012035B0BDE8F08328782828F5D105
:103620006D1C61E034AA69462846FFF779FE06461C
:1036300035449DF8D00020B1012827D0FF284CD177
:1036400049E09DF8000000B333A9684600F0F7F8A0
:1036500006460EB10220DDE7204600F061F825495C
:103660000A31339A0A50A1F12400008B0121A140B4
:10367000884320491A39088304211E480155601CDB
:10368000C4B20A2C01DD0320C4E726E0684600F03E
:1036900075F9401C00F0FF08204600F041F815497C
:1036A0000A3100EB01094946684600F05CF911480F
:1036B0001A38018B0120A040014388B20D491A3904
:1036C00008830C4800F80480601CC4B20A2C01DD99
:1036D00003209FE701E002209CE700BF287829280B
:1036E00001D0287800B900E09CE700BF3C700020C2
:1036F00090E700007A0000200020074A128802F4B8
:1037000000423AB1044A11780022044B5A54184638
:10371000014B1A80704700000C000020F8010020C7
:1037200002460020002105E0044B5B5C0344D8B254
:103730004B1CD9B29142F7DB704700007A000020A1
:1037400010B5044604EBC40000EB04100122C2EBE8
:10375000800081B24FF47A7000F0B8FC012001497A
:10376000C87510BD6000002010B50246012000E0C1
:1037700050430B1EA1F10104E1B2F9D110BD0000CC
:1037800070B50026FFF7B8FF064606B970BD1748AA
:1037900081683046884704461CB91449C868804788
:1037A00021E0304600F0F6F80546012D00D02C4609
:1037B000CCB1012C06D0022C08D0032C0AD0042C4A
:1037C00010D10BE00AA0FDF7B9F80BE00BA0FDF754
:1037D000B5F807E00CA0FDF7B1F803E00DA0FDF788
:1037E000ADF800BF00BF00BFD0E7000060000020C0
:1037F000BAAFCAFDB4EDCEF3210D0A00B2CECAFDB8
:10380000B4EDCEF3210D0A00B2CECAFDCCABB6E0CA
:10381000210D0A00CEB4D5D2B5BDC6A5C5E4B5C448
:10382000BAAFCAFD210D0A000146491C00E0491C3F
:103830000878202801D10029F9D1087870472DE9AE
:10384000F04F05460F4600264FF00A09B3462C46B6
:103850000020386034E02078392802DC20783028D5
:1038600011DA28782D2802D028782B2800D156B1DB
:103870002078462802DC2078412804DA207858286D
:1038800017D1012E15D12078412801DB4FF0100906
:1038900028782D2803D14FF0020B6D1C0FE02878FB
:1038A0002B2803D14FF0010B6D1C08E0701CC6B231
:1038B00005E0207800B904E00120BDE8F08F641C29
:1038C000C9E700BF2C46B9F1100F0FD1032E01DA62
:1038D0000220F2E72078302806D16078582803D1FA
:1038E000A41CB01EC6B204E00320E6E70EB9042013
:1038F000E3E71BE00EB1701EC6B22078392806DC63
:103900002078302803DB2078A0F1300A02E020780C
:10391000A0F1370A31464846FFF726FF39680AFB0F
:1039200000103860641C207800B900E0E2E700BFB6
:10393000BBF1020F04D13868C0F10008C7F800805D
:103940000020BAE702460AE010780B78984201D0CE
:1039500001207047107800B902E0521C491CF3E7BF
:1039600000BF0020F5E706E002780A70027802B98D
:1039700002E0401C491CF7E700BF704701460020E9
:1039800005E00A7802B903E0421CD0B2491CF8E70E
:1039900000BF704710B58CB004461E230BAA03A9C4
:1039A0002046FFF727FD0090009810B101200CB0D1
:1039B00010BD9DF82C00044400200B900EE0404800
:1039C0009DF82C2050F8221003A8FFF7BBFF00B988
:1039D00008E09DF82C00401CC0B20B909DF82C0014
:1039E0000728ECD300BF9DF82C00072863D2DFE83E
:1039F00000F004053C5E6564630000BF31A0FCF785
:103A00009DFF31A0FCF79AFF3FA0FCF797FF4EA067
:103A1000FCF794FF5CA0FCF791FF6BA0FCF78EFF16
:103A200079A0FCF78BFF87A0FCF788FF8CA0FCF740
:103A300085FF94A0FCF782FF98A0FCF77FFF9DA074
:103A4000FCF77CFFA2A0FCF779FFA8A0FCF776FFAB
:103A5000B4A0FCF773FFC1A0FCF770FFCCA0FCF78B
:103A60006DFFD8A0FCF76AFFA2E216A0FCF766FF84
:103A7000E4A0FCF763FF00200B900EE0F148006823
:103A80009DF82C2000EBC2004168EFA0FCF756FF28
:103A90009DF82C00401CC0B20B90EA48007D9DF8B8
:103AA0002C108842EADC07A0FCF748FF80E205A062
:103AB000FCF744FFCCE179E24DE221E2F4E10000C1
:103AC0001C0000200D0A00002D2D2D2D2D2D2D2D3B
:103AD0002D2D2D2D2D2D2D2D2D2D2D2D2D2D2D2D16
:103AE00055534D4152542056332E352D2D2D2D2D0D
:103AF0002D2D2D2D2D2D2D2D2D2D2D2D2D2D2D2DF6
:103B00002D2D2D200D0A00002020202055534D4141
:103B10005254CAC7D3C9414C49454E54454BBFAA1C
:103B2000B7A2B5C4D2BBB8F6C1E9C7C9B5C4B4AE73
:103B3000BFDAB5F7CAD4BBA5BDBBD7E9BCFE2CCD57
:103B4000A8B9FD200D0A0000CBFC2CC4E3BFC9D2EC
:103B5000D4CDA8B9FDB4AEBFDAD6FACAD6B5F7D37C
:103B6000C3B3CCD0F2C0EFC3E6B5C4C8CEBACEBAA8
:103B7000AFCAFD2CB2A2D6B4D0D02ED2F2B4CB2C88
:103B8000C4E3BFC90D0A0000D2D4CBE6D2E2B8FC30
:103B9000B8C4BAAFCAFDB5C4CAE4C8EBB2CECAFD58
:103BA00028D6A7B3D6CAFDD7D62831302F3136BD97
:103BB000F8D6C62CD6A7B3D6B8BACAFD29A1A2D7C3
:103BC000D6B7FBB4AE0D0A00A1A2BAAFCAFDC8EBCE
:103BD000BFDAB5D8D6B7B5C8D7F7CEAAB2CECAFD28
:103BE000292CB5A5B8F6BAAFCAFDD7EEB6E0D6A770
:103BF000B3D63130B8F6CAE4C8EBB2CECAFD2CB2A7
:103C0000A2D6A7B3D60D0A00BAAFCAFDB7B5BBD8C6
:103C1000D6B5CFD4CABE2ED6A7B3D6B2CECAFDCFA4
:103C2000D4CABEBDF8D6C6C9E8D6C3B9A6C4DC2C72
:103C3000D6A7B3D6BDF8D6C6D7AABBBBB9A6C4DC37
:103C40002E0D0A00BCBCCAF5D6A7B3D63A77777753
:103C50002E6F70656E6564762E636F6D0D0A0000C1
:103C600055534D415254D3D037B8F6CFB5CDB3C329
:103C7000FCC1EE28B1D8D0EBD0A1D0B4293A0D0ABE
:103C8000000000003F3A202020202020BBF1C8A1E6
:103C9000B0EFD6FAD0C5CFA20D0A000068656C70EF
:103CA0003A202020BBF1C8A1B0EFD6FAD0C5CFA2F0
:103CB0000D0A00006C6973743A202020BFC9D3C379
:103CC000B5C4BAAFCAFDC1D0B1ED0D0A0A000000FB
:103CD00069643A2020202020BFC9D3C3BAAFCAFDEF
:103CE000B5C44944C1D0B1ED0D0A0A006865783AFF
:103CF00020202020B2CECAFD3136BDF8D6C6CFD4A2
:103D0000CABE2CBAF3B8FABFD5B8F12BCAFDD7D6C4
:103D1000BCB4D6B4D0D0BDF8D6C6D7AABBBB0D0AAA
:103D20000A0000006465633A20202020B2CECAFD5C
:103D30003130BDF8D6C6CFD4CABE2CBAF3B8FABF5C
:103D4000D5B8F12BCAFDD7D6BCB4D6B4D0D0BDF807
:103D5000D6C6D7AABBBB0D0A0A00000072756E74E6
:103D6000696D653A312CBFAAC6F4BAAFCAFDD4CB8F
:103D7000D0D0BCC6CAB13B302CB9D8B1D5BAAFCAC5
:103D8000FDD4CBD0D0BCC6CAB13B0D0A0A0000009E
:103D9000C7EBB0B4D5D5B3CCD0F2B1E0D0B4B8F164
:103DA000CABDCAE4C8EBBAAFCAFDC3FBBCB0B2CE51
:103DB000CAFDB2A2D2D4BBD8B3B5BCFCBDE1CAF82F
:103DC0002E0D0A002D2D2D2D2D2D2D2D2D2D2D2D92
:103DD0002D2D2D2D2D2D2D2D2D2D2D2D2D2DD5FD9B
:103DE000B5E3D4ADD7D32D2D2D2D2D2D2D2D2D2D4E
:103DF0002D2D2D2D2D2D2D2D2D2D2D2D2D2D2D2000
:103E00000D0A00002D2D2D2D2D2D2D2D2D2D2D2D7F
:103E10002D2D2D2D2D2D2D2D2D2D2D2D2DBAAFCA26
:103E2000FDC7E5B5A52D2D2D2D2D2D2D2D2D2D2DA0
:103E30002D2D2D2D2D2D2D2D2D2D2D2D2D2D2D2DB2
:103E4000200D0A006000002025730D0A000000000C
:103E500059A0FCF773FD00200B901AE06649096831
:103E60009DF82C2001EBC20101AB02AA486803A90E
:103E7000FFF7DCFA604800689DF82C1050F83120FC
:103E800003A95EA0FCF75AFD9DF82C00401CC0B2AF
:103E90000B905948007D9DF82C108842DEDCAFF273
:103EA000DC30FCF74BFD83E0AFF2E830FCF746FD79
:103EB0000BAA03A92046FFF733FA9DF82C00C8B9D6
:103EC000694603A8FFF7BBFC0B909DF82C0020B9B6
:103ED0004FA00099FCF732FD0EE09DF82C0004285D
:103EE00001D0022063E54DA0FCF728FD01204249E6
:103EF000C87501E002205AE547A0FCF71FFD57E016
:103F000045A0FCF71BFD0BAA03A92046FFF708FA02
:103F10009DF82C00C8B9694603A8FFF790FC0B90E8
:103F20009DF82C0020B942A00099FCF707FD0EE097
:103F30009DF82C00042801D0022038E53FA0FCF7B2
:103F4000FDFC00202C49C87501E002202FE532A0BD
:103F5000FCF7F4FC2CE030A0FCF7F0FC0BAA03A962
:103F60002046FFF7DDF99DF82C00C8B9694603A883
:103F7000FFF765FC0B909DF82C0078B91E4900985E
:103F800081F8EC00084690F8EC0018B130A0FCF77E
:103F9000D5FC07E035A0FCF7D1FC03E0022006E5E4
:103FA000022004E51CA0FCF7C9FC01E00120FEE4AE
:103FB00000BF0020FBE400002D2D2D2D2D2D2D2DDB
:103FC0002D2D2D2D2D2D2D2D2D2D2D2D2D2D2D2D21
:103FD0002DBAAFCAFD204944202D2D2D2D2D2D2D7C
:103FE0002D2D2D2D2D2D2D2D2D2D2D2D2D2D2D2D01
:103FF0002D2D2D2D200D0A00600000202573206935
:10400000642069733A0D0A3058253038580D0A007B
:104010004845583A305825580D0A00003136BDF849
:10402000D6C6B2CECAFDCFD4CABE210D0A0000004A
:104030004445433A256C750D0A0000003130BDF847
:10404000D6C6B2CECAFDCFD4CABE210D0A0000002A
:1040500052756E2054696D652043616C63756C61A7
:1040600074696F6E204F4E0D0A00000052756E206D
:1040700054696D652043616C63756C6174696F6E22
:10408000204F46460D0A00000E480068006900F007
:10409000010040B10C48D0F8F0004FF6FF71084421
:1040A0000949C1F8F0000848D0F8F000054909684E
:1040B000496A08440449C1F8F0000846D0F8F00005
:1040C000704700005C0300206000002038B5044603
:1040D0000D4600BF00BF1248C06940F004001049FF
:1040E000C8610846C06900F00400009000BF00BF2E
:1040F00000BF0C480C4908600846456000218160FB
:10410000C4600161FEF748F90748FEF779F9032218
:1041100011461E20FDF76BFD1E20FDF758FD38BD32
:1041200000100240000800405C0300206FF0010016
:1041300009490968086100BF000C07490968C8629D
:1041400001460548C16000BF002003490968486274
:104150000249C1F8F00070475C03002060000020B5
:10416000016070470000000000000000010203042D
:104170000607080900000000010203043031323351
:10418000343536373839414243444546403058008B
:1041900030313233343536373839616263646566BD
:1041A0004030780004000008000000000000000219
:1041B00000010000100000003F0000006465630083
:1041C0006964000072756E74696D650068656C7075
:1041D000000000006C6973740000000068657800DE
:1041E000766F69642077726974655F6164647228B0
:1041F00075696E7433325F7420616464722C756902
:104200006E7433325F742076616C290075696E7448
:10421000385F742063616E5F73656E645F6D736792
:104220002875696E7433325F742069642C20756957
:104230006E74385F74202A6D73672C2075696E74F4
:10424000385F74206C656E290000000075696E741B
:1042500033325F7420726561645F616464722875D3
:10426000696E7433325F74206164647229000000E7
:10427000766F69642064656C61795F6D7328756918
:104280006E7431365F74206E6D732900766F6964C9
:104290002064656C61795F75732875696E7433325B
:1042A0005F74206E757329000D060008A84200088F
:1042B000FC7F003F0035011304B0010100170145E8
:1042C000E042000800000020540100006C010008DA
:1042D0003843000854010020B4080000C801000859
:1042E00011031124F43210320113B8411B08CC041D
:1042F0001AD4041AC0041ADC041ABC041AC4041325
:10430000F92E14084C421B08610C1AE004131D2DF1
:104310001B0870101A31081A8C0813C92C1B080CC2
:104320000822381420413714089D2F14084D301BE3
:0843300008810C4A055F01D968
:0400000508000131BD
:00000001FF
