:020000040800F2
:10000000D08C0020DD020008D9540008D15400082B
:10001000D554000825300008F95A000800000000F7
:100020000000000000000000000000006155000812
:1000300019330008000000005D55000875560008DF
:100040000103000801030008010300080103000880
:100050000103000801030008010300080103000870
:100060000103000801030008010300080103000860
:100070000103000801030008010300080103000850
:100080000103000801030008010300080103000840
:10009000853000080103000801030008010300087F
:1000A0000103000801030008010300080103000820
:1000B0000103000801030008010300080103000810
:1000C0000103000801030008010300080103000800
:1000D00001030008D95A000801030008E95A000882
:1000E00001030008010300080103000801030008E0
:1000F00001030008010300080103000801030008D0
:1001000001030008010300080103000801030008BF
:1001100001030008010300080103000801030008AF
:10012000010300080103000801030008010300089F
:10013000010300080103000801030008010300088F
:10014000010300080103000801030008010300087F
:10015000010300080103000801030008010300086F
:10016000010300080103000801030008010300085F
:10017000010300080103000801030008000000005B
:10018000010300080103000800F002F800F096F8EF
:100190000AA090E8000C82448344AAF10107DA45E2
:1001A00001D100F08BF8AFF2090EBAE80F0013F09E
:1001B000010F18BFFB1A43F0010318477CAD000084
:1001C0009CAD0000103A24BF78C878C1FAD8520715
:1001D00024BF30C830C144BF04680C6070470000C1
:1001E0000023002400250026103A28BF78C1FBD840
:1001F000520728BF30C148BF0B6070476E2900F01E
:100200007384702900F0C78566290AF08483652904
:100210000AF0818367290AF07E8361290AF07D83D1
:1002200003681B0A28BF41F08001692900F020847F
:10023000642900F01D84752900F01A846F2900F0EC
:100240005585782900F09385E92900F0EF84E429A9
:1002500000F0EC84F52900F0E984EF2900F05285E4
:10026000F82900F092850368DB0928BF41F080017E
:10027000632901F09F86732901F0A486E32901F028
:10028000AF86F32901F0B486002070471FB50AF04D
:1002900035FB9DE8030000F053FB01F02FFA04004A
:1002A0000020002109F0CEFE401C606000200021EB
:1002B00009F0DEFEE0601FBD10B510BD02F03EFB90
:1002C0001146FFF7E3FF06F097FC02F013FC03B4BE
:1002D000FFF7F2FF03BC05F0CDFC00000C480168FD
:1002E00041F4700101600B4880470B480047FEE76E
:1002F000FEE7FEE7FEE7FEE7FEE7FEE7FEE7FEE7D6
:10030000FEE7000005480649064A074B7047000013
:1003100088ED00E07D56000889010008D008002023
:10032000D08C0020D0880020D0880020704770B585
:10033000064600F0E9FA056806F10B0020F0070414
:10034000B4429CBF002070BD2B466A68BAB11068E9
:10035000A04210D304F1080188423CBF50685860A5
:1003600007D35168101941601168091B016058607A
:100370001460101D70BD13465268002AE7D1214653
:10038000284600F0C9FA0028DED170BD70B50446D9
:10039000051F00F0B9FA0068002C14BF446870BD56
:1003A000002C18BFAC423CBF20466468F8D30168FB
:1003B0000A18AA4218BF456003D12A6805461144AD
:1003C000016028684119A1421CBF6C6070BD616862
:1003D000696021680844286070BD70B50D46064606
:1003E000041F00F091FAD0F800C0C5B1E6B105F1E4
:1003F0000B0020F00703AB423CBF002070BD20681B
:10040000984238BFDCF8042013D3C11A08292FD32F
:10041000E01840F8041B2360FFF7B8FF28E03046DF
:10042000FFF7B4FF002070BD2846BDE87040FFF71D
:100430007EBF002A18BFA2423CBF94465268F8D340
:100440000119914216D111680844984212D3C11A79
:1004500008293CBF2060506808D35168E01841600B
:10046000216812681144C91A01602360CCF80400A5
:10047000201D70BD181FFFF75AFF050007D0216827
:100480000A1F211D01F004F9201DFFF77FFF2846F8
:1004900070BD53EA020C00F069802DE9F04B4FF07B
:1004A0000006002B1FBFB3FA83F503FA05F424FA04
:1004B00005F65E4012BF1643B2FA82F502FA05F461
:1004C000C5F120051EBF22FA05FC44EA0C042035C4
:1004D00056EA044C4FEA144418BF641C4FF000085D
:1004E0004FF00009904271EB030C39D3002919BF7A
:1004F000B1FA81F701FA07F6B0FA80F700FA07F6C9
:10050000C7F120071EBF20FA07FC46EA0C06203779
:10051000B6FBF4FCA7EB0507103F07F01F0BCBF170
:1005200020062CFA06F60CFA0BFB44BFB346002655
:10053000202FA4BF5E464FF0000B5BEA060C08BFFD
:100540004FF0010B19EB0B0948EB0608ABFB027CE3
:1005500006FB02CC0BFB03CCC01B71EB0C01C1E70B
:100560000B46024641464846BDE8F08B13B54FF0B6
:1005700000004FF00001AFF30080BDE81C40704761
:1005800010B5044600F0B8F90068005DC00602D559
:1005900004F1200010BD204610BD10B5044600F047
:1005A000ABF90068005D000704D5DF2C02D0A4F190
:1005B000200010BD204610BD0FB4044910B503AA99
:1005C000029800F0C3FA10BC5DF814FB8400002010
:1005D0000FB41CB5084B06AA7B44694600900598E9
:1005E00000F09BFA04460020694600F0A9FA204674
:1005F0001CBC5DF814FB0000650500000FB400B5DD
:100600008DB010A9099000910B904FF0FF300A9027
:1006100000200C90064878440690064878446A46C4
:1006200007900F9909A800F04DFE0DB05DF814FB7E
:10063000CB0C0000E30C000040EA0103024630B599
:100640009B0710D14FF0013400E008C208C91D1B00
:100650009D4315EAC41FF8D013F0FF0102F8011BF7
:100660000DD01B0AF8E711F8013B002B02F8013B03
:1006700005D011F8013B002B02F8013BF3D130BD4E
:1006800010B5431C02E010F8011B71B18107FAD1CB
:100690004FF0013202C88C1A8C4314EAC211F9D00F
:1006A000C01A0A0603D0C01E10BDC01A10BD0A042D
:1006B00001D0801E10BD0902FCD0401E10BD40EAD2
:1006C000010370B59B072ED14FF00136042A2AD3BF
:1006D00008C810C99D1B9D43121F15EAC61517D0E7
:1006E000D8B2E1B2401A50EA056110D198B2A1B275
:1006F000401A50EA05410AD123F07F4024F07F419F
:10070000401A50EA052102D1180EA0EB146070BD0A
:10071000A342DBD018BA21BA884201D9012070BDAA
:100720004FF0FF3070BD0AB9002070BD10F8013BDA
:1007300011F8014B63B1A3420AD1521E08D010F840
:10074000013B11F8014B1BB1A34201D1521EEDD167
:10075000181B70BD032A40F2308010F0030C00F02B
:10076000158011F8013BBCF1020F624498BF11F8EB
:1007700001CB00F8013B38BF11F8013BA2F10402A4
:1007800098BF00F801CB38BF00F8013B11F003031C
:1007900000F07E87083AC0F0088051F8043B083A20
:1007A00051F804CBA0E80810F5E7121D5CBF51F822
:1007B000043B40F8043BAFF30080D20724BF11F89C
:1007C000013B11F801CB48BF11F8012B24BF00F801
:1007D000013B00F801CB48BF00F8012B70474FF0F8
:1007E00000020429C0F0128010F0030C00F01B80FE
:1007F000CCF1040CBCF1020F18BF00F8012BA8BF0C
:1008000020F8022BA1EB0C0100F00DB85FEAC17CCF
:1008100024BF00F8012B00F8012B48BF00F8012B82
:1008200070474FF0000200B51346944696462039B3
:1008300022BFA0E80C50A0E80C50B1F12001BFF499
:10084000F7AF090728BFA0E80C5048BF0CC05DF8FF
:1008500004EB890028BF40F8042B08BF704748BF4D
:1008600020F8022B11F0804F18BF00F8012B7047C1
:1008700030B44FF0013C50F8042B51F8043BCCFA53
:1008800052F4D51A20D1FCB950F8042B51F8043B8E
:10089000CCFA52F4D51A17D1B4B950F8042B51F848
:1008A000043BCCFA52F4D51A0ED16CB950F8042B93
:1008B00051F8043BCCFA52F4D51A05D1002CDAD009
:1008C00030BC4FF00000704729BAB1FA81F111F045
:1008D0001801D1F120008440F2D1CA40CB4012F07F
:1008E000FF0213F0FF0330BCD01A70477047704707
:1008F000704770477047704710B500F0FFFE001D4D
:1009000010BD00BF4197000000487047280000203C
:10091000704770477047704738B504460A46002054
:100920006946AFF30080002808BF38BD0246009931
:10093000204600F0E7FE012038BD012001F0F7BF9E
:10094000F8B5AFF30080054600200C46102000BF2C
:100950000646A819A0420DD9324669460020AFF3D9
:100960000080070008BF01F0E2FF0098A04218BF16
:100970000546C419FFF7C8FF05600746F01D20F0C3
:1009800007004619284600F00AF8B44208BFF8BD2F
:10099000A21B31463868BDE8F84000F0B3BE002124
:1009A0000160C0E9011070471020704770B504461F
:1009B00085690068C10601D5302600E02026C00701
:1009C00007D070BDD4E9012130469047206A401C11
:1009D00020626D1EF6D570BD70B50446856900783D
:1009E000C00707D170BDD4E9012120209047206ABB
:1009F000401C20626D1EF6D570BD09684A0501D500
:100A000040B27047C905FCD500B2704709684A0575
:100A100001D5C0B27047C905FCD580B2704770B52A
:100A20000C460546012A05D02878800600D5EA69DB
:100A3000002302E0012305E05B1C934202D2E05C4C
:100A40000028F9D1A869E618C01AA861286A1844D4
:100A500028622846FFF7AAFF04E0D5E9012114F82F
:100A6000010B9047B442F8D32846FFF7B5FF70BD9D
:100A70002DE9F0410646002410687529314616A577
:100A800010D0FFF7BAFF002802DA404213A507E0B2
:100A900031688A0701D512A502E0490704D511A5DE
:100AA000012401E0FFF7B2FF00210A2206F124072A
:100AB00009E0B0FBF2FCB0FBF2F302FB1C003030AB
:100AC00078541846491C0028F3D123462A4630465C
:100AD000BDE8F04100F07EBE000000002D000000E7
:100AE0002B0000002000000011680268006A530516
:100AF00001D508700AE0D30501D5088006E0130689
:100B000003D5C217C1E9000200E008600120704768
:100B100001694A1C02610878704700B58FB0CDE9C1
:100B200001310021059105497944CDE903101146B1
:100B3000684600F03BF90FB000BD0000E5FFFFFF85
:100B40000A6802F8010B0A6070470000074B70B595
:100B50000D467B44FFF7E1FF0446284601F09FFE67
:100B600010B14FF0FF3070BD204670BDCF5E000069
:100B70002DE9FF5F15468A460446DFF8AC80F8444D
:100B80000027D8E900103E46CDE9001010E03AF801
:100B900016106A4602A801F0A6FE411C07D0217873
:100BA000890603D5E269391891420DD80744761CAD
:100BB0002078800602D5E069B84205DDAE42E6DB6A
:100BC0003AF816000028E2D1A069C01BA0612046B7
:100BD000FFF7ECFED8E90010CDE90010002017E087
:100BE0003AF818106A4602A801F07DFEB0F1FF3F06
:100BF00081460BD000250DF1080B05E0D4E9012159
:100C00001BF8050090476D1C4D45F7D308F1010016
:100C1000B0428046E4DB206A384420622046FFF779
:100C2000DBFEBDE8FF9F00009A9E00002DE9F04129
:100C30008046D21D22F007020025D2E90002F529E4
:100C400015A614D0011E72F1000106DA0023D0EBC4
:100C5000030063EB020211A608E0D8F800108B072E
:100C600001D50FA602E0490701D50EA601251146C0
:100C7000002408F1240704E000F05EFD30323A550C
:100C8000641C50EA0102F7D12B4632462146404609
:100C9000BDE8F04100F09EBD000000002D00000006
:100CA0002B0000002000000030B4002100F12404DB
:100CB00008E002F00705D208303542EA4372DB084B
:100CC0006554491C52EA0305F3D10468002310A2BD
:100CD000250708D504F020040C4304D0C46901237F
:100CE0000CA2641EC46130BC00F074BD10B5044693
:100CF00021461068FFF78AFE02462046BDE81040F4
:100D00000023D1E7D21D22F00701D1E90023CBE770
:100D10000000000030000000F0B40D460188090515
:100D200002D5214C7C4402E01F4C7C440E3400214F
:100D300000F1240608E002F00F071209E75D42EA1D
:100D400003721B097754491C52EA0307F3D1027856
:100D50000023120704D5702D06D009B102231134E7
:100D60002246F0BC00F036BD01231034F8E770B520
:100D700004460D4621461068FFF748FE0246294604
:100D80002046BDE870400023C6E7D21D22F00703CD
:100D9000D3E90023C0E70368126843F0200303602F
:100DA0000823C3610023B7E7FC9C00002DE9F05F36
:100DB000894604464FF0000ADFF874B1FB44C0F8DE
:100DC00020A02046E1688847002874D0252806D056
:100DD000D4E901219047206A401C2062F1E70026F7
:100DE0005F462046E16888472028054607DB312D0D
:100DF00005D2781910F8200C08B10643F1E7B007C6
:100E000001D526F00406C4F81CA00027C4F818A0D9
:100E10002A2D09D0284609F0C6F838B304EB870814
:100E2000303DC8F8185019E059F8041B204604EB6F
:100E300087029161E1688847012F054618D1E06972
:100E4000002820DA26F020061DE0D8F8180000EB74
:100E5000800005EB40003038C8F818002046E168F3
:100E60008847054609F09FF80028EED1012F0AD0E7
:100E70002E2D08D12046E16888477F1C0546022FA9
:100E800046F02006C4DBA069002803DA404246F0A1
:100E90000106A061F00701D026F010066C2D0BD0E2
:100EA000682D09D04C2D39D06A2D35D0742D35D010
:100EB0007A2D33D016E038E0E1682F462046884787
:100EC000B842054609D16C2F26D04FF48060E16806
:100ED000064320468847054604E06C2F1AD04FF49D
:100EE000807006430DB3A5F14100192802D82035C2
:100EF00046F400664A462946204626604E46FFF7DD
:100F00007DF980B101280BD0F61D26F0070000F115
:100F1000080956E74020E4E78020D8E70020D6E71C
:100F200006F104094DE7284652E7206ABDE8F09F24
:100F30008C9C00002DE9FF4F1C4691464FF0FF3579
:100F400081B000218A468846D4E90167A1690298E8
:100F50006D1C8847216A834688470028F6D1BBF17B
:100F6000FF3F0CD0002F26F4C0661ADD700615D5A1
:100F7000BBF12B0F0AD0BBF12D0F0FD104E04FF0C6
:100F8000FF3005B0BDE8F08F46F48066A169029895
:100F90006D1C88477F1E8346002F02DDBBF1300F9A
:100FA00003D0B9F1000F2AD025E0A1696D1C029889
:100FB0007F1E46F400768847002F834605DDBBF18F
:100FC000780F06D0BBF1580F03D0B9F1000F10D045
:100FD00011E0B9F1000F02D0B9F1100F0BD1A169E6
:100FE0006D1C02987F1E26F40076884783461020E9
:100FF00000E0082081464FEAE970009017E00A20DF
:10100000F8E74346AAFB0928DDF800C07F1E03FB72
:10101000098046F4007605F101050AFB0C0112EB8C
:101020000B0A029841EBEB78A16988478346002FB1
:1010300006DD4946584600F0DFFF5FEA000BE0D5C9
:10104000E16902988847B00502D46FF0010098E783
:10105000F00718D1700610D55146700505D500234C
:10106000D1EB030163EB080200E042462068031D58
:1010700023600068C0E9001205E02068011D2160BE
:101080000068C0E900A828467BE72DE9FF5F1D4600
:101090004FF0FF3B91464FF000085F46D5E901460F
:1010A000A96901987F1C8847296A824688470028D9
:1010B000F6D1BAF1FF3F0CD0002E24F4C06419DD44
:1010C000600614D5BAF12B0F09D0BAF12D0F0ED14D
:1010D00003E0584604B0BDE8F09F44F48064A96979
:1010E00001987F1C8847761E8246002E02DDBAF1E9
:1010F000300F03D0B9F1000F26D032E0A969761E77
:1011000001987F1C44F400748847002E824605DD58
:10111000BAF1780F06D0BAF1580F03D0B9F1000F29
:1011200010D01EE0B9F1000F02D0B9F1100F18D1A4
:10113000A969761E01987F1C24F4007488478246B2
:10114000102002E0082000E00A20814609E0A96999
:1011500008FB0908761E01987F1C44F40074884738
:101160008246002E05DD4946504600F045FF002826
:10117000EDDAE96901988847A00502D46FF0010013
:10118000A8E7E00725D1600613D5600502D5C8F1B0
:10119000000000E0404629680A1D2A60096822050F
:1011A00001D5087015E0220701D5088011E008601C
:1011B0000FE02868011D29600068210502D580F82C
:1011C000008006E0210702D5A0F8008001E0C0F809
:1011D000008038467EE72DE9FF5F4FF00008994612
:1011E000144646469169D2E901A7DDF838B0019866
:1011F0008847054659EA0B0005D009E0A169019826
:10120000761C88470546216A284688470028F5D17C
:10121000681C03D05FEACA7005D015E04FF0FF30BC
:1012200004B0BDE8F09F2068011D2160D0F8008067
:101230000AE05FEACA7001D108F8015BA169761C77
:1012400001987F1E88470546002F1ADD681C18D0BC
:10125000B9F1000F0DD0E81705EBD060421120F076
:101260001F0059F822102A1A012090400142E0D1B3
:1012700007E0BBF1000FDCD12846216A884700282F
:10128000D7D0E16901988847BBF1000F07D1002E44
:1012900005DD5FEACA7002D1002188F80010A0685D
:1012A000B84203DDBBF1000F03D017B16FF00100AE
:1012B000B6E73046B4E700000268114413780160D5
:1012C00018467047D1600549794451610449794411
:1012D000116200211161114600F09CBEEDFFFFFF7D
:1012E000F1040000426842B1016811F8013B23B1EA
:1012F000521EC0E90012184670470121C160881EC5
:10130000704742685AB1C368016843B983688B4229
:1013100005D0491E521CC0E90012002070474FF052
:10132000FF3070470FB4002300B589B00CA90091BD
:101330000B99CB60204B7B440693204B7B44079357
:1013400004236FF00042CDE901321D4A7A446B4616
:1013500008920246002009F042FB09B05DF814FB38
:1013600070B506464FF0FF3015460C46324686B043
:101370000091CDE9010169460020049004A8FFF71F
:10138000D1FF03460498211825B108B10A4600E0B0
:1013900022462A6000280DD0002B02DD00988842EA
:1013A00008D03246081B69460094CDE9010404A820
:1013B000FFF7B8FF06B070BDABFFFFFFC3FFFFFF35
:1013C000730400002DE9FF4F4FF000089A461446C1
:1013D000C146464683B0D2E901B7CDF80080CDF8CA
:1013E0000480916904988847109905465AEA0100DB
:1013F00005D009E0A1690498761C88470546216A52
:10140000284688470028F5D1681C03D05FEACB70D6
:1014100005D02AE04FF0FF3007B0BDE8F08F20681C
:10142000011D2160D0F800801FE002A86A46E9B2E1
:1014300001F039FA411C07D0801C09D04FF0000997
:101440005FEACB7007D00AE0E169049888473EE084
:101450004FF0010904E0BDF8081028F8021B7F1EB8
:10146000A1690498761C88470546002F1ADD681C80
:1014700018D0BAF1000F0DD0E81705EBD06042117B
:1014800020F01F005AF822102A1A01209040014231
:10149000CBD107E010980028C7D12846216A884799
:1014A0000028C2D0E16904988847B9F1000F0ED135
:1014B000109830B9002E04DD5FEACB7001D1A8F896
:1014C0000000A068B84202DD109818B117B16FF0A3
:1014D0000100A1E730469FE72DE9FF4F4FF00008DC
:1014E0009B461446454683B0D2E90196CDF800806C
:1014F000CDF804809169DDF848A004988847074634
:101500005BEA0A0005D009E0A16904986D1C8847D0
:101510000746216A384688470028F5D1781C03D051
:101520005FEAC97005D01BE04FF0FF3007B0BDE89F
:10153000F08F2068011D2160D0F8008010E05FEA84
:10154000C97007D16A464046B9B201F0CCF9411CD6
:1015500031D08044A1696D1C0498761E88470746E7
:10156000002E14DD781C12D0BBF1000007D03B46E2
:10157000DDE9101201F084F90028E0D107E0BAF1AA
:10158000000FDCD13846216A88470028D7D0E169AE
:1015900004988847BAF1000F06D1002D04DD5FEAF8
:1015A000C97001D188F80000A068B04203DDBAF12B
:1015B000000F03D016B16FF00100B7E72846B5E77A
:1015C0002DE9FF5F9B46144600273D469169D2E90D
:1015D0000196DDF840A00198884780465BEA0A0042
:1015E00005D009E0A16901986D1C88478046216AF1
:1015F000404688470028F5D1B8F1FF3F03D05FEAA5
:10160000C97005D014E04FF0FF3004B0BDE8F09F82
:101610002068011D216007680AE05FEAC97001D1F6
:1016200027F8028BA1696D1C0198761E88478046B9
:10163000002E15DDB8F1FF3F12D0BBF1000007D03E
:101640004346DDE90E1201F01BF90028E5D107E061
:10165000BAF1000FE1D14046216A88470028DCD06A
:10166000E16901988847BAF1000F05D1002D03DD2B
:101670005FEAC97000D13880A068B04203DDBAF1DA
:10168000000F03D016B16FF00100BEE72846BCE79B
:1016900010B5203AC0F00B80B1E81850A0E81850FF
:1016A000B1E81850A0E81850203ABFF4F5AF5FEA4F
:1016B000027C24BFB1E81850A0E8185044BF18C9F4
:1016C00018C0BDE810405FEA827C24BF51F8043B9B
:1016D00040F8043B08BF7047D20728BF31F8023BEF
:1016E00048BF11F8012B28BF20F8023B48BF00F883
:1016F000012B7047004870472000002000487047C9
:1017000040000020034640688C46002818BF8842ED
:101710003CBF03464068F8D318681844884207D095
:101720000CF1030020F00700001D411A521A014677
:10173000081D0A60FEF72ABE30B5B0F10A0271F149
:1017400000034FEA900E4EEA817EB0EB0E0061EB93
:1017500091014FEA101E4EEA017E10EB0E0041EBA4
:1017600011114FEA102E4EEA016E10EB0E0041EB04
:1017700011214FEA104E4EEA014E10EB0E0041EBE4
:101780001141401841F100014FEAD00040EA417098
:101790004FEAD1014FEA810444EA907410EB8005CE
:1017A00044EB01046D1944EB0404521BA3414FF0B8
:1017B000000348BF0A3200D530BD401C41F1000192
:1017C00030BD10B50446FFF797F80068005D00F0E3
:1017D000010010BD2DE9F0470D469946924604469A
:1017E00000F124080168880604D5E06921F01001A1
:1017F000216000E00120A84201DD471B00E0002736
:10180000A1697A1902EB0900081AA0612078C006C4
:1018100002D42046FFF7CAF8002608E0D4E90121E7
:101820001AF806009047206A401C761C20624E453C
:10183000F4DB2078C0060AD52046FFF7B7F806E0AB
:10184000D4E9012130209047206A401C2062381ED4
:10185000A7F10107F4DC07E0D4E9012118F805003D
:101860009047206A401C2062281EA5F10105F3DC88
:101870002046FFF7B1F82078000602D50220BDE827
:10188000F0870120FBE770472DE9FF4F0C461E460D
:101890004FF0FF378BB0D2E90001DDF860800A908D
:1018A0008A46C1F30A5505B93D46002108464FF066
:1018B0000000BAF1000F00F4400005DA00EB8000F0
:1018C0004FF4400101EA50004FEA9059B9F1010F7D
:1018D00000DDB9460A9850EA4A000ED044F610508E
:1018E000A5F2FF3545432F14B8F1000F1ED0754205
:1018F000291E1EDDC9F100021CE0B8F1010F4FF0F6
:10190000000001D0302103E0F24305E02154401CE7
:10191000B042FBDB30460022002121540B99C1F874
:101920000880C1E900200FB0BDE8F08FBD1B6D1C21
:10193000DEE74A4600DA694206A801F069F806AB1C
:1019400093E8070003AB83E8070050460A9907F0C5
:10195000A7FD8DE80700A0F500501F380090039800
:10196000002D0ADD42F21F014A460844002303A964
:101970000390684608F052F809E0A0F500504A4686
:101980001F38002303A90390684608F071F88DE81A
:1019900007000004000C03D04FF0FF30410800E0C6
:1019A0001046B8F1000F03D00022009215461EE049
:1019B000751E05D4FFF7C0FE303262556D1EF9D595
:1019C000B3460122084302D000227F1C04E02078A5
:1019D000302801D100227F1E002A099784D01DE003
:1019E000112D07DAFFF7A8FE303262556D1C50EA60
:1019F0000102F5D1084302D00098C8B10EE00021E1
:101A0000681E05E0235C625C63542254401E491C3E
:101A10008142F7DBAB46A81B401E0990002004F86A
:101A20000B000B98099AC0F80880C0E9002B7AE7F0
:101A300011264FF0000857E72DE9F04F884604467D
:101A4000D21D22F0070191B0D1E90001CDE90A01D0
:101A500008F05AF902460B98C00F01D02D2007E07C
:101A60002068810701D52B2002E0202101EAC00077
:101A7000032A099001D0072A05DB03464146204688
:101A800000F086FF0BE12078800601D5E06900E0D8
:101A90000620B8F1650F814606D0B8F1660F18D060
:101AA000B8F1670F70D131E00020B9F1110F00904B
:101AB00001DB112301E009F101030AAA01A90CA825
:101AC000FFF7E2FEDDE90C70002609F1010583460F
:101AD00047E001204B4600904FF000470AAA01A9B9
:101AE0000CA8FFF7D1FEDDE90DB00C995D4600268C
:101AF00010B909F101000D18B9EB050003D4C0F1CC
:101B0000FF3609F10105A5EB09002BE0B9F1010F42
:101B100001DA4FF001090020B9F1110F0090484699
:101B200001DD112300E003460AAA01A90CA8FFF772
:101B3000ABFEDDE90C704D46002683462078000799
:101B40000AD4AB4500DA5D4601A8012D04DD411938
:101B500011F8011C302907D04F4502DA17F1040FA4
:101B600004DA012082460FE06D1EEEE7002F02DC52
:101B7000ED1B3E4403E0781CA84200DD7D1CB81B31
:101B800000F1010A4FF000472078000703D4AA456E
:101B900001DB4FF0FF3A0021B7F1004F0DF1430890
:101BA0008DF8431024D002202B23002F01DA7F422E
:101BB0002D230A21021EA0F1010000DC5FB197FB7A
:101BC000F1FC97FBF1F201FB1C7C17460CF1300C89
:101BD00008F801CDEEE7A8F101000370218809059E
:101BE00001D5452100E06521A0F1010800F8011CA4
:101BF00009980FA9A1EB0807FF1D00B101204119A9
:101C000001EBEA70A1693844081A401EA0612078EF
:101C1000C00602D42046FEF7C9FE099828B1D4E9CF
:101C200001219047206A401C20622078C00622D5FE
:101C30002046FEF7BBFE1EE0002E04DBB34502DDAE
:101C400001A8805D00E03020D4E901219047206A9E
:101C5000401C2062761CAAF101005FEA000A0AD14A
:101C6000FFF74CFDC0680168405CD4E90121904752
:101C7000206A401C2062281EA5F10105DCDC07E07B
:101C8000D4E9012118F8010B9047206A401C20621A
:101C9000381EA7F10107F3DC2046FEF79DFE032066
:101CA00011B041E62DE9F04F04460D46D21D22F059
:101CB000070089B0D0E900974846394608F024F873
:101CC0000246F80F01D02D2307E02068810701D5D7
:101CD0002B2302E0202101EAC0038DF820300BB154
:101CE000012000E00020032A824601D0072A04DBFD
:101CF0002946204600F04CFE3FE12078800601D4C2
:101D00000D2500E0E569C7F30A560D2D49DA0021DB
:101D10004FEA175B08464FF00000002F00F4400028
:101D200007DA00EB80004FF4400100EBD07001EACD
:101D300060008115012901DD4FF0FF3100224FEADB
:101D4000850CBCF1180F06D31346ACF118004FF008
:101D50008052C24003E04FF4801323FA0CF30CF1DD
:101D60000C0CBCF1200F04D3ACF1200C09FA0CF0E0
:101D700001E007FA0CF000294FF0004801DD18B926
:101D80000FE00ED140450CD319EB02095F4121B998
:101D9000404502D19F4329EA0209BBEB175F00D0FF
:101DA000761C2088000502D57B48784402E07A48FA
:101DB0007844193808AA302302F80A30037C0AF163
:101DC0000101002E0AF1020A53546A4602DC4FF068
:101DD000300101E04FF031014FF001088DF80010A3
:101DE00002D0A6F2FF3603E059EA470100D06B4E5D
:101DF000002D02DC2178090704D54FF002082E21BE
:101E00008DF80110C44600210BE0C7F303433F01E6
:101E1000C35C491C6D1E02F80830052908F1010851
:101E200001DA002DF1DC00210CE000EB1973491CF4
:101E30001B786D1E082902F808304FEA091908F1CD
:101E4000010801DA002DF0DC21688B0602D516E0CE
:101E5000A8F10108E04505DD02EB080313F8013C99
:101E6000302BF5D0B8F1000F09DD02EB080313F8B1
:101E7000013C2E2B03D1090701D4A8F10108002D44
:101E800005DD3E2102F808106D1E08F10108407CB6
:101E9000002E02F8080008F1010804DA2D2076422D
:101EA00002F8080002E02B2002F808000A214FF493
:101EB0007A70864208F101080BDB96FBF0F33033B1
:101EC00002F8083096FBF0F308F1010800FB1366F6
:101ED00001E0642E0CDB642096FBF0F3303302F853
:101EE000083096FBF0F308F1010800FB136601E0EF
:101EF0000A2E06DB96FBF1F0303002F8080008F1FC
:101F0000010896FBF1F001FB1060303002F8080088
:101F1000A16908F1010808EB050202EB0A00081AA2
:101F2000A0612078C00602D42046FEF73FFD216A5A
:101F300008AE01EB0A00206204E0D4E9012116F8A2
:101F4000010B9047BAF1010AF7D22078C00602D5FA
:101F50002046FEF72BFD6E4609E016F8010B3E28E1
:101F60000FD0D4E901219047206A401C2062B8F1CB
:101F70000108F2D22046FEF72FFD09B00320BDE88C
:101F8000F08F206A2844206203E0D4E90121302048
:101F900090476D1EEBD3F8E7C28C000002FCFFFFF8
:101FA00010B5436913B1AFF3008001E0FEF737FDD0
:101FB000012010BD127800F124010A7000224A703D
:101FC0000122EDE711684FF0FF32E9E710B54369F0
:101FD00013B1AFF3008001E0FEF7CAFD012010BD90
:101FE000128800F1240182840022C2840122EDE7DC
:101FF00011684FF0FF32E9E73A2800D2303820F07C
:102000002002412A01D3A2F13700884201D34FF0C8
:10201000FF3070472DE9F34F4FF0000A0C4656464B
:102020008DB001200C9001F10C000B9062690B98AF
:1020300001219047051E2DD0252D2CD0216A8847DF
:10204000C0B162690B9801219047216A8847002836
:10205000F7D16269411E0B98904700E0761CA16998
:102060000D988847216A88470028F7D1E1690D98C3
:102070008847DBE7A1690D988847A842074601D148
:10208000761CD3E7E1690D9888477F1C02D1BAF12D
:10209000000F6FD06BE162690B9800273D4639460F
:1020A00090472A2804D162690B98012190470125A5
:1020B000DFF8D08262690B9801219047A0F13001CE
:1020C0000A290AD24745E5DC07EB870100EB410707
:1020D000303FDFD445F01005ECE7E90601D46FF09E
:1020E00000476C280AD04C2814D0682815D06A28DC
:1020F0000DD074281CD07A281AD01DE062690B9884
:10210000012190476C2802D045F0040514E045F009
:1021100002050DE045F020050AE062690B980121F7
:102120009047682802D045F0080505E045F40065B1
:1021300062690B9801219047C4E9015765283DD099
:1021400019DC58287AD00CDC452837D004DC252847
:1021500026D041289ED131E046282FD0472899D15A
:102160002CE05B2877D0612828D063287CD06428B5
:1021700023D15AE0F6E06F2848D008DC66281DD04D
:1021800067281BD0692821D06E2816D127E0702837
:1021900045D0732868D0752847D078280DD14DE0F8
:1021A000A1690D988847252805463FF469AFE16984
:1021B0000D9888476D1C3FF46AAFD8E00D9923460F
:1021C0006A466FF0010008F00AFCC5E045F04000E7
:1021D00023464FF000026060A80736D43EE0E807CF
:1021E0007FF447AF2068011D21600068290501D5F3
:1021F00006701BE7290701D5068017E7A90703D555
:10220000F117C0E9006111E706600FE745F04000F3
:1022100023464FF008026060A80716D41EE040F67F
:102220000E0125EA0100606016E045F040002346FB
:102230004FF00A026060A80707D40FE045F04000A5
:102240006060A80708D5234610220D996FF00100A1
:10225000FEF770FE80E007E0102223460D996FF034
:102260000100FEF712FF77E04FF0000963284F46A8
:10227000C8464B46CB4602D05B2806D038E0E8067D
:1022800001D40120A060012732E06269D4F80CB0CB
:102290000B98012190475E2807D14FF0010949466C
:1022A0006269D4F80CB00B989047216939B90021C4
:1022B0000A4603AB43F82120491C0829FADBD8B3AE
:1022C000216949B308F1010862690B98012190471F
:1022D0005D28F4D1B9F1000F09D0002003A951F80D
:1022E0002020D24341F82020401C0828F7DB03AB14
:1022F0002069002820794FEA40701ED05B462246B4
:10230000CDF80080CDE901970D9900286FF001000C
:1023100020DAFFF755F91FE0C11703AA00EBD161DE
:102320004B1121F01F0102EB8302411A13680120B7
:10233000884003431360C7E719E00D99224600283F
:102340006FF00100009702DAFFF73CF804E0FEF7B7
:1023500042FF01E0FFF7C0F800280ADA401C06D16E
:102360000C9820B14FF0FF300FB0BDE8F08F504611
:10237000FAE7E90701D10AF1010A064400200C90AE
:1023800054E60000CCCCCC0C2DE9FF4F06468BB0B8
:102390000878FF2806D0491C2D2805D000244FF0CE
:1023A000000908E000200CE00124F8E709EB8903AC
:1023B000491C00EB43090878FF28F7D114B1C9F193
:1023C00000008146107800252C46AA4629462D2873
:1023D00001D02B2804D1521C2D2813D00020824676
:1023E0008B461078FF280FD04FF0000C0A21521CAA
:1023F000A5FB017804FB018105FB0C11C5194BEB12
:102400000104EEE70120EAE7002108464FF0000052
:10241000BAF1000F02D000EB80004008C0F38157F2
:10242000012F01DD4FF0FF370E9955EA040009EB4B
:1024300001080BD04FF0020918F5FA7F16DA4FEABF
:10244000CA70002F706008DD012007E04FEACA70F3
:10245000C6E900B00FB0BDE8F08F0020306000F09A
:1024600093FAC0F800901821084616E0B8F5FA7FF4
:1024700018DD002F02DAF748784401E0F648784486
:10248000D0E90010C6E9001040EACA70706000F0A0
:102490007BFAC0F80090142108460FB0BDE8F04F59
:1024A00008F036BA002108464FF00000B8F10001EC
:1024B000099002DAC7F1000200E03A4601DAC8F1F9
:1024C000000106A800F0A4FA06AB93E8070003ABEE
:1024D00083E8070044F23E005BEA0401009058469E
:1024E00004D144F21E012C465D460091210C0904E2
:1024F000014306D10099240444EA15442D041039FF
:10250000009104F07F41014306D10099240244EA7E
:1025100015642D020839009104F07041014306D181
:102520000099240144EA15742D01091F009104F05B
:102530004041014306D10099A40044EA9574AD00DE
:10254000891E009104F00041084304D100986D19E0
:102550006441401E00904FF001033A466846B8F1CE
:10256000000FCDE9014503A902DD07F096FA01E06D
:1025700007F069FABAF1000F04460D4601D084F065
:102580000044002108464FF00000099940F2FF770F
:10259000484010F00C0F07D124F00040284303D02E
:1025A000C4F30A50B84212D100F0EEF9C0F800901E
:1025B000C4F30A50B8420AD1A8487844D0E90010C0
:1025C000C6E9001004F000410843706042E7C6E924
:1025D00000543FE72DE9FF4F1F464FF0000A4FF030
:1025E000FF38454691B0D7E90146CDF83CA0FFF74A
:1025F00085F8C0680168405C1090B96912986D1C3C
:102600008847396A814688470028F6D1B9F1FF3FEB
:102610000AD0002E24F4D06411DDB9F12B0F08D0BC
:10262000B9F12D0F0BD102E0404615B013E744F489
:102630008064B96912986D1C8847761E81466005D2
:1026400004A901D52D2000E02B20002E01F1010B63
:102650000DF130088DF810003FDDB9F1690F08D099
:10266000B9F1490F05D0B9F16E0F02D0B9F14E0F93
:102670001CD13B4601A8009580E85002DDE912120A
:102680006FF0020008F0AFF9C11CCED10EE0B969BD
:1026900012986D1C884781461398761E44F4007486
:1026A00005600F98401C002E0F9016DDB9F1300F19
:1026B000EDD0B9F1780F02D0B9F1580F0DD10F98C4
:1026C00001280AD13B46CDE90054DDE91212001F72
:1026D000029608F086F9C11CA7D1109989453ED110
:1026E00044F0800406E01399681CAAF1010A44F43E
:1026F00000740860B9696D1C1298761E88473028EE
:102700008146F0D02BE01099894505D1200603D4ED
:10271000761E44F0800418E0484607F044FC08B3F5
:10272000761E0DF123018B4544F4007408D2A9F103
:1027300030000BF8010B200607D5AAF1010003E0D9
:10274000200602D40AF101008246A00502D51399A1
:10275000681C0860B96912986D1C88478146002E74
:10276000D1DC53E0002E51DDB9F1650F02D0B9F193
:10277000450F4BD1A00549D5B9696D1C1298761E3D
:1027800024F440748847002E81460CDD2B2804D0A9
:10279000B9F12D0F07D144F48074B96912986D1CFA
:1027A0008847761E8146E00501D52D2100E02B21CA
:1027B00008F8011BCDF8008021E0761E0DF13901EB
:1027C000884544F400740CD2A9F1300010F0FF00E9
:1027D00088F8000002D10099884509D908F101085C
:1027E00006E0E00501D51E4801E042F20F70824686
:1027F000B96912986D1C8847814613980560002EB0
:1028000004DD484607F0CFFB0028D6D1F9691298BD
:102810008847FF2053468BF8000088F8000000200E
:102820000A900B9004AA0CA90AA8FFF7ADFDA00519
:1028300002D46FF00100F8E614F0240F12D0E00784
:102840001CD13868DDE90A12031D3B600068C0E94D
:10285000001213E0E48A0000D68A00009A89000082
:10286000F1D8FFFF0AA9684607F08AFBE00705D107
:102870003868009A011D3960006802602846D4E675
:1028800010B508E030F8024B9C4204D10AB1002098
:1028900010BD012010BD491EF4D2104610BD007BB2
:1028A00000F080007047F8B516460C460546FEF766
:1028B00023F8036893F80101012804D0185D78B16A
:1028C00001202C80F8BDD3F803013246214603F2E3
:1028D0000313C71868460023B84700992980F8BD3C
:1028E0004FF0FF30F8BD2DE9F04116460C46054685
:1028F000FEF702F8036893F80101012807D0FF2CC6
:1029000012D8185D80B101202C70BDE8F081D3F899
:1029100007013246214603F20713C7182846BC4672
:10292000BDE8F041002360474FF0FF30EDE710B500
:1029300000F0EEF8BDE8104000F0E5B87546FEF78F
:10294000D9FEAE4605006946534620F0070085468D
:1029500018B020B5FDF7D6FCBDE820404FF00006CA
:102960004FF000074FF000084FF0000BAC46ACE80A
:10297000C009ACE8C009ACE8C009ACE8C00921F066
:1029800007018D4670470000004870472000002076
:102990002DE9F0411F46044603260168072A01F489
:1029A000006004DB08B116A505E016A503E008B138
:1029B00015A500E015A521F010002060A069C01E3B
:1029C000A0610FB1401EA0612046FDF7EFFF4FB19F
:1029D000D4E9012138469047206A401C2062C01C7F
:1029E000206206E0206AFAE7D4E9012115F8010B1C
:1029F0009047761EF8D22046FDF7EEFFBDE8F08145
:102A00004E414E006E616E00494E4600696E660092
:102A10002DE9F047814616468AB0354878440DC8FE
:102A20008DE80D0032487844801C03AC0DC884E862
:102A30000D0041F69B300844372190FBF1F290FBEA
:102A4000F1F5A5F1800501FB12041B3C02D564429F
:102A5000012000E00020DFF898A080460027FA441B
:102A6000AAF1BE0A0EE0E0070AD03246684607EB3C
:102A7000470101230AEB810106F0FAFF8DE8070008
:102A800064107F1C002CEED1194F7F44AE3F19E03B
:102A9000E80715D007EB04100DF1180A90E80E00B6
:102AA0008AE80E00C068F04201D1981908903246B9
:102AB000012306A903A806F0DBFF03AB83E80700A8
:102AC0006D10641C002DE3D14FF0010332466946BE
:102AD000B8F1000F03A802D006F0A0FF01E006F055
:102AE000C7FFC9E90001C9F808200AB0BDE8F087AE
:102AF000E080000010B50446AFF300802046BDE83A
:102B00001040FDF7E4BB002801D003F0B3B87047D4
:102B100010B5012805D0002103A000F057FA0120CC
:102B200010BD09A1F8E7000053494752544D454DE7
:102B30003A204F7574206F662068656170206D655E
:102B40006D6F7279000000003A2048656170206D59
:102B5000656D6F727920636F727275707465640051
:102B600010B5FFF711FF006810BD10B50446FFF760
:102B70000BFF046010BD00002DE9FF4F1F464FF012
:102B80003C0987B04FF00042DDE9141001F1010863
:102B9000DDF858A002EA40500390002005908346DB
:102BA000054604460490B969461E08988847AAF16C
:102BB000010A0290BAF1000F3BDD02982E2815D0D1
:102BC0001021FFF719FA00282EDB4FF0010B0599B1
:102BD000014317D0B9F1000F0BDB4A46C11700F0D3
:102BE0000EFA05430C43A9F1040905E00120049005
:102BF0000BE008B145F0010501200590049820B9CB
:102C0000361D02E0049800B1361FB969089808F132
:102C100001088847BBF1000FAAF1010A0290C9D050
:102C20000999C1F80080C5E70298702808D050289B
:102C300006D0F96908988847BBF1000F14D04FE01F
:102C4000002002900120BBF1000F049009D0B96967
:102C5000089808F101088847AAF10109B9F1000FA5
:102C600007DCF969089888476FF001000BB0BDE8F0
:102C7000F08F2B2804D02D280CD14FF0FF3004907A
:102C8000B969089808F101088847A9F10109B9F163
:102C9000000FE6DD411CE4D00A21FFF7ADF9002862
:102CA000DFDB029908F1010801EB810100EB410033
:102CB0000290B969089888470A21FFF79DF9099A97
:102CC000A9F10109B9F1000FC2F8008001DD002867
:102CD000E7DAF969089888470499029800FB0166C9
:102CE00055EA040004D004F04041090002D006E097
:102CF000039898E0A40044EA9574AD00B61E04F071
:102D00000041080002D16D196441761E159810F03B
:102D1000240F03D04FF00B095C4803E04FF0280963
:102D20006FF07D008246564507DAAAEB060189441A
:102D3000B9F1410F01DD4FF0410901200021A9F156
:102D4000010200F05CF9024628400B46214008438E
:102D500001D0012100E00021501E029143F1FF311A
:102D600028402140084301D0012000E000200299C2
:102D7000834651EA0B014FD0002108464FF0000076
:102D8000039900F4400039B100EB80004FF440019A
:102D900000EBD07001EA60008015012802DD4FF0E1
:102DA000FF3000E013D0401C36D0029860B3BBF176
:102DB000000F0CD14A460120002100F020F92840E4
:102DC0002140084301D0012000E00020E0B10120B3
:102DD0004A46002100F013F9034640190A466141B2
:102DE0002D1A8C4111D3B9F1400F09DD159810F05F
:102DF000240F02D0AAF1340603E0AAF1170600E07E
:102E0000761C00254FF0004406E05B1E42F1FF32C5
:102E100020EA030521EA0204CAF10100B04206DA01
:102E20001B49039808430190002000900EE0039A8C
:102E3000C4F3D321E80A0A43164940EA44500A433E
:102E40003146CDE90002684607F0A3F8159810F066
:102E5000240F0BD01598C00715D13868DDE9001292
:102E6000031D3B600068C0E900120CE002A869463F
:102E700007F086F81598C00705D13868029A011D39
:102E80003960006802604046F0E6000002FCFFFF87
:102E90000000F07F0000F03F2DE9FF4F92461D46F5
:102EA00085B04FF00041DDE9124BDDE914727F1E61
:102EB00001EA4B50414940F0FF4940EA0108002136
:102EC00022F020004928049102D04E2828D04CE05E
:102ED0003BA0012607C88DE80700A9690698641C75
:102EE00088477F1E014606D41DF8060018B121F060
:102EF000200181420BD0E96906988847032E34D01F
:102F0000082E32D06FF0010009B0BDE8F08F761CBA
:102F1000032E01D0082EE0D1601CCAF80000DCE7C7
:102F2000A9690698641C88477F1E2AD420F02000D7
:102F3000412826D1A9690698641C88477F1E20D4A1
:102F400020F020004E281CD1A9690698641C8847EF
:102F50007F1E48F4002849F48009CAF8004001D4D3
:102F6000282806D0E969069888475FEACB7012D016
:102F700022E0A9690698641C88477F1E01D40028B6
:102F800003DAE96906988847BCE72928F1D1641C6F
:102F9000CAF80040E9E71BF0240F07D0286804991D
:102FA000031D2B600068C0E9001805E02868021DB9
:102FB0002A600068C0F800902046A5E70000F07F76
:102FC000494E46494E4954590000000070B5054627
:102FD0000C460A2000E06D1C02F052FE35B1287844
:102FE0000028F8D102E0641C02F04AFE14B12078F7
:102FF0000028F8D1BDE870400A2002F041BEB2F1CD
:1030000020030AD5C2F1200301FA02F120FA03F3EA
:1030100041EA030100FA02F0704700FA03F14FF0B1
:1030200000007047FFE7FEE780B588B013468C4686
:103030008646079006910592002004900393CDF8F0
:1030400008C0CDF804E0FFE704980599884212DA39
:10305000FFE70698049900EB4100079A525C4AF694
:10306000A661C0F60001FDF7B3FA0090FFE70498EF
:1030700001300490E8E706980599002200F8112035
:1030800008B080BD80B59EB012201B901B981CA973
:10309000169103F095FA40F20821C2F20001D1F82E
:1030A00000E00A694AF60871C0F60001159008466A
:1030B0007146FDF781FA9DF870108DF86B10169926
:1030C0004A1C19929DF86B20103A9646212A1490BA
:1030D000CDF84CE000F21D811399DFE811F04900B2
:1030E0001A011A011A011A011A011A011A011A0108
:1030F0001A011A011A011A011A011A011A011A01F8
:103100007C00B5001A011A011A011A011A011A01EC
:103110001A011A011A011A011A011A011A011A01D7
:103120002200199940F20000C2F20000027840F239
:10313000DA03C2F20003129018461193FDF70AFB5E
:1031400012990A7840F2D803C2F200031A8040F2C2
:103150008002C2F20002012313704AF6FC62C0F63C
:103160000002109010461199FDF726FA0F90D1E059
:1031700040F2DA00C2F200004FF480710E90FDF7C9
:103180002EFB40F2D800C2F2000000210180B0F80E
:1031900000E00E9A9644199B40F2000CC2F2000C1B
:1031A0009CF800200D9070460C911946CDF82CC06B
:1031B000FDF7D0FA0B990A780D9BB3F800C0624472
:1031C0001A8040F28002C2F20002DDF830C082F8BC
:1031D00000C00A909EE040F2D800C2F200000088D1
:1031E00040F20001C2F2000109780844B0F5807F86
:1031F00029DCFFE740F2D800C2F20000018840F26B
:10320000DA02C2F200021144199A40F20003C2F23B
:10321000000393F800C009900846114662460893DF
:10322000FDF798FA08990A78099BB3F800C0624440
:103230001A804AF62B72C0F6000207901046FDF77E
:10324000BBF90690FFE765E040F2D800C2F200004B
:10325000008840F20001C2F2000109780844B0F58C
:10326000807F55DCFFE700208DF863000620179073
:10327000FFE71798002810DBFFE719981799405CC3
:10328000002805D0FFE7179801308DF8630004E0AF
:10329000FFE7179801381790EBE79DF863104AF69F
:1032A000DD60C0F60000FDF787F940F2D801C2F2F8
:1032B0000001B1F800E040F2DA02C2F200029644E6
:1032C000199B9DF863C005907046049119460392BE
:1032D0006246FDF73FFA9DF86310049A138819447B
:1032E000118011880023DDF80CC00CF801304AF67B
:1032F000ED61C0F60001029008466146FDF75CF9F9
:1033000040F28001C2F2000101220A700190FFE741
:1033100000E0FFE71EB080BD7047000088B00A469D
:10332000034606900591069800680390069890F869
:1033300020008DF80B009DF80B00012801920093EE
:1033400006D0FFE79DF80B00022840F0B880FFE7A9
:1033500046F20040C4F2000003900398D0F8001237
:1033600041F00101C0F800120398D0F8001221F4D6
:103370007C51C0F800120598406A0399D1F80022E8
:1033800042EA0020C1F800020598406900F01F00E1
:10339000012101FA00F0049004980399D1F81C224D
:1033A00022EA0000C1F81C020598C06900281FD15C
:1033B000FFE704980399D1F80C2222EA0000C1F833
:1033C0000C0205988188C268406941EA0241039A6B
:1033D00002EBC000C0F8401205980188826840697D
:1033E00041EA0241039A02EBC000C0F84412FFE731
:1033F0000598C06901281ED1FFE704980399D1F808
:103400000C221043C1F80C020598818802684069BB
:1034100041EA0241039A02EBC000C0F8401205984D
:1034200081898268406941EA0241039A02EBC00047
:10343000C0F84412FFE705988069002809D1FFE72A
:1034400004980399D1F8042222EA0000C1F804028A
:1034500007E004980399D1F804221043C1F804024C
:10346000FFE705980069002809D1FFE70498039950
:10347000D1F8142222EA0000C1F8140207E00498EF
:103480000399D1F814221043C1F81402FFE70598FC
:10349000006A012808D1FFE704980399D1F81C229B
:1034A0001043C1F81C02FFE70398D0F8001221F086
:1034B0000101C0F8001200208DF81F0008E00698F6
:1034C000416A41F48021416201208DF81F00FFE72D
:1034D0009DF81F0008B0704786B00A460346059065
:1034E000049100200390059890F820008DF80B00BF
:1034F0009DF80B0001280192009305D0FFE79DF88D
:103500000B00022813D1FFE70498002807D1FFE73A
:1035100005980068C06800F00300039006E0059875
:103520000068006900F003000390FFE7FFE70398DD
:1035300006B07047B0B58AB09C4696460C46054624
:103540000890079106920593089890F820008DF84E
:1035500013009DF813000128CDF80CC0CDF808E049
:103560000194009506D0FFE79DF81300022840F073
:10357000DC80FFE70798002811D1FFE70898006872
:10358000C06810F0030F09D1FFE70898416A41F4C1
:103590000011416201208DF82700CFE010E008986B
:1035A0000068006910F0030F09D1FFE70898416A2D
:1035B00041F40011416201208DF82700BEE0FFE7D1
:1035C00008980068079900EB0110D0F8B00100F0EE
:1035D0000400069988600698806800280BD1FFE7F0
:1035E00008980068079900EB0110D0F8B001400D71
:1035F000069908600AE008980068079900EB011036
:10360000D0F8B001C00806994860FFE70898006844
:10361000079900EB0110D0F8B00100F00200069904
:10362000C86008980068079900EB0110D0F8B40151
:1036300000F00F000699086108980068079900EBF0
:103640000110D0F8B401C0F30720069988610898EA
:103650000068079900EB0110D0F8B401000C06993E
:10366000486108980068079900EB0110D0F8B8018C
:103670000599087008980068079900EB0110D0F8C8
:10368000B801000A0599487008980068079900EB8E
:103690000110D0F8B801000C0599887008980068EE
:1036A000079900EB0110D0F8B801000E0599C87019
:1036B00008980068079900EB0110D0F8BC01059943
:1036C000087108980068079900EB0110D0F8BC0158
:1036D000000A0599487108980068079900EB0110E5
:1036E000D0F8BC01000C059988710898006807990A
:1036F00000EB0110D0F8BC01000E0599C8710798C5
:10370000002807D1FFE708980068C16841F0200150
:10371000C16006E008980068016941F0200101617C
:10372000FFE700208DF8270008E00898416A41F47F
:103730008021416201208DF82700FFE79DF82700D6
:103740000AB0B0BD80B584B001460290029800284E
:10375000009104D1FFE701208DF80F00E6E0029808
:1037600090F82000002804D1FFE7029800F0E2F86A
:10377000FFE702980068016821F00201016000F093
:103780003BFC0190FFE702980068406810F0020FD0
:1037900017D0FFE700F030FCDDF804E0A0EB0E00EE
:1037A0000B280DD3FFE70298416A41F400314162D2
:1037B0000298052180F8201001208DF80F00B5E057
:1037C000E1E702980068016841F00101016000F042
:1037D00013FC0190FFE702980068406810F0010FA9
:1037E00017D1FFE700F008FCDDF804E0A0EB0E00C5
:1037F0000B280DD3FFE70298416A41F40031416282
:103800000298052180F8201001208DF80F008DE02E
:10381000E1E70298007E012807D1FFE702980068DF
:10382000016841F08001016006E0029800680168CB
:1038300021F080010160FFE70298407E012807D156
:10384000FFE702980068016841F04001016006E06E
:1038500002980068016821F040010160FFE70298CA
:10386000807E012807D1FFE702980068016841F0D7
:103870002001016006E002980068016821F0200143
:103880000160FFE70298C07E012807D1FFE7029898
:103890000068016821F01001016006E002980068EC
:1038A000016841F010010160FFE70298007F0128E4
:1038B00007D1FFE702980068016841F00801016044
:1038C00006E002980068016821F008010160FFE746
:1038D0000298407F012807D1FFE70298006801683D
:1038E00041F00401016006E002980068016821F0DF
:1038F00004010160FFE70298016842688368D0F81C
:103900000CC043EA0C03D0F810C043EA0C03406932
:103910001843013A1043C86102980021416202989D
:10392000012280F820208DF80F10FFE79DF80F008E
:1039300004B080BD80B590B001460F900F9800682C
:1039400046F20042C4F200029042069154D1FFE7D1
:10395000FFE7FFE700200E9043F63000C4F20200BC
:10396000016841F001010160006800F001000E9063
:103970000E980590FFE7FFE7FFE7FFE700200D90B7
:1039800043F63000C4F20200016841F00101016019
:10399000006800F001000D900D980490FFE7FFE72C
:1039A000FFE700200C9043F64000C4F202000168DB
:1039B00041F000710160006800F000700C900C98FC
:1039C0000390FFE74FF480500790022008900121F8
:1039D00009910A9009200B900020C4F2020007A967
:1039E0000290019100F0F6F84FF400600790029801
:1039F000019900F0EFF8FFE710B080BD80B584B00A
:103A000001460290029890F820000128009132D1DE
:103A1000FFE70298022180F82010029800680168F0
:103A200021F00101016000F0E7FA0190FFE7029840
:103A30000068406810F0010F17D0FFE700F0DCFAD3
:103A4000DDF804E0A0EB0E000B280DD3FFE7029891
:103A5000416A41F4003141620298052180F820104A
:103A600001208DF80F000FE0E1E70298002141628C
:103A70008DF80F1008E00298416A41F4002141627C
:103A800001208DF80F00FFE79DF80F0004B080BD06
:103A900080B586B0014604900498806D0390019132
:103AA00000F0AAFA0290049890F8350002280DD090
:103AB000FFE7049880214165FFE70498002180F822
:103AC0003410FFE701208DF817005AE004980068D1
:103AD000016821F01601016004980068416921F035
:103AE000800141610498006C002805D1FFE704982B
:103AF000806C002807D0FFE704980068016821F077
:103B000008010160FFE704980068016821F00101E5
:103B10000160FFE704980068006810F0010F1AD0F8
:103B2000FFE700F069FADDF808E0A0EB0E000628D8
:103B300010D3FFE7049820214165FFE70498002196
:103B400080F83410FFE70498032180F835108DF8D1
:103B5000171016E0DEE70498C06D3F2101FA00F06F
:103B600003998860FFE70498002180F83410FFE78C
:103B70000498012180F83510FFE700208DF8170028
:103B8000FFE79DF8170006B080BD000083B0014636
:103B90000190019890F835000228009107D0FFE7C6
:103BA00001988021416501208DF80B000EE00198FD
:103BB000052180F8351001980068016821F00101A5
:103BC0000160FFE700208DF80B00FFE79DF80B0078
:103BD00003B0704791B00A46034610900F91002041
:103BE0000D900C900B900E9009920893FFE70E98A1
:103BF0000F2800F2D581FFE70E98012101FA00F0AD
:103C00000D900F9800680D9908400C900C980D9934
:103C1000884240F0C081FFE70F98406800F0030041
:103C2000012807D0FFE70F98406800F00300022842
:103C30002FD1FFE7109880680B900E984000032169
:103C400001FA00F00B9921EA00000B900F98C06870
:103C50000E99490088400B9908430B900B981099D6
:103C60008860109840680B900E98012101FA00F0CE
:103C70000B9921EA00000B900F984068C0F30010E8
:103C80000E9988400B9908430B900B981099486047
:103C9000FFE70F98406800F00300032818D0FFE703
:103CA0001098C0680B900E984000032101FA00F0B4
:103CB0000B9921EA00000B900F9880680E9949003B
:103CC00088400B9908430B900B981099C860FFE748
:103CD0000F98406800F00300022828D1FFE71098F1
:103CE0000E994FF6FC72C7F6FF7202EA51010844C2
:103CF000006A0B900E9800F0070080000F2101FA77
:103D000000F00B9921EA00000B900F9800690E99C2
:103D100001F00701890088400B9908430B900B982C
:103D200010990E9B02EA530211440862FFE71098B3
:103D300000680B900E984000032101FA00F00B99E7
:103D400021EA00000B900F98406800F003000E99E4
:103D5000490088400B9908430B900B981099086014
:103D60000F984068C000002840F11481FFE7FFE78A
:103D700000200A9043F64400C4F20200016841F4B6
:103D800080410160006800F480400A900A98079022
:103D9000FFE70E9820F0030043F60801C4F201018A
:103DA00040580B900E9800F0030080000F2101FA9C
:103DB00000F00B9921EA00000B9010980021C4F24A
:103DC0000201884203D1FFE7002006905EE01098D0
:103DD00040F20041C4F20201884203D1FFE7012012
:103DE000059050E0109840F60001C4F202018842AC
:103DF00003D1FFE70220049042E0109840F6004112
:103E0000C4F20201884203D1FFE70320039034E0AB
:103E1000109841F20001C4F20201884203D1FFE789
:103E20000420029026E0109841F20041C4F2020101
:103E3000884203D1FFE70520019018E0109841F671
:103E40000001C4F20201884203D1FFE7062000907E
:103E50000AE0109841F60041C4F2020108228842AB
:103E600008BF07220092FFE700980190FFE7019842
:103E70000290FFE702980390FFE703980490FFE7A2
:103E800004980590FFE705980690FFE70698C0B2F2
:103E90000E9901F00301890088400B9908430B90AB
:103EA0000B980E9921F0030143F60802C4F20102B7
:103EB000885043F60040C4F2010000680B900C9853
:103EC0000B9921EA00000B900F984068C00300286E
:103ED00005D5FFE70C980B9908430B90FFE70B986B
:103EE00043F60041C4F20101086043F60440C4F205
:103EF000010000680B900C980B9921EA00000B90D0
:103F00000F9840688003002805D5FFE70C980B99AF
:103F100008430B90FFE70B9843F60441C4F20101FC
:103F2000086043F60840C4F2010000680B900C984A
:103F30000B9921EA00000B900F984068C0020028FE
:103F400005D5FFE70C980B9908430B90FFE70B98FA
:103F500043F60841C4F20101086043F60C40C4F284
:103F6000010000680B900C980B9921EA00000B905F
:103F70000F9840688002002805D5FFE70C980B9940
:103F800008430B90FFE70B9843F60C41C4F2010184
:103F90000860FFE7FFE7FFE70E9801300E9026E686
:103FA00011B0704780B585B013468C4686460490A4
:103FB000ADF80E108DF80D209DF80D00002802932D
:103FC000CDF804C0CDF800E005D0FFE7BDF80E0045
:103FD0000499886105E0BDF80E0000040499886129
:103FE000FFE705B080BD000042F20000CEF2040001
:103FF0000068000C7047000040F6C800C2F20000E4
:104000000068704740F21400C2F20000007840F6E9
:10401000C801C2F200010A6810440860704700003D
:1040200080B582B043F60040C4F20200016841F45A
:1040300000710160016841F480610160052000F0B9
:1040400077F80F2000F006F8019000F03FF800200C
:1040500002B080BD80B584B00146029040F20400F9
:10406000C2F20000006840F21402C2F200021278AC
:104070004FF47A73B3FBF2F2B0FBF2F0019100F06F
:10408000BFFD002804D0FFE701208DF80F0018E0E5
:1040900002980F280DD8FFE702994FF0FF30002259
:1040A00000F022F8029840F21801C2F20001086004
:1040B00003E001208DF80F0003E000208DF80F00D1
:1040C000FFE79DF80F0004B080BD000070470000BE
:1040D00080B582B001468DF807009DF90700009178
:1040E00001F05EFD02B080BD80B58AB013468C46FB
:1040F00086468DF8270008910792002006900593C8
:10410000CDF810C0CDF80CE001F066FD06900698E1
:104110000899079A9DF92730029301F0DFF9029977
:1041200001900846019901F05FFD0AB080BD0000D2
:1041300080B582B0014601900198009101F07AFDAE
:1041400002B080BD80B588B00A460346069005914E
:10415000069800280392029304D1FFE701208DF80E
:104160001F0026E1059843F60041C4F202010968E8
:1041700001F00701884212D9FFE7059843F6004194
:10418000C4F202010870086800F00700059988422F
:1041900004D0FFE701208DF81F000AE1FFE7069831
:1041A0000068800700282AD5FFE7069800684007C6
:1041B000002809D5FFE743F60800C4F202000168B1
:1041C00041F4E0510160FFE706980068000700280D
:1041D00009D5FFE743F60800C4F20200016841F484
:1041E00060410160FFE743F60800C4F20200016885
:1041F00021F0F001069A926811430160FFE70698EA
:104200000068C007002870D0FFE7069840680128C2
:1042100011D1FFE743F60000C4F20200006800F489
:1042200000300021B1EB504F04D1FFE701208DF8A1
:104230001F00BEE02CE006984068022805D0FFE78A
:1042400006984068032811D1FFE743F60000C4F246
:104250000200006800F000700021B1EB506F04D143
:10426000FFE701208DF81F00A3E010E043F60000F7
:10427000C4F20200006800F002000021B1EB500F10
:1042800004D1FFE701208DF81F0092E0FFE7FFE770
:1042900043F60800C4F20200016821F00301069A07
:1042A000526811430160FFF7A7FE0490FFE743F651
:1042B0000800C4F20200006800F00C00069949688A
:1042C000B0EB810F10D0FFE7FFF796FEDDF810E0AE
:1042D000A0EB0E0041F2893E704504D3FFE70320B6
:1042E0008DF81F0065E0E2E7FFE7059843F600411F
:1042F000C4F20201096801F00701884212D2FFE707
:10430000059843F60041C4F202010870086800F005
:1043100007000599884204D0FFE701208DF81F00AF
:1043200047E0FFE706980068400700280CD5FFE744
:1043300043F60800C4F20200016821F4E051069A35
:10434000D26811430160FFE7069800680007002863
:104350000DD5FFE743F60800C4F20200016821F41E
:104360006041069A126941EAC2010160FFE700F06C
:1043700053F843F6080EC4F2020EDEF800E0CEF366
:10438000031E4AF61831C0F6000111F80E10C8409D
:1043900040F20401C2F20001086040F21800C2F2CB
:1043A00000000068FFF756FE00218DF81F100190F5
:1043B000FFE79DF81F0008B080BD000040F2040038
:1043C000C2F200000068704780B5FFF7F7FF43F6C0
:1043D000080EC4F2020EDEF800E0CEF3822E4AF69A
:1043E0002831C0F6000111F80E10C84080BD000051
:1043F00080B5FFF7E3FF43F6080EC4F2020EDEF8C5
:1044000000E0CEF3423E4AF62831C0F6000111F832
:104410000E10C84080BD000080B586B00020059019
:1044200004900390029043F60800C4F20200006872
:1044300000F00C0001460028019108D0FFE7019828
:1044400004280AD0FFE7019808280CD04FE042F278
:104450000040C0F2F40002904FE041F20020C0F2B0
:104460007A00029049E043F60400C4F202000168B9
:1044700001F03F010591006810F4800F13D0FFE7B1
:1044800043F60400C4F202000068C0F3881041F251
:104490000021C0F27A01A0FB0101059A0023FBF77D
:1044A000F8FF049012E043F60400C4F20200006832
:1044B000C0F3881042F20041C0F2F401A0FB0101F8
:1044C000059A0023FBF7E5FF0490FFE743F604009D
:1044D000C4F20200006800F44030022101EBD03049
:1044E000039004980399B0FBF1F0029005E042F2CA
:1044F0000040C0F2F4000290FFE7029806B080BDD1
:1045000080B588B00146069006980028019104D134
:10451000FFE701208DF81F006EE306980068C007D2
:10452000002800F0AB80FFE743F60800C4F2020069
:10453000006800F00C00042813D0FFE743F60800E1
:10454000C4F20200006800F00C0008281FD1FFE749
:1045500043F60400C4F20200006810F4800F16D085
:10456000FFE743F60000C4F20200006800F40030E8
:104570000021B1EB504F09D0FFE7069840680028B2
:1045800004D1FFE701208DF81F0035E375E0FFE758
:1045900006984068B0F5803F09D1FFE743F6000078
:1045A000C4F20200016841F48031016020E0069805
:1045B0004068B0F5A02F0DD1FFE743F60000C4F22C
:1045C0000200016841F480210160016841F48031FA
:1045D00001600CE043F60000C4F20200016821F41F
:1045E00080310160016821F480210160FFE7FFE76D
:1045F000FFE70698406800281FD0FFE7FFF7FCFCA4
:104600000590FFE743F60000C4F20200006800F4E2
:1046100000300021B1EB504F0ED1FFE7FFF7ECFC6B
:10462000DDF814E0A0EB0E00652804D3FFE70320BB
:104630008DF81F00E0E2E5E71EE0FFF7DDFC0590E6
:10464000FFE743F60000C4F20200006800F4003007
:104650000021B1EB504F0ED0FFE7FFF7CDFCDDF8A6
:1046600014E0A0EB0E00652804D3FFE703208DF8CB
:104670001F00C1E2E5E7FFE7FFE7FFE706980068F4
:104680008007002840F19B80FFE743F60800C4F252
:104690000200006810F00C0F13D0FFE743F608008B
:1046A000C4F20200006800F00C0008282CD1FFE7DB
:1046B00043F60400C4F20200006810F4800F23D116
:1046C000FFE743F60000C4F20200006800F00200B9
:1046D0000021B1EB500F09D0FFE70698C068012810
:1046E00004D0FFE701208DF81F0085E243F60000AB
:1046F000C4F20200016821F0F801069A126941EA49
:10470000C2010160FFE759E00698C068002830D078
:10471000FFE70020C4F2472001210160FFF76CFC95
:104720000590FFE743F60000C4F20200006800F0C5
:1047300002000021B1EB500F0ED1FFE7FFF75CFC48
:10474000DDF814E0A0EB0E00032804D3FFE70320FC
:104750008DF81F0050E2E5E743F60000C4F20200C6
:10476000016821F0F801069A126941EAC20101606C
:1047700023E00020C4F2472000210160FFF73CFC49
:104780000590FFE743F60000C4F20200006800F065
:1047900002000021B1EB500F0ED0FFE7FFF72CFC19
:1047A000DDF814E0A0EB0E00032804D3FFE703209C
:1047B0008DF81F0020E2E5E7FFE7FFE7FFE7069837
:1047C00000680007002850D5FFE7069840690028D8
:1047D00025D0FFE740F68060C4F247200121016048
:1047E000FFF70AFC0590FFE743F67400C4F20200ED
:1047F000006800F002000021B1EB500F0ED1FFE77E
:10480000FFF7FAFBDDF814E0A0EB0E00032804D359
:10481000FFE703208DF81F00EEE1E5E724E040F616
:104820008060C4F2472000210160FFF7E5FB05909E
:10483000FFE743F67400C4F20200006800F00200D3
:104840000021B1EB500F0ED0FFE7FFF7D5FBDDF8ED
:1048500014E0A0EB0E00032804D3FFE703208DF83B
:104860001F00C9E1E5E7FFE7FFE70698006840079A
:10487000002840F1D680FFE700208DF80F0043F6B6
:104880004000C4F20200006810F0805F16D1FFE71C
:10489000FFE70020029043F64000C4F202000168E6
:1048A00041F080510160006800F080500290029851
:1048B0000090FFE701208DF80F00FFE747F20000AE
:1048C000C4F20000006810F4807F24D1FFE747F2B3
:1048D0000000C4F20000016841F480710160FFF73C
:1048E0008BFB0590FFE747F20000C4F20000006870
:1048F00010F4807F0ED1FFE7FFF77EFBDDF814E0B8
:10490000A0EB0E00032804D3FFE703208DF81F005F
:1049100072E1E8E7FFE7FFE706988068012809D120
:10492000FFE743F67000C4F20200016841F00101A4
:1049300001601FE00698806805280DD1FFE743F667
:104940007000C4F20200016841F0040101600168D6
:1049500041F0010101600CE043F67000C4F2020076
:10496000016821F001010160016821F0040101608A
:10497000FFE7FFE7FFE706988068002821D0FFE700
:10498000FFF73AFB0590FFE743F67000C4F2020020
:10499000006800F002000021B1EB500F10D1FFE7DA
:1049A000FFF72AFBDDF814E0A0EB0E0041F2893E90
:1049B000704504D3FFE703208DF81F001CE1E3E7F7
:1049C00020E0FFF719FB0590FFE743F67000C4F203
:1049D0000200006800F002000021B1EB500F10D07F
:1049E000FFE7FFF709FBDDF814E0A0EB0E0041F252
:1049F000893E704504D3FFE703208DF81F00FBE0DC
:104A0000E3E7FFE79DF80F00012809D1FFE743F630
:104A10004000C4F20200016821F080510160FFE70C
:104A2000FFE706988069002800F0E280FFE743F680
:104A30000800C4F20200006800F00C00082800F032
:104A40008B80FFE706988069022860D1FFE760202D
:104A5000C4F2472000210160FFF7CEFA0590FFE77E
:104A600043F60000C4F20200006800F0007000216C
:104A7000B1EB506F0ED0FFE7FFF7BEFADDF814E0A0
:104A8000A0EB0E00032804D3FFE703208DF81F00DE
:104A9000B2E0E5E70698C169026A436AD0F828C027
:104AA000114341EA83114FEACC324FF6FF739A4328
:104AB000A2F580321143C06A41EA006043F6040166
:104AC000C4F2020108606020C4F2472001210160A5
:104AD000FFF792FA0590FFE743F60000C4F20200E8
:104AE000006800F000700021B1EB506F0ED1FFE7BD
:104AF000FFF782FADDF814E0A0EB0E00032804D3E0
:104B0000FFE703208DF81F0076E0E5E723E0602053
:104B1000C4F2472000210160FFF76EFA0590FFE71D
:104B200043F60000C4F20200006800F000700021AB
:104B3000B1EB506F0ED0FFE7FFF75EFADDF814E03F
:104B4000A0EB0E00032804D3FFE703208DF81F001D
:104B500052E0E5E7FFE74AE006988069012804D1C2
:104B6000FFE701208DF81F0046E043F60400C4F281
:104B700002000068049006988069012831D0FFE7A0
:104B8000049800F480000699C969884229D1FFE79A
:104B9000049800F03F000699096A884221D1FFE796
:104BA000049847F6C07108400699496AB0EB811F26
:104BB00017D1FFE7049800F440300699896AC903C9
:104BC0004FF6FF729143A1F58031884209D1FFE78A
:104BD000049800F070600699C96AB0EB016F04D0C8
:104BE000FFE701208DF81F0006E0FFE7FFE7FFE782
:104BF00000208DF81F00FFE79DF81F0008B080BD62
:104C000080B582B0014601900198009100F004FD4A
:104C100002B080BD84B00A4603460390ADF80A1086
:104C20000192009304B0704782B001460190009158
:104C300002B0704780B590B001460F900F980068A1
:104C400000680E900F980068C0680D900F9800687B
:104C500040690C9000200B900A900E9800F00F0015
:104C60000B900B980028079112D1FFE79DF83800B0
:104C7000800600280BD5FFE79DF834008006002849
:104C800005D5FFE70F9800F051FD06908AE1FFE798
:104C90000B98002800F0C080FFE79DF83000C007A7
:104CA000002807D1FFE7BDF8340010F4907F00F032
:104CB000B380FFE79DF83800C00700280CD0FFE75D
:104CC0009DF83500C007002806D0FFE70F98016C5B
:104CD00041F001010164FFE79DF83800400700281A
:104CE0000CD5FFE79DF83000C007002806D0FFE78D
:104CF0000F98016C41F002010164FFE79DF8380054
:104D0000800700280CD5FFE79DF83000C007002879
:104D100006D0FFE70F98016C41F004010164FFE742
:104D20009DF838000007002812D5FFE79DF83400F1
:104D30008006002806D4FFE79DF83000C007002851
:104D400006D0FFE70F98016C41F008010164FFE70E
:104D50000F98006C00285ED0FFE79DF838008006B1
:104D600000280BD5FFE79DF834008006002805D504
:104D7000FFE70F9800F0DAFC0590FFE70F98006856
:104D80004069C0F380100A900F98006C10F0080F73
:104D900004D1FFE70A98002833D0FFE70F9800F00E
:104DA00089FC0F980068406910F0400F24D0FFE79D
:104DB0000F980068416921F0400141610F98806BB4
:104DC000002814D0FFE70F98806B45F29161C0F680
:104DD000000101650F98806BFEF7D8FE002805D012
:104DE000FFE70F98806B016D8847FFE703E00F989E
:104DF000FFF71AFFFFE703E00F98FFF715FFFFE744
:104E000008E00F98FFF710FF0F984FF0000EC0F862
:104E100040E0FFE7FFE7C5E00F98006B012840F096
:104E20009F80FFE79DF83800C006002840F1988079
:104E3000FFE79DF83400C006002840F19180FFE7AD
:104E4000FFE7002009900F980068006809900F980C
:104E500000684068099009980490FFE70F9800687F
:104E6000406910F0400F4BD0FFE70F98806B00684F
:104E70004068ADF82200BDF8220000283FD0FFE7CF
:104E8000BDF822000F99898D884238DAFFE7BDF816
:104E900022000F99C8850F98806BC069B0F5807F9C
:104EA00025D0FFE70F980068C16821F48071C160C8
:104EB0000F980068416921F0010141610F98006875
:104EC000416921F0400141610F98202180F83E1096
:104ED0000F98002101630F980068C16821F010014C
:104EE000C1600F98806BFEF7D3FD0390FFE70F982A
:104EF000818DC28D891A89B2FFF78CFEFFE751E0E0
:104F00000F98818DC08D081AADF820000F98C08DC4
:104F1000002824D0FFE7BDF8200000281FD0FFE7BD
:104F20000F980068C16821F49071C1600F98006803
:104F3000416921F0010141610F98202180F83E1064
:104F40000F98002101630F980068C16821F01001DB
:104F5000C1600F98BDF82010FFF75CFEFFE721E06D
:104F60009DF83800000600280BD5FFE79DF83400B7
:104F70000006002805D5FFE70F9800F05DFD0290C0
:104F800010E09DF83800400600280BD5FFE79DF89B
:104F900034004006002805D5FFE70F9800F0B0FB6D
:104FA0000190FFE710B080BD80B584B0014602904B
:104FB00002980028019104D1FFE701208DF80F002D
:104FC00041E002988069002801D0FFE700E0FFE798
:104FD000029890F83D00002808D1FFE702980021D0
:104FE00080F83C10029800F033F8FFE70298242183
:104FF00080F83D1002980068C16821F40051C1603A
:10500000029800F029FC02980068016921F490419F
:10501000016102980068416921F02A01416102980A
:105020000068C16841F40051C16002980021016428
:1050300002984FF0200E80F83DE0029880F83EE0A4
:105040008DF80F10FFE79DF80F0004B080BD000041
:1050500080B59CB001461B901B98006841F200028D
:10506000C4F201029042109169D1FFE7FFE7FFE728
:105070000020159043F64400C4F20200016841F09C
:1050800010010160006800F01000159015980F9055
:10509000FFE7FFE7FFE7FFE70020149043F630004B
:1050A000C4F20200016841F001010160006800F0F3
:1050B0000100149014980E90FFE7FFE7FFE7FFE769
:1050C0000020139043F63000C4F20200016841F062
:1050D00001010160006800F00100139013980D9029
:1050E000FFE7FFE74FF400701690022017900121B0
:1050F0001891199007201A900021C4F2020116AAF3
:105100000C9008460B9111460A92FEF763FD4FF48E
:10511000806016900C981A90002117910B980A99AC
:10512000FEF758FD25200990FEF7D2FF03200999CC
:10513000089008460899089AFEF7D6FF57E01B9892
:10514000006844F60001C4F2000188424ED1FFE736
:10515000FFE70020129043F63000C4F2020001681D
:1051600041F002010160006800F002001290129804
:105170000790FFE7FFE70020119043F64000C4F2DC
:105180000200016841F480210160006800F4802081
:10519000119011980690FFE74FF48060169002205E
:1051A000179000211891199007201A9040F20042A0
:1051B000C4F2020216AB0590104604911946039200
:1051C0000293FEF707FD4FF40060169005981A90C1
:1051D00003980299FEF7FEFC27200190FEF778FF66
:1051E00001210198049AFEF77FFFFFE7FFE71CB05B
:1051F00080BD000080B588B013468C468646069078
:105200000591ADF81220069890F83E0020280393EF
:10521000CDF808C0CDF804E02AD1FFE705980028B2
:1052200005D0FFE7BDF81200002804D1FFE70120F8
:105230008DF81F0020E0FFE7069890F83C00012859
:1052400004D1FFE702208DF81F0015E00698012128
:1052500080F83C10FFE7FFE70698002101630698FD
:105260000599BDF8122000F0ABFB8DF81F0003E09C
:1052700002208DF81F00FFE79DF81F0008B080BDD9
:1052800080B586B0014605900598006841F200029D
:10529000C4F20102904204916CD1FFE740F2B46085
:1052A000C2F2000000880004002856D4FFE740F254
:1052B000B460C2F2000000884004002819D5FFE75E
:1052C00040F22820C2F2000000780A2807D0FFE749
:1052D00040F2B460C2F200000021018008E040F218
:1052E000B460C2F20000018841F400410180FFE790
:1052F00032E040F22820C2F2000000780D2809D1E7
:10530000FFE740F2B460C2F20000018841F480413E
:10531000018020E040F22820C2F20000007840F234
:10532000B461C2F200010A886FF39F3240F2B423E5
:10533000C2F2000398540888013008800888B0F54C
:10534000806F07DBFFE740F2B460C2F2000000218B
:105350000180FFE7FFE7FFE7FFE740F22C20C2F202
:10536000000040F22821C2F200010122FFF742FFB3
:105370000390A5E00598006844F60001C4F200011E
:10538000884240F09C80FFE740F6C400C2F2000073
:105390000088B0F5806F64DCFFE740F6C400C2F21D
:1053A0000000008840F2C461C2F20001084410F815
:1053B000040C4F282DD1FFE740F6C400C2F20000D4
:1053C000008840F2C461C2F20001084410F8030CE6
:1053D0004B281ED1FFE740F6C400C2F2000000884F
:1053E00040F2C461C2F20001084410F8030C7B28AB
:1053F0000FD1FFE740F6C400C2F20000008840F27F
:10540000C461C2F20001084410F8020C0D2810D04B
:10541000FFE705980068406840F6C401C2F2000149
:105420000A88531C0B8040F2C461C2F20001885408
:1054300016E040F6C400C2F20000008840F2C461E9
:10544000C2F20001084410F8010C0A2807D1FFE756
:1054500040F6C600C2F2000001210180FFE7FFE72D
:105460001AE040F6C400C2F200000088B0F5806F78
:1054700011DDFFE740F6C400C2F20000018840F2EF
:10548000C462C2F2000202901046FBF7A8F90020A5
:1054900002990880FFE7FFE740F6C400C2F200006F
:1054A000008840F2C461C2F20001014440F2702061
:1054B000C2F200000122FFF79DFE0190FFE7FFE727
:1054C00006B080BD82B001460190009102B07047E5
:1054D000FFE7FEE7FFE7FEE77047000080B58BB00F
:1054E00013468C4686460A90099108920A9800F065
:1054F000070007900798C0F1070005280493CDF82E
:105500000CC0CDF808E003D3FFE70420019004E0CD
:105510000798C0F107000190FFE7019806900798EF
:105520000430062803D8FFE70020009003E0079826
:1055300003380090FFE7009805900998069901222A
:1055400002FA01F10139084005998840089B02FAE6
:1055500001F10139194008430BB080BD70470000CC
:105560007047000080B588B013468C468646079089
:1055700006910592002004900293CDF804C0CDF866
:1055800000E0FFE704980599884242DAFFE70798B0
:105590000499405CFBF701F88DF80F000798049917
:1055A00008444078FAF7F9FF8DF80E009DF80F00D7
:1055B0003A2806DBFFE79DF80F0037388DF80F001B
:1055C00005E09DF80F0030388DF80F00FFE79DF8DB
:1055D0000E003A2806DBFFE79DF80E0037388DF8FD
:1055E0000E0005E09DF80E0030388DF80E00FFE744
:1055F0009DF80F009DF80E1041EA00100699049ADC
:1056000002EBD27252108854FFE7049802300490E3
:10561000B8E708B080BD000080B584B001460290B4
:1056200002980138B0F1807F019103D3FFE7012098
:1056300003901BE0029801384EF21401CEF20001F3
:1056400008604FF0FF300F2100F0CEFA4EF2180044
:10565000CEF20000002101604EF21000CEF20000F8
:105660004FF0070EC0F800E00391FFE7039804B085
:1056700080BD000080B5FEF7C5FC80BD4EF68850A9
:10568000CEF20000016841F4700101607047000033
:1056900080B584B0014603900398806B0290029815
:1056A0000022C2850298C28402980191FFF7BCFAD9
:1056B00004B080BD82B00146019001980068C268C4
:1056C00022F49072C26001980068426922F00102DF
:1056D00042610198006B0128009107D1FFE7019812
:1056E0000068C16821F01001C160FFE70198202126
:1056F00080F83E1001980021016302B0704700005D
:1057000080B582B00146019001980068C26822F01D
:105710004002C2600198202280F83D20019800914B
:10572000FFF7D0FE002002B080BD000080B586B03B
:1057300001460490049890F83E002228019140F020
:105740008280FFE704988068B0F5805F16D1FFE79C
:1057500004980069002811D1FFE700200390049805
:10576000806A02900498006840686FF35F20029995
:1057700008800498816A0231816227E00498806A77
:1057800003900020029004988068B0F5805F0AD0F2
:10579000FFE70498806800280BD1FFE704980069B0
:1057A000002806D1FFE70498006840680399087054
:1057B00007E004980068406800F07F0003990870D3
:1057C000FFE70498816A01318162FFE70498C18D87
:1057D0000139C1854FF6FF70014230D1FFE70498CF
:1057E0000068C16821F02001C16004980068C168A8
:1057F00021F48071C16004980068416921F00101C1
:1058000041610498202180F83E100498006B012823
:105810000BD1FFE704980068C16821F01001C16056
:105820000498818DFFF7F6F903E00498FFF728FD4F
:10583000FFE70498002101638DF8171007E00020AE
:105840008DF8170003E002208DF81700FFE79DF8A0
:10585000170006B080BD000080B58CB001460B90EB
:105860000B980068006920F440500B9A1368D268C6
:10587000104318610B9882680369D0F814C0C0699E
:105880001A4342EA0C0210430A900B980068C06861
:1058900049F20C6290430A9A10430B9A1268D06046
:1058A0000B980068406920F440700B9A1368926965
:1058B000104358610B98006841F20002C4F20102E3
:1058C0009042089109D0FFE70B98006841F200412F
:1058D000C4F20101884204D1FFE7FEF789FD099077
:1058E00003E0FEF771FD0990FFE70B98C069B0F582
:1058F000004F31D1FFE709981921A0FB01010B9A54
:10590000136852684FEA420CD20F07926246DDF8E4
:105910001CC006936346FAF7BCFD48F21F51C5F25E
:10592000EB11A0FB01235B094FF0640C03FB1C008F
:105930004FF0320C0CEBC000A0FB01014FF4F87CDF
:105940000CEA111C0CEB0313C1F342111943069B23
:1059500099600590049230E009981921A0FB01019B
:105960000B9A136852684FEA820C920F03926246B8
:10597000DDF80CC002936346FAF78BFD48F21F5125
:10598000C5F2EB11A0FB01235B094FF0640C03FB94
:105990001C004FF0320C0CEB0010A0FB01014FF08B
:1059A000F00C0CEA511C0CEB0313C1F34311194327
:1059B000029B996001900092FFE70CB080BD00004F
:1059C00080B586B013468C46864605900491ADF8A6
:1059D0000E20049805998862BDF80E000599888507
:1059E000BDF80E000599C885059800210164059849
:1059F000222180F83E100293CDF804C0CDF800E0DB
:105A0000FFE70598002180F83C10FFE70598006843
:105A1000C16841F48071C16005980068416941F036
:105A20000101416105980068C16841F02001C16031
:105A3000002006B080BD000084B0014602900298AC
:105A400090F83D00212800913DD1FFE70298806841
:105A5000B0F5805F14D1FFE70298006900280FD1EC
:105A6000FFE70298006A0190019800886FF35F20B9
:105A70000299096848600298016A0231016208E0EF
:105A80000298016A4A1C0262087802990968486013
:105A9000FFE70298C18C0139C1844FF6FF700142C3
:105AA0000DD1FFE702980068C16821F08001C16054
:105AB00002980068C16841F04001C160FFE7002022
:105AC0008DF80F0003E002208DF80F00FFE79DF82E
:105AD0000F0004B07047000080B540F22C20C2F2E5
