:020000040800F2
:10000000180F0020650200083B370008333700084E
:1000100037370008891E0008B53A000800000000C4
:100020000000000000000000000000006937000828
:100030008D1E0008000000003D3700086B370008E7
:100040007F0200087F0200087F0200087F0200088C
:100050007F0200087F0200087F0200087F0200087C
:100060007F0200087F0200087F0200087F0200086C
:100070007F0200087F0200087F0200087F0200085C
:100080007F0200087F0200087F0200087F0200084C
:100090007F0200087F0200087F0200087F0200083C
:1000A0007F0200087F0200087F0200087F0200082C
:1000B0007F0200087F020008753700087F020008F1
:1000C0007F0200087F0200087F0200087F0200080C
:1000D0007F020008A53A00087F0200087F0200089E
:1000E0007F0200087F0200087F0200087F020008EC
:1000F0007F0200087F0200087F0200087F020008DC
:100100007F0200087F0200087F0200087F020008CB
:100110007F0200087F0200087F0200087F020008BB
:100120007F0200087F0200087F0200087F020008AB
:1001300000F002F800F06DF80AA090E8000C82448C
:100140008344AAF10107DA4501D100F062F8AFF269
:10015000090EBAE80F0013F0010F18BFFB1A43F0A5
:1001600001031847145D0000345D00000A444FF09D
:10017000000C10F8013B13F0070408BF10F8014B06
:100180001D1108BF10F8015B641E05D010F8016B4B
:10019000641E01F8016BF9D113F0080F1EBF10F8AF
:1001A000014BAD1C0C1B09D16D1E58BF01F801CBD2
:1001B000FAD505E014F8016B01F8016B6D1EF9D555
:1001C0009142D6D37047000000230024002500266A
:1001D000103A28BF78C1FBD8520728BF30C148BFAA
:1001E0000B607047642901F07183752901F06E83FB
:1001F000782901F0A783632901F0F285732901F0C2
:10020000F785002070471FB501F0A1FC1FBD10B598
:1002100010BD01F00BFE1146FFF7F5FF03F0AAFE3B
:1002200001F029FE03B4FFF7F2FF03BC03F067FC03
:100230000B49D1F800C04A685CF8043B10681844C8
:1002400042F8040B8C4528BFA1F1DC0C8A4228BF80
:10025000A1F1DC02C1F800C04A6020F00040704704
:10026000B00800200948804709480047FEE7FEE73C
:10027000FEE7FEE7FEE7FEE7FEE7FEE7FEE7FEE756
:1002800004480549054A064B7047000073370008CB
:100290003101000818090020180F0020180B002059
:1002A000180B0020F8B50C46114605001A4684B01C
:1002B000104B1BD068683A2818BF0F4B16D10D9809
:1002C0000CB909B112E088B182B10B9F0C9E07B93D
:1002D00066B958B1DDF838C00A9B0290CDF80CC061
:1002E0000196009720462C68A0470346184605B0A3
:1002F000F0BD00BF0300010002000100F8B50C468C
:10030000114605001A4684B0104B1CD0686810F1E5
:100310003B0F18BF0E4B16D10D980CB909B112E066
:1003200088B182B10B9F0C9E07B966B958B1DDF850
:1003300038C00A9B0290CDF80CC001960097204669
:100340002C68A0470346184605B0F0BD0300010025
:10035000020001002DE9FC4104460D4621681646C5
:100360004A681F4690478046B8F5803F1DD12368F4
:10037000089A39469F682046B8478046B8F5803FBE
:1003800013D123680A9A0999DF682046B847804646
:10039000B8F5803F09D129460C980090324625686F
:1003A0000B9B2E6A2046B047804621680A6820468B
:1003B00090474046BDE8F6817057000830B585B0DB
:1003C0000C9C0B9D0093039413460A9C02950A46CD
:1003D00001460194024800F09BFC05B030BD00BF0F
:1003E000B803000830B583B000931346099C089DFC
:1003F00002940A4601460195024800F0A4FC03B0AD
:1004000030BD00BFB8030008C50E0008A85700089B
:10041000F8B5CAB004460D4616461F46094905A858
:1004200000F060FD5399529A0491039200975199FC
:10043000509A0291019233462A462146FFF78AFFDD
:100440004BB0F0BD080400082DE9F04104460D460C
:10045000216816464A681F4690478046B8F5403FD7
:100460002ED122680A999368204698478046B8F5AD
:10047000403F25D12368089A0799D3F80CC020463D
:10048000E0478046B8F5403F1AD12368069A3946BE
:100490001F692046B8478046B8F5403F10D1236811
:1004A00029465D6932462046A8478046B8F5403F58
:1004B00006D123680B9A09999D692046A847804672
:1004C00021680A68204690474046BDE8F0812DE942
:1004D000F04104460D46216816464A681F4690477B
:1004E0008046B8F5403F2ED122680A99936820468D
:1004F00098478046B8F5403F25D12368089A079968
:10050000D3F80CC02046E0478046B8F5403F1AD1EA
:100510002368069A39461F692046B8478046B8F5D1
:10052000403F10D1236829465D6932462046A847DE
:100530008046B8F5403F06D123680999DD6900225D
:100540002046A847804621680A68204690474046D2
:10055000BDE8F0814FF4403070470000F0B50C4624
:1005600085B0114600281A461CBF0568002D0B4BAC
:1005700011D082B104B971B90D9860B10F9E0E9F70
:100580000A9B0290049603970B980C9E009001968C
:100590002046A8470346184605B0F0BD02000300F8
:1005A0007FB50500084611461A461CBF2C68002C72
:1005B0000B4B11D0089C02B974B900B961B90B9EFC
:1005C00056B10C9B03930296099B0A9E00930196D9
:1005D00023466C68A0470346184604B070BD00BFB0
:1005E000020003002DE9F44F00F10C038CB01A68EF
:1005F0004C688F684568086850405A6854409A684B
:100600005740CA68D968ED08ED1C81EA020EA64A77
:100610000095214659E00B9852F82040DDF828A0BB
:1006200052F82AC052F8211052F827704FEA3420AD
:1006300052F82840604080EA3C4090EA31601968F6
:10064000DDF824C05C68484052F82C1052F82EC0E7
:1006500052F829E0DDF8149097EA312181EA3C4113
:1006600081EA3E61DDF81CE0089F52F82EC0DDF8FB
:1006700018E0614052F827404FEA342752F82E40E4
:100680004FEA346E52F82940674087EA3C479C683D
:100690008EEA0707DDF810E0674052F82E404FEA77
:1006A000342E039C52F824504FEA3544029D52F8F0
:1006B00025604FEA3665019E52F826608EEA0606EE
:1006C00074406540DC6884EA050E0D025FFA8EF81E
:1006D0002D0E52F825603C044FEA106B4FEA362984
:1006E0004FEA146C52F8284052F82C601D694FEA0A
:1006F000346852F82B4089EA040484EA364488EAD4
:1007000004046C403D024FEA15684FEA0E454FEA7B
:10071000156C52F828A052F82C504FEA354C5FFA6D
:1007200080F852F828504FEA35684FEA116B52F8BA
:100730002B505E6985EA3A258CEA050588EA0505AD
:1007400075404FEA0E264FEA166852F828B00604A4
:100750004FEA166C52F82C804FEA3848CDF80480E6
:100760005FFA81FC52F82C604FEA366C4FEA17684A
:1007700052F82860DDF8048086EA3B2688EA0606FF
:100780008CEA06060904D3F818C0090E52F82110A5
:100790008CEA06060002000E4FEA314C4FEA1E6E4C
:1007A00052F8200052F82E10FFB252F8277091EA4A
:1007B00030208CEA0001D86991EA3761009F4140FE
:1007C0007F1E0097080E2F0401903F0E2002039712
:1007D000000E0490370E20040597000E0F020790BC
:1007E0003F0E08044FEA106E3002000E0897099081
:1007F00020333004000E0A902F0E2802000E0B90BA
:100800004FEA1468F0B202905FFA84F9E8B20690F9
:10081000C9B2009800287FF4FEAE0B9D234C665DA4
:1008200014F80800615C0C9A360446EA00660A98DF
:10083000255C186846EA05260E434640166009986E
:10084000265CE55D14F809105868360446EA05662A
:1008500014F80E5046EA05260E43464056600599A8
:10086000605C0899655C069E2D0445EA0065079862
:10087000215C986845EA0125A15D0D4345409560DE
:100880000199605C0499655C029E2D0445EA00654F
:100890000398215CA05D45EA0125D96805434D40D8
:1008A000D5600DB0BDE8F08F78580008785C00087E
:1008B00010B500F01BFA4FF4403400280EBF034C73
:1008C0004FF4967101F0E5F9204610BD02000300D7
:1008D00010B5044600F00AFA08B90A4810BD002114
:1008E0001022A1606260C0F828110122426100F567
:1008F000847000220023002480E81E004FF4403062
:1009000010BD00BF0200030070B505460C4600F0A4
:10091000EDF9002818BF002C044E04D0112C3CBF68
:100920006C604FF44036304670BD00BF02000300DB
:10093000F8B504460D46164600F0D8F9084F68B1E0
:10094000324629460C3000F0B7FBB0F5803F05D1A8
:10095000A06840F00100A0604FF440373846F2BD77
:100960000200030038B5044684B0084615466946BF
:1009700000F0B6FD2946684600F0DDFD23682046FC
:100980001C682A466946A04705B030BD2DE9F84FDE
:1009900017460026002F0D464FF4403A53D0017AF7
:1009A000CA0704D500F0A2F95FEA000801D1274880
:1009B0004AE0D8F82801102808F58C7408F58479E5
:1009C00007D14A46214608F10C00FFF7CBFFC8F8D3
:1009D0002861D8F82801C0B1002003E02A5C411842
:1009E000401C6254D8F82811C1F110029042F5D38E
:1009F0004A46214608F10C00FFF7B4FFD8F82861F9
:100A00000020C6F11006C8F82801B91B11F00F0725
:100A100008BF1027C91BB3468E1908E04A4605EBEC
:100A20000B0108F10C00FFF79DFF0BF1100BB34514
:100A3000F4D3002003E08119695C2154401CB842C2
:100A4000F9D3C8F828715046BDE8F28F02000300C0
:100A50002DE9F84F84B006468846144668460021C2
:100A600000220023002580E82E00317AC80704D533
:100A7000304600F03BF9050001D13F4879E00CB168
:100A8000002020606A46EB681F68694605F10C008B
:100A9000B847019F009B0099FA0F42EA4302009277
:100AA0008720029AD30FC90F43EA4703039F01939C
:100AB0004FEAD77E41434EEA4202029281EA470161
:100AC000039105F58C79D5F828C1BCF1100F05F517
:100AD000847704D16946384600F02DFD2CE0DDF81E
:100AE00000A0DDF800C04FEAD37B4BEA4A0B4FEA87
:100AF000D27ACDF800B04AEA43034FEADC7C019396
:100B000000FB0CF0CB0F80EA410043EA4203039064
:100B100002936946384600F00EFDD5F82811802072
:100B200009F80100D5F82801401C102804D2C0F1B2
:100B30001001484401F08BF83A46494605F10C0093
:100B4000FFF710FF00210FE08A0857F82230CA0093
:100B500002F01802C2F11802D34008F8013014B1B3
:100B60002268521C2260491C72689142ECD34FF4F7
:100B7000403005B0BDE8F08F020003002DE9F84FCA
:100B800088B006460F46904604A8002100220023A4
:100B9000002480E81E006846002580E82E00317A97
:100BA000C80740F18680304600F0A0F8050000F04C
:100BB0008080EB68D3F800C06A46694605F10C00F6
:100BC000E0470198009B009A4FEAD07949EA430335
:100BD00000938721DDF808C04FEADC7343EA400345
:100BE0000193D20F03984A434FEAD07E4EEA4C0E4F
:100BF00082EA4002CDF808E0039205F58C7AD5F838
:100C00002801102805F5847904D16946484600F08A
:100C100092FC27E00098C00F414300984FEAD37B35
:100C20004BEA4000009081EA42014FEADE7040EA60
:100C30004300D30F019043EA4E03039102936946A8
:100C4000484600F078FCD5F8281180200AF8010009
:100C5000D5F82801401C102804D2C0F110015044DE
:100C600000F0F5FF4A46514605F10C00FFF77AFE09
:100C70000020002304AC0BE0810859F82120C100BA
:100C800001F01801C1F11801CA4022545B1C401C3C
:100C900071688842F0D3094D094A2E68094C0292C6
:100CA0003846CDF80C800194009604AA00F038FD77
:100CB00000E0054809B0BDE8F08F00BF64580008A7
:100CC000936E030026C7030002000300B10800086A
:100CD000D108000809090008550500083109000875
:100CE0008D090008510A00087D0B00080168024ABE
:100CF000914218BF00207047CC0C000820B1034A75
:100D0000026009680B68C360704700BFCC0C000824
:100D100078B50C46D1B0014615461E4606A8FFF729
:100D2000EDFF5999589A0591002357990391049220
:100D3000029301933346569900912A462146FFF7C4
:100D400083FB52B070BD70B50C46D0B0014615465D
:100D50001E4605A8FFF7D2FF559A56990392002325
:100D6000549A049102930193009233462A462146F5
:100D7000FFF7ADFB50B070BD10B500F0ABF84FF40D
:100D8000803400280EBF034C4FF48A7100F081FFBD
:100D9000204610BD0300010010B5040001D1054834
:100DA00010BD00F097F800F108012046BDE81040A2
:100DB00000F07AB90300010038B50C46154608B9B1
:100DC000054832BD00F086F82A462146BDE8384085
:100DD000083000F071B900BF030001007CB50400C9
:100DE0000D46164602D000F075F808B9074876BDE2
:100DF000102E0CBF012100210091334600F58271B5
:100E00002A46204600F03CFB76BD00BF03000100EF
:100E10002DE9F84F044688B020798B46C1079046EB
:100E2000994658BF254845D5204600F053F8054659
:100E3000287C00F00500052818BF21483AD1129FF0
:100E40000FB100203860002611E01DF801001BF8EA
:100E50000230584009F8020017B13A68521C3A6053
:100E6000491C514502D28A199045EED210364645AA
:100E70001AD2AB68D3F800C0A8EB060ABAF1100F7B
:100E800088BF4FF0100A04AA05F5827105F1080029
:100E9000E047D5F81001401CC5F81001694604A8C8
:100EA00000F032FB0021DCE7B0453CBF0020606071
:100EB0004FF4803009B0BDE8F08F00BF030001009F
:100EC0000400010010B1024A02608160704700BF57
:100ED000745700080168024A914218BF0020704709
:100EE000745700080A4653681268196810470000D2
:100EF0002DE9FF460022254B51F8224053F822509D
:100F000024BA6C404DF82240521C042AF4D3DFF876
:100F10008090DFF880E00026029A019B039959F83F
:100F2000264082EA03054D4084EA050C4FEA1C6521
:100F30001EF805704FEA0C254FEA156A1EF80A5094
:100F40002D0445EA07654FEA0C473F0E1EF807706F
:100F500045EA072582EA03074F407C40E4B21EF8C9
:100F60000440009F029125436F4097EAF54484EACC
:100F7000752400F10C0100930192039441F826407E
:100F8000761C202EC8D3BDE8FF8600BF5458000849
:100F9000D4570008785D00082DE9F04100F10C05F8
:100FA000002492083D4B002005E051F8206036BA3D
:100FB00045F82060401C9042F7D305EB8208384F7B
:100FC00058F8040CD5F800C006040102360E090ECC
:100FD000BE5D795C360446EA0166C1B2000E795CFA
:100FE00046EA0126395C41EA06002E4E80EA0C01F1
:100FF00056F82400484045F82200641C01202E1FAA
:10100000811856F8216055F820C08CEA0606401C6D
:1010100045F821600428F2D3042A04D0062A0BD014
:10102000082A14D037E00A2C04D2B3F5803F01D04F
:101030004546C2E7BDE8F081072CFBD86F6A2869F6
:101040004740AF62686980EA0701E962EDE7072C73
:10105000F0D2E86A2969060E17F806E00602360E95
:10106000BE5D360446EA0E6C06044FEA166EC0B248
:1010700017F80E60385C4CEA06263043414029637D
:10108000052005EB8001CF690E68401C77400728DA
:101090000F62F6D9C9E74FF00113C9E70400010058
:1010A000785C0008AC57000800224260012088608C
:1010B0004FF48030704700002DE9F14F8CB092461C
:1010C000BAF1100FE74AE84BE84DDFF8A483E94E88
:1010D000DFF8A4B30DF1040C08D0BAF1180F00F03A
:1010E0009280BAF1200F00F01881A8E1DBE900043A
:1010F0000DF1240EE14FCEE90004387800280CBF32
:101100004FF000094FF0040956F809405EF80970E5
:101110003C44236001232768A360D6F800907368DD
:101120008C7B00945F40099C7C40DEF8047087EA69
:10113000090784F0040487F0FC0E7444009F84F0D7
:10114000520EBE448CF80EE04FF0010E11F80E4026
:101150000CF80E400EF1010EBEF10E0FF6D3DBE9D6
:1011600000470DF1240E0028CEE900470CBF0027F0
:1011700004273C46F7595EF80440E4190127C4F8F7
:1011800000800028D4F80080A76083EA0808099C42
:101190000F7884EA080484F00408DEF8044084EA46
:1011A000090484F0FC04444484F00B08DBE9004E9D
:1011B000B84409AF8DF80480C7E9004E0EBF4FF068
:1011C000000E0420864609AC365854F80E008619E5
:1011D000356001253068B5604340CE7B0999606871
:1011E0004B4080EA090083F0040380F0FC000344D4
:1011F00083F085039B198CF80F300C9D287AC1076A
:1012000000F11F811BE1DBE900E909A89B4CC0E963
:1012100000E9207800280CBF4FF000094FF00409C6
:101220000DF1240E56F809405EF809703C44256023
:1012300001252768A560D6F8009075688C7B00941E
:101240006F40099C7C40DEF8047087EA090784F04F
:10125000040487F0FC0E7444009F84F0850EBE44A5
:101260008CF80EE04FF0010E11F80E400CF80E4015
:101270000EF1010EBEF10E0FF6D3DBE900470DF1C2
:10128000240E0028CEE900470CBF002704273C4667
:10129000F7595EF80440E419236001232768A3602E
:1012A0006F40099B0C785F40DEF8043083EA090345
:1012B00087F0040783F0FC031F4487F052073F19AF
:1012C0008DF8047009ACDBE90073C4E900730028F1
:1012D0000EBF0023042004233658E058861901234A
:1012E000C6F800803068B3604540099B60685D4087
:1012F00080EA090085F0040580F0FC00CE7B0544FF
:1013000085F00B05AD198CF80F5010200B5C0CF814
:101310000030401C1828F9D36FE7DBE900E909A881
:10132000564CC0E900E9207800280CBF4FF00009B6
:101330004FF004090DF1240E56F809405EF80970CB
:101340003C44C4F800804FF001082768C4F80880C6
:10135000D6F80090D6F80480CC7F009488EA07077E
:10136000099C7C40DEF8047087EA090784F00404D5
:1013700087F0FC0E7444009F84F00B0EBE448CF882
:101380001FE04FF0000E11F80E400CF80E400EF169
:10139000010EBEF1100FF6D3DBE900470DF1240E6C
:1013A0000028CEE900470CBF002704273C46F75928
:1013B0005EF80440E419256001252768A56088EAE5
:1013C0000707099D4C7C6F40DEF8045085EA09054B
:1013D00087F0040785F0FC052F4487F085073F1947
:1013E0008CF8117009ADDBE90047C5E9004700281A
:1013F0000EBF4FF0000B04208346365855F80B0003
:101400008619336001233068B36088EA0000099BC5
:101410000E7C584080F00408686880EA090080F07B
:10142000FC00404480F05208B0448CF81080122038
:101430000B5C0CF80030401C1F28F9D3DDE6104689
:101440000DE02B685E68524601A92846B047A8689F
:10145000C5F804A040F00400A8604FF480300DB03F
:10146000BDE8F08F0300010054228EF77D138F2E0C
:10147000A40B0E916858000870580008D00700208F
:1014800030B5039C002C18BF002A01D1094830BD9B
:10149000002404E055592DBA41F82450641CA500DD
:1014A0009D42F7D3416841F0010141604FF4803023
:1014B00030BD00BF030001004FF4803070474FF48F
:1014C000803070474FF4803070474FF48030704761
:1014D0000048704702000100004870470200010008
:1014E00030B5002200EB82035D781C782D0445EABC
:1014F00004659C78DB7845EA04251D4341F82250B9
:10150000521C042AEED330BD30B5002201EB820319
:1015100050F82240DC7050F822502D0A9D7050F88F
:101520002240240C5C7050F82240521C240E042AE5
:101530001C70EBD330BD10B5002250F8223051F8AA
:101540002240634040F82230521C042AF5D310BDDB
:101550002DE9F44D0B46054683B099685868DA6862
:10156000EE68DFF844811B6881EA0004544086EA93
:10157000040C4FEA1C674FEA0C2418F807E0240E0D
:101580004FF0010A18F804704FEA0C44240E3F048F
:1015900018F8044047EA0E6747EA042781EA000486
:1015A00054406640F6B24FF0080B18F806600095FC
:1015B00037437B404FEAB75C93EAB7738CEA030387
:1015C0004FEA372483EAB7336340009D05EB8A0670
:1015D0000AF1010AF56882EA01065E406E40370EA4
:1015E00018F8074037024FEA176E360418F80E70E5
:1015F000360E3F0418F8066047EA046782EA0104E1
:101600005C406540EDB21E2418F80550029447EA8C
:1016100006272F4378404FEAB75480EAB7706040FE
:1016200080EAB73080EA3727084611461A46BAF1F1
:101630001E0FCDF804B03B46C7D9009C039F0C3465
:10164000E56F82EA01045C406C404FEA042A4FEAED
:101650001A6A260E240418F80AC018F80660240E28
:101660004FEA0C4C18F804404CEA066646EA04249B
:1016700082EA01065E407540EDB218F805502C4331
:10168000029D64FA05F8604088EA00004FEAB4362B
:1016900090EAB450704080EA342038607B60BA60D1
:1016A000F960BDE8FF8D00BF785D0008F8B5012442
:1016B0000094002300240DE0009D065D0F5D7E4038
:1016C000F643761CF60F86F0010635400095641C43
:1016D000009DEB189442EFD31846F2BDF8B50023F5
:1016E00001240094002A11E0009C85188F1815F839
:1016F000016C17F8015C6E40F643761CF60F86F01D
:10170000010634400094009CE318521EECD11846A8
:10171000F2BD0000AD160008DD1600080100000053
:101720002DE9F84F1D46DDF828900B9F0D9C4FF0DA
:10173000FF3300930E469246D9F800B080463246F9
:101740005146D847834664B3D9F8043032465146EF
:10175000404698476FEA0B02521C42EA0B0200997E
:101760006FEAD2735B1C1940C2430091521C0243C2
:1017700000996FEAD2735B1C1940009186F05531D5
:10178000484087EA000181F05531216080F05531F1
:10179000C943491C0843009A6FEAD070401C824339
:1017A0000092D9F80800012809D17540E943491C85
:1017B0000D4300986FEAD572521C90430AE0F11C69
:1017C00085EA9102D243521C154300986FEAD57303
:1017D0005B1C984386F0AA36009086EA0B0686F0DA
:1017E000AA33F243DB430C98C2F3C0725B1C42EA9B
:1017F000D3720099D243521C9143009177400099D3
:101800008843009987F0AA370F403843BDE8F28F2C
:10181000704700000FB4044910B503AA029800F005
:10182000EBFA10BC5DF814FB2800002070B50446EC
:1018300085690068C10601D5302600E02026C00772
:1018400007D070BDD4E9012130469047206A401C82
:1018500020626D1EF6D570BD70B5044685690078AE
:10186000C00707D170BDD4E9012120209047206A2C
:10187000401C20626D1EF6D570BD70B50C46054645
:10188000012A05D02878800600D5EA69002302E005
:10189000012305E05B1C934202D2E05C0028F9D1F1
:1018A000A869E618C01AA861286A18442862284660
:1018B000FFF7BCFF04E0D5E9012114F8010B9047C4
:1018C000B442F8D32846FFF7C7FF70BD2DE9F041B9
:1018D0000646002410687529314616A510D0AFF3CE
:1018E0000080002802DA404213A507E031688A0729
:1018F00001D512A502E0490704D511A5012401E094
:10190000AFF3008000210A2206F1240709E0B0FBB2
:10191000F2FCB0FBF2F302FB1C00303078541846A6
:10192000491C0028F3D123462A463046BDE8F04141
:1019300000F0DAB9000000002D0000002B000000CC
:101940002000000070B504460D4621461068AFF334
:1019500000802188090502D50F4A7A4402E00E4A28
:101960007A440E32002104F1240305E000F00F0652
:101970000009965D5E54491C0028F7D120780023A9
:10198000000704D5702D02D009B102231132204680
:10199000BDE8704000F0A8B9BB3C00002DE9F05F45
:1019A000894604464FF0000ADFF874B1FB44C0F8E2
:1019B00020A02046E1688847002874D0252806D05A
:1019C000D4E901219047206A401C2062F1E70026FB
:1019D0005F462046E16888472028054607DB312D11
:1019E00005D2781910F8200C08B10643F1E7B007CA
:1019F00001D526F00406C4F81CA00027C4F818A0DE
:101A00002A2D09D0284602F073F838B304EB870872
:101A1000303DC8F8185019E059F8041B204604EB73
:101A200087029161E1688847012F054618D1E06976
:101A3000002820DA26F020061DE0D8F8180000EB78
:101A4000800005EB40003038C8F818002046E168F7
:101A50008847054602F04CF80028EED1012F0AD045
:101A60002E2D08D12046E16888477F1C0546022FAD
:101A700046F02006C4DBA069002803DA404246F0A5
:101A80000106A061F00701D026F010066C2D0BD0E6
:101A9000682D09D04C2D39D06A2D35D0742D35D014
:101AA0007A2D33D016E038E0E1682F46204688478B
:101AB000B842054609D16C2F26D04FF48060E1680A
:101AC000064320468847054604E06C2F1AD04FF4A1
:101AD000807006430DB3A5F14100192802D82035C6
:101AE00046F400664A462946204626604E46FEF7E2
:101AF00079FB80B101280BD0F61D26F0070000F11C
:101B0000080956E74020E4E78020D8E70020D6E720
:101B100006F104094DE7284652E7206ABDE8F09F28
:101B2000913C00000B4910B5A1F17C020A4CC2E9BE
:101B30003712372106E000EB104342F82130074B03
:101B400000FB03400B1EA1F10101F4DC10BD0120DC
:101B5000E8E7000050080020E119D666CD0D01002D
:101B6000032A40F2308010F0030C00F0158011F8C9
:101B7000013BBCF1020F624498BF11F801CB00F8A1
:101B8000013B38BF11F8013BA2F1040298BF00F8F5
:101B900001CB38BF00F8013B11F0030300F02580B2
:101BA000083AC0F0088051F8043B083A51F804CBD9
:101BB000A0E80810F5E7121D5CBF51F8043B40F89F
:101BC000043BAFF30080D20724BF11F8013B11F8AA
:101BD00001CB48BF11F8012B24BF00F8013B00F8EE
:101BE00001CB48BF00F8012B704710B5203AC0F078
:101BF0000B80B1E81850203AA0E81850B1E818500E
:101C0000A0E81850BFF4F5AF5FEA027C24BFB1E84A
:101C10001850A0E8185044BF18C918C0BDE81040BB
:101C20005FEA827C24BF51F8043B40F8043B08BFC4
:101C30007047D20728BF31F8023B48BF11F8012B8B
:101C400028BF20F8023B48BF00F8012B70474FF037
:101C500000020429C0F0128010F0030C00F01B8079
:101C6000CCF1040CBCF1020F18BF00F8012BA8BF87
:101C700020F8022BA1EB0C0100F00DB85FEAC17C4B
:101C800024BF00F8012B00F8012B48BF00F8012BFE
:101C900070474FF0000200B513469446964620392F
:101CA00022BFA0E80C50A0E80C50B1F12001BFF415
:101CB000F7AF090728BFA0E80C5048BF0CC05DF87B
:101CC00004EB890028BF40F8042B08BF704748BFC9
:101CD00020F8022B11F0804F18BF00F8012B70473D
:101CE00070477047704770472DE9F0470D46994699
:101CF0009246044600F124080168880604D5E0698C
:101D000021F01001216000E00120A84201DD471B05
:101D100000E00027A1697A1902EB0900081AA06106
:101D20002078C00602D42046FFF780FD002608E098
:101D3000D4E901211AF806009047206A401C761C5D
:101D400020624E45F4DB2078C0060AD52046FFF716
:101D50006DFD06E0D4E9012130209047206A401C47
:101D60002062381EA7F10107F4DC07E0D4E9012165
:101D700018F805009047206A401C2062281EA5F133
:101D80000105F3DC2046FFF767FD2078000602D549
:101D90000220BDE8F0870120FBE7000001694A1C32
:101DA00002610878704700B58FB0CDE9013100219C
:101DB000059105497944CDE9031011466846FFF7BE
:101DC000EDFD0FB000BD0000E5FFFFFF10B543695A
:101DD00013B1AFF3008001E0FFF74FFD012010BD0C
:101DE000127800F124010A7000224A700122EDE706
:101DF00011684FF0FF32E9E7074B70B50D467B44A1
:101E0000FFF7D1FF0446284600F00CF810B14FF060
:101E1000FF3070BD204670BDC720000000487047ED
:101E2000B8080020007B00F0800070477546FFF77F
:101E3000F5FFAE4605006946534620F0070085468B
:101E400018B020B5FEF71CFABDE820404FF00006A0
:101E50004FF000074FF000084FF0000B21F0070192
:101E6000AC46ACE8C009ACE8C009ACE8C009ACE8D5
:101E7000C0098D46704710B50446AFF30080204678
:101E8000BDE81040FEF7CEB900BFFEE77047F0B5E1
:101E900004460D461E4694F8207020688368A868A2
:101EA00000B900E000BF012F01D0022F7CD103F068
:101EB000806030B903F0006018B903F0805000284A
:101EC00073D0C3F30161022905D9606A40F40000B0
:101ED00060620120F0BD012088403060A86860B9D0
:101EE000B5F800C0E86840EA4C5C206800F5C070B6
:101EF00000EB0110C0F800C00FE0D5E901C040EAD6
:101F0000CC00D5F80CC040EA0C00D4F800C00CF5A9
:101F1000C07C0CEB011CCCF80000D5F810C0206888
:101F200000F5C07000EB0110C0F804C0287D012846
:101F30000ED1206800F5C07000EB0110406840F43D
:101F4000807C206800F5C07000EB0110C0F804C070
:101F5000D079000692F806C040EA0C4092F805C01D
:101F600040EA0C2C10794CEA000C206800F5C07097
:101F700000EB0110C0F80CC0D078000692F802C047
:101F800040EA0C4092F801C040EA0C2092F800C0F0
:101F900040EA0C00D4F800C00CF5C07C0CEB011C2E
:101FA000CCF80800206801E016E00FE000F5C070F2
:101FB00000EB0110006840F0010C206800F5C070D3
:101FC00000EB0110C0F800C0002083E7606A40F415
:101FD0000010606201207DE7606A40F4802060624A
:101FE000012077E7F0B504460A46216894F82050AE
:101FF000012D01D0022D74D1D1F8000240F0010072
:10200000C1F80002107D00F01F06012000FA06F35F
:10201000D1F81C029843C1F81C02D069C8B9D1F8A4
:102020000C029843C1F80C02908880B2968940EA6D
:10203000064601F51070576940F83760108880B285
:10204000168940EA064601F51070576900EBC70093
:102050004660D069012819D1D1F80C021843C1F8A3
:102060000C02908880B2168840EA064601F510708E
:10207000576940F83760908980B2168940EA064671
:1020800001F51070576900EBC7004660906928B9E8
:10209000D1F804029843C1F8040204E0D1F8040224
:1020A0001843C1F80402106928B9D1F81402984302
:1020B000C1F8140204E0D1F814021843C1F8140264
:1020C000106A012804D1D1F81C021843C1F81C027F
:1020D000D1F8000220F00100C1F800020020F0BD9C
:1020E000FFE7606A40F4802060620120F7E710B5E6
:1020F0000246002092F82030012B01D0022B09D19A
:1021000021B91468E46804F0030003E0146824694A
:1021100004F0030010BD70B5044694F82050012D62
:1021200001D0022D7DD151B92068C06800F00300B4
:1021300080B9606A40F400106062012070BD2068C0
:10214000006900F0030028B9606A40F40010606282
:102150000120F3E7206800F5D87000EB011000685B
:1021600000F004009060906840B9206800F5D870D5
:1021700000EB01100068400D106007E0206800F5DA
:10218000D87000EB01100068C0085060206800F5AE
:10219000D87000EB0110006800F00200D0602068E9
:1021A00000F5D87000EB0110406800F00F001061DE
:1021B000206800F5D87000EB0110406800F47F4003
:1021C000000A9061206800F5D87000EB01104068AB
:1021D000000C5061206800F5D87000EB0110806899
:1021E0001870206800F5D87000EB0110806800F4CA
:1021F0007F40000A5870206800F5D87000EB01108D
:10220000806800F47F00000C9870206800F5D8709A
:1022100000EB01108068000ED870206800F5D870BF
:1022200000E02FE000EB0110C0681871206800F595
:10223000D87000EB0110C06800F47F40000A5871AC
:10224000206800F5D87000EB0110C06800F47F0032
:10225000000C9871206800F5D87000EB0110C06880
:10226000000ED87131B92068C06840F0200026689F
:10227000F06005E02068006940F0200026683061C9
:1022800000205BE7606A40F480206062012055E72F
:102290000146002091F82020012A01D0022A11D104
:1022A0000B689B6803F0806303B1401C0B689B685C
:1022B00003F0006303B1401C0B689B6803F080537C
:1022C00003B1401C704770B504460CB9012070BDC5
:1022D00094F8200010B9204600F0B0F8206800689B
:1022E00020F002002168086000F0AEFB05460DE01A
:1022F00000F0AAFB401B0A2808D9606A40F40030AD
:102300006062052084F820000120E0E72068406832
:1023100000F002000028EBD12068006840F00100C6
:102320002168086000F090FB05460DE000F08CFB92
:10233000401B0A2808D9606A40F40030606205201A
:1023400084F820000120C2E72068406800F0010006
:102350000028EBD0207E012806D12068006840F0DC
:1023600080002168086005E02068006820F0800097
:1023700021680860607E012806D12068006840F06E
:1023800040002168086005E02068006820F04000F7
:1023900021680860A07E012806D12068006840F00E
:1023A00020002168086005E02068006820F0200017
:1023B00021680860E07E012806D12068006820F0CE
:1023C00010002168086005E02068006840F01000F7
:1023D00021680860207F012806D12068006840F04D
:1023E00008002168086005E02068006820F0080007
:1023F00021680860607F012806D12068006840F0ED
:1024000004002168086005E02068006820F00400EE
:1024100021680860D4E90201084321690843616921
:1024200008436168491E08432168C8610020606252
:10243000012084F82000002049E7000010B586B094
:10244000044624492068884241D100BF00BF224889
:10245000806940F00400204988610846806900F0E6
:102460000400019000BF00BF00BF00BF00BF0846CE
:10247000806940F0040088610846806900F004002B
:10248000019000BF00BF00BF00BF0846C06940F018
:102490000070C8610846C06900F00070019000BF7C
:1024A00000BF8814029002200390012004900320B2
:1024B000059002A9094800F017F94FF40060029056
:1024C0000020039002A9054800F00EF900BF06B0F5
:1024D00010BD0000006400400010024000080140F0
:1024E00070B5044694F82000012822D1022084F817
:1024F00020002068006820F001002168086000F0DA
:10250000A3FA05460DE000F09FFA401B0A2808D9FF
:10251000606A40F400306062052084F820000120E9
:1025200070BD2068406800F001000028EBD16062B7
:10253000F6E7606A40F4002060620120F0E70000E6
:1025400070B50446002594F82100022803D0042029
:10255000A0630125C1E02068006820F00E0021681A
:1025600008602068006820F00100216808605C496C
:102570002068884252D95A4978392068884201D166
:10258000012047E0564964392068884201D1102073
:1025900040E0534950392068884201D1801539E024
:1025A0004F493C392068884201D1801432E04C49BF
:1025B00028392068884202D14FF480302AE0484907
:1025C00014392068884202D14FF4801022E0444937
:1025D0002068884201D140041CE0424920688842BA
:1025E00001D1012016E03F4914312068884201D111
:1025F00010200FE03B4928312068884201D1801526
:1026000008E038493C312068884201D1801401E05B
:102610004FF480303349091F086051E03049783960
:102620002068884201D1012047E02D4964392068A3
:10263000884201D1102040E0294950392068884261
:1026400001D1801539E026493C392068884201D102
:10265000801432E0224928392068884202D14FF4A0
:1026600080302AE01E4914392068884202D14FF494
:10267000801022E01A492068884201D140041CE001
:1026800018492068884201D1012016E0154914310B
:102690002068884201D110200FE0124928312068BB
:1026A000884201D1801508E00E493C3120688842FB
:1026B00001D1801401E04FF480300949803948602D
:1026C000012084F8210000BF002084F8200000BF12
:1026D000606B10B12046616B8847284670BD0000D2
:1026E00080000240080402402DE9F847024600231A
:1026F0009C467BE14FF0010808FA03F4D1F8008012
:1027000008EA0400A0427DD1DFF8F4A2D1F80480E9
:10271000A8EB0A09D0453AD014DCB8F1030F50D029
:1027200009DCB8F1000F31D0B8F1010F1CD0B8F1BD
:10273000020F49D120E0B8F1110F18D0B8F1120FF3
:1027400042D11EE0B9F5881F25D006DCB9F5803FDF
:1027500020D0B9F5801F37D11AE0B9F5001F18D085
:10276000B9F5041F30D117E0D1F80CC02DE0D1F835
:102770000C8008F1040C28E0D1F80C8008F1080C5A
:1027800023E0D1F80C8008F10C0C1EE000BF00BF64
:1027900000BF00BF00BF00BFD1F80880B8F1000F34
:1027A00002D14FF0040C0BE0D1F80880B8F1010F12
:1027B00003D14FF0080C146102E04FF0080C546193
:1027C00003E04FF0000C00E000BF00BFFF2801D87D
:1027D000904601E002F104084646FF2802D84FEA7D
:1027E000830803E0A3F108084FEA88084746D6F8B3
:1027F00000804FF00F0909FA07F928EA09080CFAD6
:1028000007F900E07AE048EA0908C6F80080D1F844
:10281000048008F08058B8F1805F6FD100BFDFF806
:10282000E481D8F8188048F00108DFF8D891C9F899
:102830001880C846D8F8188008F00108CDF8008044
:1028400000BF00BF4FEAB9384FEA930958F8295042
:102850004FEA83784FEA18794FF00F0808FA09F821
:1028600025EA0805DFF8A081424502D14FF00008B3
:1028700024E0DFF89881424502D14FF001081DE0C5
:10288000DFF88C81424502D14FF0020816E0DFF8F4
:102890008481424502D14FF003080FE0DFF87881D0
:1028A000424502D14FF0040808E0DFF8708142454C
:1028B00002D14FF0050801E04FF006084FEA837996
:1028C0004FEA197908FA09F848EA0505DFF8508156
:1028D0004FEA930948F82950D1F8048008F4803869
:1028E000B8F5803F0BD1DFF83C81D8F8008048EA8A
:1028F0000008DFF83091C9F800800AE075E0DFF8E1
:102900002481D8F8008028EA0008DFF81891C9F877
:102910000080D1F8048008F40038B8F5003F0ED1EB
:10292000DFF8008108F10408D8F8008048EA0008C0
:10293000DFF8F09009F10409C9F800800DE0DFF834
:10294000E48008F10408D8F8008028EA0008DFF8DD
:10295000D49009F10409C9F80080D1F8048008F482
:102960008018B8F5801F0ED1DFF8B88008F108088C
:10297000D8F8008048EA0008DFF8A89009F10809B3
:10298000C9F800800DE0DFF89C8008F10808D8F84D
:10299000008028EA0008DFF88C9009F10809C9F8DE
:1029A0000080D1F8048008F40018B8F5001F0ED19B
:1029B000DFF8708008F10C08D8F8008048EA0008B9
:1029C000DFF8609009F10C09C9F800800DE0DFF82C
:1029D000548008F10C08D8F8008028EA0008DFF8D5
:1029E000449009F10C09C9F800805B1CD1F8008003
:1029F00028FA03F8B8F1000F7FF47CAEBDE8F88741
:102A0000000011100010024000080140000C0140BD
:102A1000001001400014014000180140001C01405A
:102A2000080001400004014010B5C26821EA020319
:102A300002EA010443EA0443036110BD0AB10161E3
:102A400001E00B0403617047014800687047000013
:102A50003000002003480068034909780844014910
:102A600008607047300000203800002010B508488A
:102A7000006840F0100006490860052000F080F86A
:102A80000F2000F007F800F02BF8002010BD000028
:102A90000020024070B504460E4800784FF47A7169
:102AA000B1FBF0F00C490968B1FBF0F5284600F0E5
:102AB000E3FB08B1012070BD102C07D20022214693
:102AC000501E00F01EF80548046001E00120F2E706
:102AD0000020F0E738000020200000203400002013
:102AE000704701460846002809DB00F01F03012259
:102AF0009A4043099B0003F1E023C3F8002100BF83
:102B000070472DE9F05F80460D461646002700F01D
:102B1000D3FF074639462A46334601F00700C0F185
:102B2000070ABAF1040F02D94FF0040A01E0C0F11C
:102B3000070AD14600F1040ABAF1070F02D24FF09A
:102B4000000A01E0A0F1030AD4464FF0010A0AFA94
:102B500009FAAAF1010A0AEA020A0AFA0CFA4FF083
:102B6000010B0BFA0CFBABF1010B0BEA030B4AEA6E
:102B70000B042146404600F0A7FFBDE8F09F00008F
:102B800000BF00F00702064B19684FF6FF0319401B
:102B9000044B0B4343EA0221014B196000BF70470D
:102BA0000CED00E00000FA0570B504460D460CB9C6
:102BB000012070BD5A48006800F00700A8420ED2FC
:102BC0005748006820F00700284355490860084628
:102BD000006800F00700A84201D00120E9E7207852
:102BE00000F0020002281DD1207800F00400042823
:102BF00005D14C48406840F4E0604A49486020787C
:102C000000F00800082805D14648406840F46050AC
:102C1000444948604348406820F0F000A1680843F8
:102C200040494860207800F0010078B360680128CE
:102C300006D13C48006800F4003090B90120B8E7A4
:102C40006068022806D13748006800F0007040B97B
:102C50000120AEE73348006800F0020008B9012007
:102C6000A7E73048406820F00300616808432D4919
:102C70004860FFF7E9FE064609E0FFF7E5FE801B26
:102C800041F28831884202D9032092E707E02548C3
:102C9000406800F00C006168B0EB810FEDD1204876
:102CA000006800F00700A8420ED91D48006820F017
:102CB000070028431A4908600846006800F007002A
:102CC000A84201D0012074E7207800F00400042815
:102CD00007D11448406820F4E060E16808431149D6
:102CE0004860207800F00800082808D10D484068A6
:102CF00020F46050216940EAC1000A49486000F0B0
:102D00003FF808494968C1F30311074A515CC840BC
:102D10000649086006480068FFF7BCFE002048E747
:102D20000020024000100240015600082000002050
:102D30003400002001480068704700002000002097
:102D400000B5FFF7F7FF04494968C1F30221034AC0
:102D5000515CC84000BD0000001002401156000840
:102D600000B5FFF7E7FF04494968C1F3C221034AF0
:102D7000515CC84000BD0000001002401156000820
:102D8000F0B585B00FF26C0C9CE8E01001A8A0E84B
:102D9000E0101CA52D6800950021002200230024CE
:102DA0000020194D696801F00C05F5B1042D02D021
:102DB000082D19D101E0154819E001ADC1F3834692
:102DC000AC5D01F4803555B10F4D6D68C5F34045DC
:102DD0001DF805200D4D6543B5FBF2F302E00C4DE7
:102DE00004FB05F3184602E000BF084800BF00BF1F
:102DF00005B0F0BD02030405060708090A0B0C0D17
:102E00000E0F1010010200000010024000127A00A4
:102E100000093D00F8B504460CB90120F8BD207842
:102E200000F00100002878D0F848406800F00C005D
:102E300004280CD0F548406800F00C00082811D197
:102E4000F248406800F48030B0F5803F0AD1EF4886
:102E5000006800F4003000285FD0606800285CD172
:102E60000120DBE700BF6068B0F5803F06D1E7488E
:102E7000006840F48030E549086028E0606858B98F
:102E8000E248006820F48030E049086008460068A5
:102E900020F4802008601AE06068B0F5A02F0BD104
:102EA000DA48006840F48020D84908600846006885
:102EB00040F4803008600AE0D448006820F4803094
:102EC000D24908600846006820F48020086000BFEE
:102ED000606888B1FFF7B8FD054606E0FFF7B4FD6E
:102EE000401B642801D9032098E7C848006800F413
:102EF00000300028F2D010E0FFF7A6FD054606E0FE
:102F0000FFF7A2FD401B642801D9032086E7BF48D4
:102F1000006800F400300028F2D1207800F00200B0
:102F2000022857D1B948406800F00C0050B1B748AA
:102F3000406800F00C00082818D1B448406800F43C
:102F4000803098B9B148006800F0020020B12069D3
:102F5000012801D0012061E7AC48006820F0F800AA
:102F6000616940EAC100A949086033E02069E8B11D
:102F70000120A7490860FFF767FD054606E0FFF757
:102F800063FD401B022801D9032047E79F480068E2
:102F900000F002000028F2D09C48006820F0F80001
:102FA000616940EAC1009949086013E0002098492E
:102FB0000860FFF749FD054606E0FFF745FD401BA9
:102FC000022801D9032029E79048006800F0020098
:102FD0000028F2D1207800F0080008282DD1A0693F
:102FE000B8B101208B490860FFF72EFD054606E0C9
:102FF000FFF72AFD401B022801D903200EE7834872
:10300000406A00F002000028F2D0012000F098FB96
:1030100013E000207F490860FFF716FD054606E033
:10302000FFF712FD401B022801D90320F6E677487E
:10303000406A00F002000028F2D1207800F004007D
:10304000042873D100277148C06900F0805070B91E
:1030500000BF6E48C06940F080506C49C8610846A6
:10306000C06900F08050009000BF00BF01276A488F
:10307000006800F48070B0B96748006840F4807060
:1030800065490860FFF7E0FC054606E0FFF7DCFC59
:10309000401B642801D90320C0E65F48006800F4A3
:1030A00080700028F2D000BFE068012806D15748A0
:1030B000006A40F001005549086227E0E06858B90D
:1030C0005248006A20F00100504908620846006A30
:1030D00020F00400086219E0E06805280BD14B4895
:1030E000006A40F00400494908620846006A40F05E
:1030F000010008620AE04548006A20F001004349E7
:1031000008620846006A20F00400086200BFE06818
:10311000A0B1FFF799FC054609E0FFF795FC401BBD
:1031200041F28831884202D9032077E622E037480D
:10313000006A00F002000028EFD012E0FFF784FCE4
:10314000054608E0FFF780FC401B41F288318842C9
:1031500001D9032062E62D48006A00F00200002831
:10316000F0D1012F05D12948C06920F080502749AE
:10317000C86100BFE069C8B32448406800F00C0093
:10318000082860D0E069022848D10020204908665C
:10319000FFF75AFC054606E0FFF756FC401B0228E5
:1031A00001D903203AE61948006800F000700028B1
:1031B000F2D1206AB0F5803F07D11448406820F46E
:1031C0000030A168084311494860D4E90801084368
:1031D0000E49496821F4741108430C4948600120E4
:1031E0000B490866FFF730FC054607E03DE0FFF7B6
:1031F0002BFC401B022801D903200FE6034800687E
:1032000000F000700028F2D02FE000000010024013
:1032100000004242800442420070004000201449F5
:103220000866FFF711FC054606E0FFF70DFC401BA2
:10323000022801D90320F1E50E48006800F0007073
:103240000028F2D111E0E069012800D1E6E5094843
:10325000466806F48031206A814204D106F4701178
:10326000606A814201D00120D8E50020D6E5000047
:10327000000042420010024070B504462546681E18
:10328000B0F1807F01D301200FE0681E4FF0E021F4
:1032900048610F214FF0FF3000F016FC00204FF086
:1032A000E021886107200861002070BD10B5044648
:1032B0000CB9012010BD94F83D0028B9002084F815
:1032C0003C00204600F025F8022084F83D00211D36
:1032D000206800F071FA012084F8460000BF84F8ED
:1032E0003E0001213F20015540200155412001555C
:1032F00000BF00BF012084F8420043200155442054
:1033000001554520015500BF012084F83D000020F3
:10331000D0E77047014691F83D00012801D0012017
:103320007047022081F83D000868C06840F0010045
:103330000B68D860164B0868984213D0154B086884
:1033400098420FD00868B0F1804F0BD0124B08683C
:10335000984207D0114B0868984203D0104B086878
:1033600098420CD10868806800F00702062A0CD049
:103370000868006840F001000B68186005E0086804
:10338000006840F001000B6818600020C8E70000EA
:10339000002C0140003401400004004000080040BF
:1033A000000C0040704700002DE9F04704462068FB
:1033B00005682068C668206847694FF00008C14664
:1033C00005F00F08B8F1000F0AD105F0200038B160
:1033D00006F0200020B1204600F066FABDE8F08734
:1033E000B8F1000F71D007F0010018B906F4907021
:1033F00000286AD005F0010030B106F4807018B1E1
:10340000E06B40F00100E06305F0040030B107F02C
:10341000010018B1E06B40F00200E06305F002002B
:1034200030B107F0010018B1E06B40F00400E06338
:1034300005F0080048B106F0200010B907F00100BF
:1034400018B1E06B40F00800E063E06B68B305F092
:10345000200028B106F0200010B1204600F024FA28
:1034600020684069C0F38019E06B00F0080010B9D3
:10347000B9F1000F22D0204600F0F6F9206840692B
:1034800000F04000B0B12068406920F040002168A1
:103490004861606B50B11848616B4863606BFFF71F
:1034A0004FF810B1606B416B88470CE02046FFF786
:1034B00079FF08E02046FFF775FF04E02046FFF79C
:1034C00071FF0020E06389E7FFE705F0800030B17D
:1034D00006F0800018B1204600F0B4FA7EE705F04F
:1034E000400030B106F0400018B1204600F0CCF9A1
:1034F00074E700BF72E700005538000810B50446B5
:103500000CB9012010BDA06900B100E000BF94F823
:10351000390028B9002084F83800204600F028F847
:10352000242084F839002068C06820F40050216805
:10353000C860204600F008FA2068006920F4904036
:10354000216808612068406920F02A0021684861EC
:103550002068C06840F400502168C8600020E06323
:10356000202084F8390084F83A000020CAE70000DF
:1035700010B586B004462849206888424AD100BF69
:1035800000BF2648806940F004002449886108464D
:10359000806900F00400019000BF00BF00BF00BFC1
:1035A00000BF0846806940F00400886108468069D1
:1035B00000F00400019000BF00BF00BF00BF00BFCB
:1035C0000846806940F4804088610846806900F4BC
:1035D0008040019000BF00BF00BF4815029002204C
:1035E0000390012004900320059002A90C48FFF7E6
:1035F0007BF84FF4806002900020039002A90848F5
:10360000FFF772F82520FFF76CFA032211462520F8
:10361000FFF777FA06B010BD0038014000100240F5
:103620000008014010B5034693F83A0020282FD136
:1036300001B10AB9012010BD00BF93F8380001287C
:1036400001D10220F7E7012083F8380000BF99621A
:103650009A85DA850020D863222083F83A0000BFDB
:10366000002083F8380000BF1868C06840F48070FC
:103670001C68E0601868406940F001001C686061E7
:103680001868C06840F020001C68E0600020D2E7A5
:103690000220D0E710B504462049206888423BD17B
:1036A0001F48008800F4004088BB1D48008800F4D3
:1036B000804070B11B4800780A2803D000201849C8
:1036C000088024E01648008840F40040144908802F
:1036D0001DE0144800780D2806D11148008840F4F8
:1036E00080400F49088012E00E4800780C49098894
:1036F000C1F30D010C4A505409480088401C084988
:10370000088008460088C72801DD002008800122C3
:1037100004490648FFF786FF10BD0000003801404D
:103720002C0000202E00002024040020EC040020A7
:10373000704700BFFEE700BFFEE77047704700001C
:1037400008B508490968C9084FF47A72B1FBF2F16B
:103750004143009100BF00BF00994A1E009200291A
:10376000F9D108BD20000020704710B5FFF772F9AD
:1037700010BD704710B50E480068C06800F0010029
:1037800078B10C49086980470020094909684862F6
:1037900000BF642006490968C86264210448C1600A
:1037A00000BF6FF0010002490968086110BD000008
:1037B000880700208800002010B50268204B98423E
:1037C0000ED0204B98420BD0B0F1804F08D01E4B4A
:1037D000984205D01D4B984202D01D4B984203D110
:1037E00022F070024B681A43154B98420ED0154BCD
:1037F00098420BD0B0F1804F08D0134B984205D0BF
:10380000124B984202D0124B984203D122F44072DC
:10381000CB681A4322F080034C6943EA0402026039
:103820008B68C3620B688362054B984202D0054BDC
:10383000984201D10B6903630123436110BD00006D
:10384000002C01400034014000040040000800400A
:10385000000C004070B505466C6A0020E085E084ED
:103860002046FFF79FFD70BD0168C96821F4907183
:103870000268D1600168496921F001010268516163
:10388000202180F83A10704710B504462068C068BF
:1038900020F040002168C860202084F839002046CC
:1038A000FFF746FF002010BD70B5044694F83A00BB
:1038B000222847D1A068B0F5805F0CD1206950B9AB
:1038C0000025A66A20684068C0F308003080A06A1E
:1038D000801CA06215E0A56A0026A068B0F5805F94
:1038E00003D0A06828B9206918B9206840682870FA
:1038F00004E02068406800F07F002870A06A401C47
:10390000A062E08D401E80B2E085C8B92068C06822
:1039100020F020002168C8602068C06820F4807012
:103920002168C8602068406920F001002168486172
:10393000202084F83A002046FFF7ACFE002070BD3E
:103940000020FCE70220FAE770B504462168096907
:1039500021F44051E2681143226811612269A16893
:103960001143626941EA02052168C96841F20C62AB
:10397000914329432268D1602168496921F440714B
:10398000A2691143226851612D4A2168914202D1F6
:10399000FFF7E6F901E0FFF7D3F900EBC00101EB17
:1039A000001162689200B1FBF2F100EBC00202EB81
:1039B000001263689B00B2FBF3F26423B2FBF3F2E4
:1039C00002EBC20303EB0212A1EB8201322202EBF3
:1039D00001116422B1FBF2F101F0F00100EBC00231
:1039E00002EB001263689B00B2FBF3F26423B2FBAC
:1039F000F3F201EB021200EBC00101EB001163686E
:103A00009B00B1FBF3F100EBC00303EB001366680E
:103A1000B600B3FBF6F36426B3FBF6F303EBC30681
:103A200006EB0313A1EB8301322303EB01116423A3
:103A3000B1FBF3F101F00F0111442268916070BDF8
:103A400000380140014691F83900212828D18868C2
:103A5000B0F5805F0BD1086948B90A6A1088C0F3D5
:103A600008000B685860086A801C086205E00B6A51
:103A7000581C086218780B685860C88C401E80B2C9
:103A8000C88458B90868C06820F080000B68D86006
:103A90000868C06840F040000B68D860002070479C
:103AA0000220FCE710B50248FFF77EFC10BD0000C5
:103AB000EC04002000BFFEE702480068C0F30220CB
:103AC000704700000CED00E010B5002804DB0A0789
:103AD000130E054A135406E00A07140E034A00F0B9
:103AE0000F031B1FD45410BD00E400E018ED00E0EC
:103AF00030380A2801D2012070470020704700BFEB
:103B0000704700002DE9F0418AB004460D46164684
:103B10001F46DDF840801C481C4908600846476085
:103B2000C0F80880C46006614561002101764176D5
:103B300081760121C176002101774177FEF7C3FB31
:103B400018B101200AB0BDE8F08100200590069070
:103B500001200790002000900190029003900490B3
:103B6000012008900E20099069460848FEF73AFAAD
:103B700008B10220E6E70548FEF7B2FC08B10320D1
:103B8000E0E70020DEE70000006400402C07002092
:103B900010B5044600210948FEF7A9FA08B900202B
:103BA00010BD2346064A00210448FEF7B4FA08B1C6
:103BB0000020F5E70248007CF2E700002C07002017
:103BC0006C0700202DE9FE4F074688461446012069
:103BD00002903A480760002038498860C860B7F50D
:103BE000007F14D3082C12D10820086102AB424692
:103BF0003348FEF74CF910B10120BDE8FE8F00BF3D
:103C00002F48FEF745FB0328FAD10020F5E7072CE3
:103C10001ADC31208DF80000224641460DF10100EA
:103C2000FDF79EFF601C2549086102AB6A462448E7
:103C3000FEF72DF908B10120DFE700BF2048FEF7AD
:103C400027FB0328FAD137E04FF0000925464FF053
:103C5000100A2EE0072D01DD072000E02846064669
:103C60008DF800A008EB090132460DF10100FDF7C7
:103C700077FF701C1149086102AB6A461048FEF7D5
:103C800006F908B10120B8E700BF0D48FEF700FBB8
:103C90000328FAD109EB060000F0FF09A81BC5B202
:103CA000002D05DD072D01DD212000E022208246C8
:103CB00000BF002DCEDC00BF00209EE7540700208F
:103CC0002C070020014908607047000024000020F4
:103CD00010B504464FF47A7104FB01F000F002F8CD
:103CE00010BD000070B5034600224FF0E026756954
:103CF0000D4E366803FB06F44FF0E026B16910E084
:103D00004FF0E026B06988420BD0884202D20E1AEA
:103D1000324402E02E1A0E4432440146A24200D33D
:103D200000E0EDE700BF70BD240000202DE9FC4756
:103D300000266846FFF72CFF0646002E7CDD4B4828
:103D400007689DF800800DF10109701EC4B2B7F537
:103D5000827F7BD1B8F1100F06D0B8F1210F1ED0B1
:103D6000B8F1220F6BD130E04FF400714048FDF7FD
:103D700090FF00203F490880002C0CDD3C493D4A63
:103D80001288881822464946FDF7EAFE394800881D
:103D900020443849088000203749087055E03548EC
:103DA00000882044B0F5007F0EDC002C0CDD30498B
:103DB000304A1288881822464946FDF7D1FE2D4820
:103DC000008820442B4908803FE02A48008820448E
:103DD000B0F5007F2FDC002C0CDD2549254A128828
:103DE000881822464946FDF7BBFE22480088204439
:103DF000204908801F48018820A0FDF70BFD002501
:103E000012E01C480088854204DA1948405D2549C3
:103E1000485502E00020234948552248425D294682
:103E200021A0FDF7F7FC6D1C102DEADB01202549D0
:103E300008701149087008E015E007E0FFE700206E
:103E40000C4908800C49087000BF0BE0B7F5017FF2
:103E500008D10748DDE9001206C0012006490870B4
:103E6000BDE8FC8700BF00BFFAE700006C07002038
:103E70002C0500203C0000203E000020546F74619F
:103E80006C206B6579206C656E6774682072656361
:103E900065697665643A2025642062797465732EBD
:103EA0000A0000001404002073657373696F6E5F6D
:103EB0006B65795B25645D203D2030782530325874
:103EC0000A0000000400002000BF054A126802F04A
:103ED0004002002AF9D0C2B2014B1B1D1A60704784
:103EE0000038014000B585B000BF00BF1E488069A2
:103EF00040F008001C4988610846806900F008000D
:103F0000009000BF00BF00BF00BF00BF084680692F
:103F100040F0400088610846806900F04000009051
:103F200000BF00BF00BF202001900120029003903D
:103F30000320049001A90D48FEF7D6FB2020019034
:103F400001A90B48FEF7D0FB00BF01222021074842
:103F5000FEF774FD00BF00BF012220210448FEF7D8
:103F60006DFD00BF05B000BD00100240000C014017
:103F70000018014092B000BF00BF00BF82A103C97A
:103F8000CDE90F0100BF002700BFFEF76FFD4FF422
:103F9000E01000F0DCF94820FFF794FE4FF4E13028
:103FA00000F008FA7A48416848208847FFF79AFFEE
:103FB000002004235A044FF4E0010090FFF7A2FD13
:103FC0004FF48070FDF7AEFD0FE0FFF7AFFE7148D4
:103FD0000078012806D170480078012802D16FA02E
:103FE000FDF718FC1420FFF773FE6B4800780128DA
:103FF000EBD14FF4FA60FFF76BFE00BFC3E0002483
:1040000010E0FCF715F90546C01705EB106000122B
:10401000A5EB0020704908550846015D6FA0FDF72B
:10402000F9FB641C082CECDB11A80DA910226D4BC8
:10403000CDE901326C4B0092CDE9031008226649AC
:104040006A480068FCF72EF9064611A803210CAA5D
:104050000023CDE90232CDE904101021CDE900138F
:10406000614B05220DA962480068FCF777FA064605
:104070000D980A909DF838008DF82C00BDF830009E
:10408000ADF82D009DF832008DF82F0008220AA906
:1040900040F20320FFF796FD07461FB955A0FDF734
:1040A000B9FB02E05AA0FDF7B5FB60A0FDF7B2FB3B
:1040B00000203849087004E0FFF738FE0520FFF7BC
:1040C00007FE344800780028F6D063A0FDF7A2FB75
:1040D0000020089009906B480168089100798DF8DC
:1040E00024006848B0F80510ADF81C10C0798DF8B0
:1040F0001E00032007A900220192CDE902210490AD
:104100001020394B052208A9009039480068FCF7B7
:1041100047FA06465C4886422AD15CA0FDF77AFB46
:1041200000BF20216048FEF77FFC00BF11A805A951
:1041300010222C4BCDE901322B4B0092CDE903101C
:10414000052208A959480068FCF7D8F8064658A087
:10415000FDF760FB002405E005A8015D1FA0FDF749
:1041600059FB641C052CF7DB5DA0FDF753FB03E056
:1041700031465CA0FDF74EFB66A0FDF74BFB14201B
:10418000FFF7A6FD00BF3AE70101010101010101AE
:10419000880000203E000020040000205365737357
:1041A000696F6E206B6579207265636569766564F9
:1041B0002E205374617274696E6720736563757223
:1041C0006520636F6D6D756E69636174696F6E20D4
:1041D0006C6F6F702E0A00000500002030782530CB
:1041E00032582000B455000814040020605700081D
:1041F0004C5700084D6573736167652073656E7475
:10420000207375636365737366756C6C792E0A0031
:104210004D6573736167652073656E64696E6720B1
:104220006661696C65642E0A000000002D2D2D204A
:10423000456E746572696E6720426C6F636B696E60
:1042400067205265636569766520506861736520F3
:104250002D2D2D0A000000003C2D2D205265636598
:10426000697665642061206D6573736167652120DF
:1042700050726F63657373696E672E2E2E202D2D1D
:104280003E0A00002C05002026C703004D414320B4
:10429000566572696669636174696F6E2053554330
:1042A00043455353210A0000000C014064570008A5
:1042B00044656372797074696F6E207375636365AA
:1042C000737366756C2E20446563727970746564CF
:1042D00020506C61696E746578743A2000000000AB
:1042E0000A000000212121204D41432056657269BA
:1042F0006669636174696F6E204641494C4544208C
:104300002121212072657476616C3D307825303230
:10431000580A00002D2D2D204379636C6520636FB2
:104320006D706C6574652E2057616974696E6720C5
:10433000666F72206E657874206379636C652E20D9
:104340002D2D2D0A0000000001460868704730B589
:104350008FB005460124282105A8FDF79AFC1421F9
:104360006846FDF796FC01200590000406900020A9
:10437000079002200C90C1030D910E9505A8FEF741
:1043800049FD04460CB100BFFEE70F20009002205B
:104390000190002002904FF4806003900020049070
:1043A00002216846FEF700FC04460CB100BFFEE7A0
:1043B0000FB030BD10B5044609480A4908600846E8
:1043C000446000218160C160016181610C21416113
:1043D000FFF794F8012204490248FFF723F910BDC2
:1043E00000380140EC0400202E00002030B595B0CC
:1043F000054613AB12AA09A9284600F03FFA044665
:1044000014B1204615B030BD0020149026E022499A
:1044100009689DF8502001EBC20113AB11AA48684E
:1044200001A900F02BFA04460CB12046EAE709A9DD
:1044300001A800F0AFFC60B99DF844009DF8481059
:10444000884201DD0220DDE79DF8500012498875A1
:104450000AE09DF85000401CC0B214900E48007D48
:104460009DF850108842D2DC00BF0B48007D9DF8BB
:104470005010884201D10420C4E714A9284600F056
:10448000DDFA04460CB12046BCE79DF85000024915
:1044900048750020B6E70000880000202DE9F041B3
:1044A0009AB09C48847D007DA04202DC1AB0BDE831
:1044B000F0819849096801EBC40106AB07AA486876
:1044C00008A900F0DBF908A993A0FDF7A3F90026DD
:1044D00044E09048008B0121B1400840D8B122212E
:1044E0008FA0FDF797F9304600F042FB894924314F
:1044F000471839468BA0FDF78DF9222188A0FDF7DA
:1045000089F9304600F034FB82492431084410A96F
:1045100041F8260018E0304600F02AFB7D4924319E
:10452000085810A941F826007A48C07D30B910A873
:1045300050F826107CA0FDF76DF905E010A850F8A2
:1045400026107AA0FDF766F99DF81C00401EB042C7
:1045500002D078A0FDF75EF9701CC6B29DF81C0071
:104560008642B6DB74A0FDF755F901F007F86948FB
:10457000407D0B280DD2DFE800F0060D151E273216
:104580003F4E5F7287006349096851F834008047E5
:10459000054690E05F4A126852F834101098884738
:1045A000054688E05B4B1B6853F83420DDE91001B9
:1045B000904705467FE0574F3F6857F8343010A8C2
:1045C00007C89847054676E0DFF848C1DCF800C028
:1045D0005CF8347010A80FC8B84705466BE0149813
:1045E000DFF830C10090DCF800C05CF8347010A82F
:1045F0000FC8B84705465EE0DDE91401DFF814C1D5
:10460000CDE90001DCF800C05CF8347010A80FC8D8
:10461000B84705464FE0DDE914121698DFF8F4C0FC
:10462000CDE900120290DCF800C05CF8347010A8EC
:104630000FC8B84705463EE0DDE91423DDE9161052
:10464000DFF8D0C0CDE90023CDE90210DCF800C0CE
:104650005CF8347010A80FC8B84705462BE0DDE9B8
:104660001523DDE91710CDE90123CDE903101498D6
:10467000DFF8A0C00090DCF800C05CF8347010A82F
:104680000FC8B847054616E0DDE91623DDE9181026
:10469000CDE90223CDE90410DDE91401DFF874C08F
:1046A000CDE90001DCF800C05CF8347010A80FC838
:1046B000B847054600BF00BF00F00EFF9DF8180088
:1046C00001280CD11348C07D20B929461BA0FDF755
:1046D000A1F807E029461BA0FDF79CF802E018A00E
:1046E000FDF798F80B4890F8EC0088B10948D0F82D
:1046F000F0000A21B0FBF1F201FB12070548D0F8E7
:10470000F000B0FBF1F83A46414611A0FDF782F8FF
:1047100000BFCBE6880000200D0A257328000000AA
:104720002563000025730000256C6400305825586F
:10473000000000002C000000290000003D256C75E1
:104740003B0D0A003D305825583B0D0A0000000083
:1047500046756E6374696F6E2052756E2054696D74
:10476000653A25642E2531646D730D0A0000000042
:10477000F0B50346154600200022002600245BE029
:104780001F782C2F01D104B901221F78292F01D0C5
:104790001F780FB904B950E0002E3AD11F78302F9E
:1047A00002DB1F78392F17DD1F782D2F14D01F78CB
:1047B0002B2F11D01F78612F02DB1F78662F0BDDA6
:1047C0001F78412F02DB1F78462F05DD1F78582FF9
:1047D00002D01F78782F0CD102B12EE01F78612F04
:1047E00003DB1F78203F0F7001E01F780F70491C1A
:1047F0001FE01F78222F04D102B11EE00126012400
:1048000017E01F78202F14D01F782C2F11D0FF26EF
:1048100013E01F78222F00D1002402B10DE044B133
:104820001F785C2F02D15B1C471CF8B21F780F70F9
:10483000491C471CF8B25B1CA2E700BF00270F70A1
:104840002E70F0BD10B50446002010700BE02078EB
:104850000870641C491C1078401C10701078984235
:1048600001DB012010BD2078202802D0207800280C
:10487000EDD10020087000BFF4E700002DE9FF4FE4
:1048800085B08046894600270020049003900120CF
:1048900002904FF0000B002544461DE020782028B0
:1048A00016D005F07F00052812DA0DB945F0800515
:1048B00005F07F00042803D120782A2800D00EE0DC
:1048C000207805F07F010DF80100681CC5B202E0F8
:1048D000852D00D103E0641C20780028DED100BFC4
:1048E0008DB1002005F07F010DF8010051A168464F
:1048F00000F050FA18B900210898017002E0012177
:104900000898017000254FF0000A444614E0641C2A
:104910000AF1010000F0FF0A2078202802D0207858
:104920002A2809D1204600F0A7F90646282E03D0F0
:104930002A2E01D0CDF810A02078282802D0207887
:104940000028E4D14446049810B10498401C044463
:104950004FF0000A002654E0207810B94FF0010A09
:1049600050E02078282803D116B9781CC7B213E08C
:104970002078292808D13EB917B1781EC7B201E0C6
:104980004FF0010A47B93DE02078222804D10EB942
:10499000012000E00020064647B9207820282FD0CB
:1049A000207889F8000009F1010929E020782C28F5
:1049B00004D101200290681CC5B214E020782028A0
:1049C00011D0207828280ED04DB9BBF1050F06DA9A
:1049D00020780DF80B000BF1010000F0FF0B02989E
:1049E000401CC0B20290012F0AD10298022807D1C0
:1049F0000298401CC0B202900398401CC0B20390C1
:104A0000641CA9E700BF0398012809D100200DF814
:104A10000B0008A1684600F0BDF908B9002003901A
:104A2000079903980870002089F80000504609B0E3
:104A3000BDE8F08F766F6964000000002DE9F04357
:104A4000B5B005460F460024002604E000213D488D
:104A50008155701CC6B20A2EF8DB06E06D1C287862
:104A600018B9012035B0BDE8F08328782828F5D1A1
:104A70006D1C61E034AA69462846FFF779FE0646B8
:104A800035449DF8D00020B1012827D0FF284CD113
:104A900049E09DF8000000B333A9684600F0F7F83C
:104AA00006460EB10220DDE7204600F061F82549F8
:104AB0000A31339A0A50A1F12400008B0121A14050
:104AC000884320491A39088304211E480155601C77
:104AD000C4B20A2C01DD0320C4E726E0684600F0DA
:104AE00075F9401C00F0FF08204600F041F8154918
:104AF0000A3100EB01094946684600F05CF91148AB
:104B00001A38018B0120A040014388B20D491A399F
:104B100008830C4800F80480601CC4B20A2C01DD34
:104B200003209FE701E002209CE700BF28782928A6
:104B300001D0287800B900E09CE700BF3C7000205D
:104B400090E70000A20000200020074A128802F42B
:104B500000423AB1044A11780022044B5A541846D4
:104B6000014B1A80704700002C0000202404002014
:104B700002460020002105E0044B5B5C0344D8B2F0
:104B80004B1CD9B29142F7DB70470000A200002015
:104B900010B5044604EBC40000EB04100122C2EB84
:104BA000800081B24FF47A7000F0B8FC0120014916
:104BB000C87510BD8800002010B50246012000E035
:104BC00050430B1EA1F10104E1B2F9D110BD000068
:104BD00070B50026FFF7B8FF064606B970BD174846
:104BE00081683046884704461CB91449C868804724
:104BF00021E0304600F0F6F80546012D00D02C46A5
:104C0000CCB1012C06D0022C08D0032C0AD0042CE5
:104C100010D10BE00AA0FCF7FDFD0BE00BA0FCF7A8
:104C2000F9FD07E00CA0FCF7F5FD03E00DA0FCF793
:104C3000F1FD00BF00BF00BFD0E7000088000020EA
:104C4000BAAFCAFDB4EDCEF3210D0A00B2CECAFD53
:104C5000B4EDCEF3210D0A00B2CECAFDCCABB6E066
:104C6000210D0A00CEB4D5D2B5BDC6A5C5E4B5C4E4
:104C7000BAAFCAFD210D0A000146491C00E0491CDB
:104C80000878202801D10029F9D1087870472DE94A
:104C9000F04F05460F4600264FF00A09B3462C4652
:104CA0000020386034E02078392802DC2078302871
:104CB00011DA28782D2802D028782B2800D156B177
:104CC0002078462802DC2078412804DA2078582809
:104CD00017D1012E15D12078412801DB4FF01009A2
:104CE00028782D2803D14FF0020B6D1C0FE0287897
:104CF0002B2803D14FF0010B6D1C08E0701CC6B2CD
:104D000005E0207800B904E00120BDE8F08F641CC4
:104D1000C9E700BF2C46B9F1100F0FD1032E01DAFD
:104D20000220F2E72078302806D16078582803D195
:104D3000A41CB01EC6B204E00320E6E70EB90420AE
:104D4000E3E71BE00EB1701EC6B22078392806DCFE
:104D50002078302803DB2078A0F1300A02E02078A8
:104D6000A0F1370A31464846FFF726FF39680AFBAB
:104D700000103860641C207800B900E0E2E700BF52
:104D8000BBF1020F04D13868C0F10008C7F80080F9
:104D90000020BAE702460AE010780B78984201D06A
:104DA00001207047107800B902E0521C491CF3E75B
:104DB00000BF0020F5E706E002780A70027802B929
:104DC00002E0401C491CF7E700BF70470146002085
:104DD00005E00A7802B903E0421CD0B2491CF8E7AA
:104DE00000BF704710B58CB004461E230BAA03A960
:104DF0002046FFF727FD0090009810B101200CB06D
:104E000010BD9DF82C00044400200B900EE040489B
:104E10009DF82C2050F8221003A8FFF7BBFF00B923
:104E200008E09DF82C00401CC0B20B909DF82C00AF
:104E30000728ECD300BF9DF82C00072863D2DFE8D9
:104E400000F004053C5E6564630000BF31A0FCF720
:104E5000E1FC31A0FCF7DEFC3FA0FCF7DBFC4EA040
:104E6000FCF7D8FC5CA0FCF7D5FC6BA0FCF7D2FCEF
:104E700079A0FCF7CFFC87A0FCF7CCFC8CA0FCF75A
:104E8000C9FC94A0FCF7C6FC98A0FCF7C3FC9DA04D
:104E9000FCF7C0FCA2A0FCF7BDFCA8A0FCF7BAFC84
:104EA000B4A0FCF7B7FCC1A0FCF7B4FCCCA0FCF7A5
:104EB000B1FCD8A0FCF7AEFCA2E216A0FCF7AAFC5D
:104EC000E4A0FCF7A7FC00200B900EE0F14800687E
:104ED0009DF82C2000EBC2004168EFA0FCF79AFC83
:104EE0009DF82C00401CC0B20B90EA48007D9DF854
:104EF0002C108842EADC07A0FCF78CFC80E205A0BD
:104F0000FCF788FCCCE179E24DE221E2F4E100001B
:104F1000440000200D0A00002D2D2D2D2D2D2D2DAE
:104F20002D2D2D2D2D2D2D2D2D2D2D2D2D2D2D2DB1
:104F300055534D4152542056332E352D2D2D2D2DA8
:104F40002D2D2D2D2D2D2D2D2D2D2D2D2D2D2D2D91
:104F50002D2D2D200D0A00002020202055534D41DD
:104F60005254CAC7D3C9414C49454E54454BBFAAB8
:104F7000B7A2B5C4D2BBB8F6C1E9C7C9B5C4B4AE0F
:104F8000BFDAB5F7CAD4BBA5BDBBD7E9BCFE2CCDF3
:104F9000A8B9FD200D0A0000CBFC2CC4E3BFC9D288
:104FA000D4CDA8B9FDB4AEBFDAD6FACAD6B5F7D318
:104FB000C3B3CCD0F2C0EFC3E6B5C4C8CEBACEBA44
:104FC000AFCAFD2CB2A2D6B4D0D02ED2F2B4CB2C24
:104FD000C4E3BFC90D0A0000D2D4CBE6D2E2B8FCCC
:104FE000B8C4BAAFCAFDB5C4CAE4C8EBB2CECAFDF4
:104FF00028D6A7B3D6CAFDD7D62831302F3136BD33
:10500000F8D6C62CD6A7B3D6B8BACAFD29A1A2D75E
:10501000D6B7FBB4AE0D0A00A1A2BAAFCAFDC8EB69
:10502000BFDAB5D8D6B7B5C8D7F7CEAAB2CECAFDC3
:10503000292CB5A5B8F6BAAFCAFDD7EEB6E0D6A70B
:10504000B3D63130B8F6CAE4C8EBB2CECAFD2CB242
:10505000A2D6A7B3D60D0A00BAAFCAFDB7B5BBD862
:10506000D6B5CFD4CABE2ED6A7B3D6B2CECAFDCF40
:10507000D4CABEBDF8D6C6C9E8D6C3B9A6C4DC2C0E
:10508000D6A7B3D6BDF8D6C6D7AABBBBB9A6C4DCD3
:105090002E0D0A00BCBCCAF5D6A7B3D63A777777EF
:1050A0002E6F70656E6564762E636F6D0D0A00005D
:1050B00055534D415254D3D037B8F6CFB5CDB3C3C5
:1050C000FCC1EE28B1D8D0EBD0A1D0B4293A0D0A5A
:1050D000000000003F3A202020202020BBF1C8A182
:1050E000B0EFD6FAD0C5CFA20D0A000068656C708B
:1050F0003A202020BBF1C8A1B0EFD6FAD0C5CFA28C
:105100000D0A00006C6973743A202020BFC9D3C314
:10511000B5C4BAAFCAFDC1D0B1ED0D0A0A00000096
:1051200069643A2020202020BFC9D3C3BAAFCAFD8A
:10513000B5C44944C1D0B1ED0D0A0A006865783A9A
:1051400020202020B2CECAFD3136BDF8D6C6CFD43D
:10515000CABE2CBAF3B8FABFD5B8F12BCAFDD7D660
:10516000BCB4D6B4D0D0BDF8D6C6D7AABBBB0D0A46
:105170000A0000006465633A20202020B2CECAFDF8
:105180003130BDF8D6C6CFD4CABE2CBAF3B8FABFF8
:10519000D5B8F12BCAFDD7D6BCB4D6B4D0D0BDF8A3
:1051A000D6C6D7AABBBB0D0A0A00000072756E7482
:1051B000696D653A312CBFAAC6F4BAAFCAFDD4CB2B
:1051C000D0D0BCC6CAB13B302CB9D8B1D5BAAFCA61
:1051D000FDD4CBD0D0BCC6CAB13B0D0A0A0000003A
:1051E000C7EBB0B4D5D5B3CCD0F2B1E0D0B4B8F100
:1051F000CABDCAE4C8EBBAAFCAFDC3FBBCB0B2CEED
:10520000CAFDB2A2D2D4BBD8B3B5BCFCBDE1CAF8CA
:105210002E0D0A002D2D2D2D2D2D2D2D2D2D2D2D2D
:105220002D2D2D2D2D2D2D2D2D2D2D2D2D2DD5FD36
:10523000B5E3D4ADD7D32D2D2D2D2D2D2D2D2D2DE9
:105240002D2D2D2D2D2D2D2D2D2D2D2D2D2D2D209B
:105250000D0A00002D2D2D2D2D2D2D2D2D2D2D2D1B
:105260002D2D2D2D2D2D2D2D2D2D2D2D2DBAAFCAC2
:10527000FDC7E5B5A52D2D2D2D2D2D2D2D2D2D2D3C
:105280002D2D2D2D2D2D2D2D2D2D2D2D2D2D2D2D4E
:10529000200D0A008800002025730D0A0000000080
:1052A00059A0FCF7B7FA00200B901AE0664909688C
:1052B0009DF82C2001EBC20101AB02AA486803A9AA
:1052C000FFF7DCFA604800689DF82C1050F8312098
:1052D00003A95EA0FCF79EFA9DF82C00401CC0B20A
:1052E0000B905948007D9DF82C108842DEDCAFF20F
:1052F000DC30FCF78FFA83E0AFF2E830FCF78AFA93
:105300000BAA03A92046FFF733FA9DF82C00C8B971
:10531000694603A8FFF7BBFC0B909DF82C0020B951
:105320004FA00099FCF776FA0EE09DF82C000428B7
:1053300001D0022063E54DA0FCF76CFA0120424940
:10534000C87501E002205AE547A0FCF763FA57E070
:1053500045A0FCF75FFA0BAA03A92046FFF708FA5D
:105360009DF82C00C8B9694603A8FFF790FC0B9084
:105370009DF82C0020B942A00099FCF74BFA0EE0F2
:105380009DF82C00042801D0022038E53FA0FCF74E
:1053900041FA00202C49C87501E002202FE532A017
:1053A000FCF738FA2CE030A0FCF734FA0BAA03A97A
:1053B0002046FFF7DDF99DF82C00C8B9694603A81F
:1053C000FFF765FC0B909DF82C0078B91E490098FA
:1053D00081F8EC00084690F8EC0018B130A0FCF71A
:1053E00019FA07E035A0FCF715FA03E0022006E5FC
:1053F000022004E51CA0FCF70DFA01E00120FEE408
:1054000000BF0020FBE400002D2D2D2D2D2D2D2D76
:105410002D2D2D2D2D2D2D2D2D2D2D2D2D2D2D2DBC
:105420002DBAAFCAFD204944202D2D2D2D2D2D2D17
:105430002D2D2D2D2D2D2D2D2D2D2D2D2D2D2D2D9C
:105440002D2D2D2D200D0A008800002025732069A8
:10545000642069733A0D0A3058253038580D0A0017
:105460004845583A305825580D0A00003136BDF8E5
:10547000D6C6B2CECAFDCFD4CABE210D0A000000E6
:105480004445433A256C750D0A0000003130BDF8E3
:10549000D6C6B2CECAFDCFD4CABE210D0A000000C6
:1054A00052756E2054696D652043616C63756C6143
:1054B00074696F6E204F4E0D0A00000052756E2009
:1054C00054696D652043616C63756C6174696F6EBE
:1054D000204F46460D0A00000E480068006900F0A3
:1054E000010040B10C48D0F8F0004FF6FF710844BD
:1054F0000949C1F8F0000848D0F8F00005490968EA
:10550000496A08440449C1F8F0000846D0F8F000A0
:1055100070470000880700208800002038B5044646
:105520000D4600BF00BF1248C06940F0040010499A
:10553000C8610846C06900F00400009000BF00BFC9
:1055400000BF0C480C490860084645600021816096
:10555000C4600161FDF7AAFE0748FDF7DBFE0322E8
:1055600011461E20FDF7CDFA1E20FDF7BAFA38BD10
:105570000010024000080040880700206FF0010082
:1055800009490968086100BF000C07490968C86239
:1055900001460548C16000BF002003490968486210
:1055A0000249C1F8F00070478807002088000020F9
:1055B00001607047000102030405060708090A0B91
:1055C0000C0D0E0FAC3236CB9751F0BE404142432A
:1055D0004445464748494A4B4C4D4E4F5051525313
:1055E0005455565758595A5B5C5D5E5F4D7920544F
:1055F0006167676564204170706C69636174696F8D
:105600006E0000000000000000010203040607080D
:105610000900000000010203043031323334353612
:1056200037383941424344454640305800303132E2
:1056300033343536373839616263646566403078B3
:10564000000400000800000000000000020001004B
:10565000001000003F000000646563006964000002
:1056600072756E74696D650068656C70000000008D
:105670006C6973740000000068657800766F696477
:105680002077726974655F616464722875696E74ED
:1056900033325F7420616464722C75696E743332C6
:1056A0005F742076616C290075696E74385F7420B0
:1056B00063616E5F73656E645F6D73672875696E95
:1056C0007433325F742069642C2075696E74385F9E
:1056D00074202A6D73672C2075696E74385F74208E
:1056E0006C656E290000000075696E7433325F745A
:1056F00020726561645F616464722875696E7433D9
:10570000325F74206164647229000000766F6964FE
:105710002064656C61795F6D732875696E743136CC
:105720005F74206E6D732900766F69642064656C08
:1057300061795F75732875696E7433325F74206E9A
:1057400075732900BD030008E503000844570008ED
:10575000110400083A00000011040008C5FFFFFF13
:105760005057000858570008E5050008990F000831
:1057700068570008790D0008990D0008B90D000858
:10578000DD0D0008B9140008BF140008C514000896
:10579000CB140008110E0008D1140008D914000819
:1057A00051150008F10E0008A05700080000000184
:1057B00000000002000000040000000800000010CB
:1057C0000000002000000040000000800000001BDE
:1057D00000000036150E0700312A231C4D463F38C5
:1057E00069625B54857E7770A19A938CBDB6AFA831
:1057F000D9D2CBC4F5EEE7E0110A03FC2D261F1821
:1058000049423B34655E5750817A736C9D968F8810
:10581000B9B2ABA4D5CEC7C0F1EAE3DC0D06FFF800
:1058200029221B14453E3730615A534C7D766F68F0
:1058300099928B84B5AEA7A0D1CAC3BCEDE6DFD8E0
:105840000902FBF4251E1710413A332C5D564F48D0
:1058500079726B64C6BAB1A35033AA5697917D672B
:10586000DC2270B214170008FC7F003F00350113E2
:1058700004B0010100170145A56363C6847C7CF870
:10588000997777EE8D7B7BF60DF2F2FFBD6B6BD6D1
:10589000B16F6FDE54C5C591503030600301010215
:1058A000A96767CE7D2B2B5619FEFEE762D7D7B5C9
:1058B000E6ABAB4D9A7676EC45CACA8F9D82821FC5
:1058C00040C9C989877D7DFA15FAFAEFEB5959B2BB
:1058D000C947478E0BF0F0FBECADAD4167D4D4B3B4
:1058E000FDA2A25FEAAFAF45BF9C9C23F7A4A453DF
:1058F000967272E45BC0C09BC2B7B7751CFDFDE138
:10590000AE93933D6A26264C5A36366C413F3F7E15
:1059100002F7F7F54FCCCC835C343468F4A5A5517D
:1059200034E5E5D108F1F1F9937171E273D8D8ABA0
:10593000533131623F15152A0C04040852C7C7952C
:10594000652323465EC3C39D28181830A196963759
:105950000F05050AB59A9A2F0907070E3612122469
:105960009B80801B3DE2E2DF26EBEBCD6927274ED3
:10597000CDB2B27F9F7575EA1B0909129E83831D04
:10598000742C2C582E1A1A342D1B1B36B26E6EDC5A
:10599000EE5A5AB4FBA0A05BF65252A44D3B3B76A4
:1059A00061D6D6B7CEB3B37D7B2929523EE3E3DD82
:1059B000712F2F5E97848413F55353A668D1D1B904
:1059C000000000002CEDEDC1602020401FFCFCE336
:1059D000C8B1B179ED5B5BB6BE6A6AD446CBCB8DFC
:1059E000D9BEBE674B393972DE4A4A94D44C4C98C2
:1059F000E85858B04ACFCF856BD0D0BB2AEFEFC55F
:105A0000E5AAAA4F16FBFBEDC5434386D74D4D9A39
:105A10005533336694858511CF45458A10F9F9E9E8
:105A200006020204817F7FFEF05050A0443C3C7887
:105A3000BA9F9F25E3A8A84BF35151A2FEA3A35DF3
:105A4000C04040808A8F8F05AD92923FBC9D9D21C2
:105A50004838387004F5F5F1DFBCBC63C1B6B677E1
:105A600075DADAAF63212142301010201AFFFFE50A
:105A70000EF3F3FD6DD2D2BF4CCDCD81140C0C18BA
:105A8000351313262FECECC3E15F5FBEA297973569
:105A9000CC4444883917172E57C4C493F2A7A7558E
:105AA000827E7EFC473D3D7AAC6464C8E75D5DBAAA
:105AB0002B191932957373E6A06060C09881811923
:105AC000D14F4F9E7FDCDCA3662222447E2A2A54DB
:105AD000AB90903B8388880BCA46468C29EEEEC774
