:020000040800F2
:10000000480C002059020008437400083B740008A3
:100010003F740008855B0008457A00080000000076
:10002000000000000000000000000000E174000873
:10003000895B00080000000045740008E3740008B4
:1000400073020008730200087302000873020008BC
:1000500073020008730200087302000873020008AC
:10006000730200087302000873020008730200089C
:10007000730200087302000873020008730200088C
:10008000730200087302000873020008730200087C
:100090002D7800087302000873020008730200083C
:1000A000730200087302000873020008730200085C
:1000B0007302000873020008ED7400087302000860
:1000C000730200087302000873020008730200083C
:1000D000730200081D78000873020008730200080C
:1000E000730200087302000873020008730200081C
:1000F000730200087302000873020008730200080C
:1001000073020008730200087302000873020008FB
:1001100073020008730200087302000873020008EB
:1001200073020008730200087302000873020008DB
:1001300000F002F800F080F80AA090E8000C824479
:100140008344AAF10107DA4501D100F075F8AFF256
:10015000090EBAE80F0013F0010F18BFFB1A43F0A5
:100160000103184778A9000098A900000A444FF03D
:10017000000C10F8013B13F0070408BF10F8014B06
:100180001D1108BF10F8015B641E05D010F8016B4B
:10019000641E01F8016BF9D113F0080F1EBF10F8AF
:1001A000014BAD1C0C1B09D16D1E58BF01F801CBD2
:1001B000FAD505E014F8016B01F8016B6D1EF9D555
:1001C0009142D6D37047000000230024002500266A
:1001D000103A28BF78C1FBD8520728BF30C148BFAA
:1001E0000B60704767290AF0E781642903F0B68243
:1001F000752903F0B382782903F0EC82632904F0B7
:100200000680732904F00B80002070471FB59DE81D
:10021000030003F037FD04F0CFFA040000200021B2
:1002200009F0FAFD401C60600020002109F00AFE80
:10023000E0601FBD10B510BD04F0A5FD1146FFF72D
:10024000E5FF08F01FF804F0F9FF03B4FFF7F2FF31
:1002500003BC07F0B1FC000009488047094800478B
:10026000FEE7FEE7FEE7FEE7FEE7FEE7FEE7FEE766
:10027000FEE7FEE704480549054A064B70470000C3
:10028000EB7400083101000848060020480C0020EB
:100290004808002048080020F8B50C461146050023
:1002A0001A4684B0104B1BD068683A2818BF0F4B11
:1002B00016D10D980CB909B112E088B182B10B9F2B
:1002C0000C9E07B966B958B1DDF838C00A9B029098
:1002D000CDF80CC00196009720462C68A047034635
:1002E000184605B0F0BD00BF030001000200010088
:1002F0002DE9FC4104460D46216816464A681F4612
:1003000090478046B8F5803F1DD12368089A39464A
:100310009F682046B8478046B8F5803F13D12368D0
:100320000A9A0999DF682046B8478046B8F5803FA9
:1003300009D129460C980090324625680B9B2E6AFD
:100340002046B047804621680A68204690474046CC
:10035000BDE8F681D50600082CA90008F8B5CAB09A
:1003600004460D4616461F46094905A800F0C2F985
:100370005399529A0491039200975199509A02917D
:10038000019233462A462146FFF7B2FF4BB0F0BD3B
:10039000540300087FB54FF4807403944FF4A865AC
:1003A000099E089C02950196009400F017FA04B08B
:1003B00070BD000095030008ED080008FB08000868
:1003C00071090008F8B5C6B004460D4616461F462A
:1003D0000A4906A800F04CFC50994F9A05910492E6
:1003E000009733464E994D9A039102922A464C99B2
:1003F0000191214600F020F847B0F0BDB403000899
:10040000F0B5C5B004460D4616461F46094905A875
:1004100000F02EFC4D994C9A0491039200974B9951
:100420004A9A0291019233462A46214600F047F843
:1004300045B0F0BDB40300082DE9F04104460D4677
:10044000216816464A681F4690478046B8F5403FE7
:100450002ED122680A999368204698478046B8F5BD
:10046000403F25D12368089A0799D3F80CC020464D
:10047000E0478046B8F5403F1AD12368069A3946CE
:100480001F692046B8478046B8F5403F10D1236821
:1004900029465D6932462046A8478046B8F5403F68
:1004A00006D123680B9A09999D692046A847804682
:1004B00021680A68204690474046BDE8F0812DE952
:1004C000F04104460D46216816464A681F4690478B
:1004D0008046B8F5403F2ED122680A99936820469D
:1004E00098478046B8F5403F25D12368089A079978
:1004F000D3F80CC02046E0478046B8F5403F1AD1FB
:100500002368069A39461F692046B8478046B8F5E1
:10051000403F10D1236829465D6932462046A847EE
:100520008046B8F5403F06D123680999DD6900226D
:100530002046A847804621680A68204690474046E2
:10054000BDE8F081F0B50C4685B0114600281A468A
:100550001CBF0568002D0B4B11D082B104B971B9D5
:100560000D9860B10F9E0E9F0A9B02900496039710
:100570000B980C9E009001962046A847034618460B
:1005800005B0F0BD0200030010B500F0ABF84FF469
:10059000803400280EBF034C4FF48A7103F0E2FA56
:1005A000204610BD0300010010B5040001D105482C
:1005B00010BD00F097F800F108012046BDE810409A
:1005C00000F0B2BB0300010038B50C46154608B96F
:1005D000054832BD00F086F82A462146BDE838407D
:1005E000083000F0A9BB00BF030001007CB5040087
:1005F0000D46164602D000F075F808B9074876BDDA
:10060000102E0CBF012100210091334600F58271AC
:100610002A46204600F074FD76BD00BF03000100AD
:100620002DE9F84F044688B020798B46C1079046E3
:10063000994658BF254845D5204600F053F8054651
:10064000287C00F00500052818BF21483AD1129FE8
:100650000FB100203860002611E01DF801001BF8E2
:100660000230584009F8020017B13A68521C3A604B
:10067000491C514502D28A199045EED210364645A2
:100680001AD2AB68D3F800C0A8EB060ABAF1100F73
:1006900088BF4FF0100A04AA05F5827105F1080021
:1006A000E047D5F81001401CC5F81001694604A8C0
:1006B00000F056FD0021DCE7B0453CBF0020606043
:1006C0004FF4803009B0BDE8F08F00BF0300010097
:1006D0000400010010B1024A02608160704700BF4F
:1006E000F8A800080168024A914218BF002070472C
:1006F000F8A800080A46536812681968104730B510
:1007000003460A4600201AB1120A401C0428FAD3F4
:1007100000B90120012205E0841AE40021FA04F561
:100720009D54521C9042F7D21870401C30BD30B519
:1007300003460A4600201AB1120A401C0428FAD3C4
:1007400000B90120012207E0841AE40021FA04F52F
:100750009C18521C04F8015C9042F5D21854401CBD
:1007600030BD70B500F1D804A568012D04BF236821
:10077000002B01D0012070BD02F007032360D208D6
:1007800033B101268D5C06FA03F35B1E1D40257113
:10079000BDE8704000F015BD70B504460D46D4F8B4
:1007A000E0000328164605D1F21DD208204600F0CD
:1007B000B5FD08B1012070BD16F0070F0CD0F1088F
:1007C000012306F007066A5C03FA06F6701E024073
:1007D0006A540221C4F8E010002070BD2DE9F047F2
:1007E000B4B014463E9E3F9A894680461F46314625
:1007F00000F0CDFC08F1CC050020E8602874AF6063
:1008000001206861F60831466846FFF778FF024626
:100810006946404600F0D5FC00285FD1202168469B
:10082000FFF76DFF02466946404600F0CAFC00280B
:1008300054D104222C49404600F0C3FC00284DD17D
:10084000DDF8F4A051466846FFF759FF02466946B5
:10085000404600F0B6FC002840D10AF107003C9960
:10086000C208404600F0ADFC002837D1286850B1DE
:10087000711E296000208DF8000001226946404663
:1008800000F09FFC50BBAF61314602A8FFF737FF75
:10089000074602A821463844FFF731FFC719FA007E
:1008A00002A94046FFF75DFFC0B9E41DE4084946D0
:1008B000E2004046FFF755FF80B9E419B4FBF6F0BB
:1008C00006FB104464B1341B214602A803F04AF928
:1008D000E20002A94046FFF744FF10B1012000E00A
:1008E000002034B0BDE8F087380C000812F0070F84
:1008F00008BFFFF736BF012070472DE9FF410646CC
:1009000006F1D4078846396901A8FFF710FFC20035
:1009100001A93046FFF725FF040025D1F86801281A
:1009200021D17868397A04228240114389B20D0AB4
:1009300008D08DF8001001226946304600F041FCD5
:1009400088B92946C9B2304600F082FC58B9032064
:10095000F8603A6842B141463046FFF71DFF10B9D2
:100960000220F86000E00124204604B0BDE8F081D8
:100970002DE9F04F804608F1D40491B08A462169F0
:10098000934606A8FFF7D3FEC20006A94046FFF72C
:10099000E8FE002870D13A4DDFF8E8900495CDF8D4
:1009A000149004AEE068012863D16068217A0422C3
:1009B0008240114389B20F0A09D08DF8001001223C
:1009C0006946404600F0FDFB002852D13946C9B2C5
:1009D000404600F03DFC00284BD120680321002850
:1009E000E16048D0CDF820800020D0464FF48077D9
:1009F000824637E0A1EBCA010091019105E0A0EB2E
:100A00000A002028F6D30097019709A9009A0898B0
:100A1000FFF7C2FE68BB1C48009B01990268009268
:100A2000CDF80CB00295CDF80490DB0808EB0A0273
:100A3000C90809A800F0A0FD144A306005AE04986A
:100A40000599049B084010400B4342F69102134065
:100A5000184340F48C4040F002004FF0000B04902B
:100A60000AF1200A2168C8088245C8D30220E06044
:100A700001E007490491049811B0BDE8F08F00BF70
:100A8000936E030026C70300C0A900082481FFFF5E
:100A90000100030010B500F0E3F84FF440340028E3
:100AA0000EBF034C4FF4807103F05CF8204610BD7C
:100AB0000200030010B5044600F0D2F808B904485B
:100AC00010BD0021A160C16001614FF4403010BD34
:100AD0000200030070B504460D4600F0C1F8064E52
:100AE00040B1042D06D3A068656040F00200A0600C
:100AF0004FF44036304670BD020003002DE9FC4142
:100B000005460E46287A8107174658BF4FF003184E
:100B10001CD5284600F0A4F80400DFF8388015D072
:100B20002069C000019004F11400E1680091314691
:100B3000D4F8FC406B682668DB00FA00B04728B99F
:100B4000A86840F00100A8604FF440384046BDE876
:100B5000F68100BF0200030070B50C46017A15460D
:100B6000CA0758BF4FF003160FD500F079F80300FD
:100B7000074E0AD003F11400D3F8FC3021465C681C
:100B8000EA00A04708B94FF44036304670BD00BFB8
:100B90000200030070B505460E46287AC1071446C8
:100BA0000FD5284600F05CF802000AD00CB10020F6
:100BB000206002F11400D2F8FC2093683146984777
:100BC00008B1044870BD0CB1686820604FF4403033
:100BD00070BD00BF0200030070B50C46017A094EDB
:100BE0001546CA070CD500F03BF8030008D003F106
:100BF0001400D3F8FC302146DC682A46A04706469C
:100C0000304670BD0200030070B50D461446094E13
:100C100070B105B964B9017ACA0748BF4FF003162D
:100C200006D400F01DF818B1C56004614FF44036D9
:100C3000304670BD020003004B4D414300000000F0
:100C4000950A0008B50A0008D50A0008090C000832
:100C5000FD0A0008590B0008950B0008D90B000885
:100C60000168024A914218BF00207047400C0008FA
:100C700018B1024A0260C0F8FC107047400C00082E
:100C80002DE9FF460022254B51F8224053F822500F
:100C900024BA6C404DF82240521C042AF4D3DFF8E9
:100CA0008090DFF880E00026029A019B039959F8B2
:100CB000264082EA03054D4084EA050C4FEA1C6594
:100CC0001EF805704FEA0C254FEA156A1EF80A5007
:100CD0002D0445EA07654FEA0C473F0E1EF80770E2
:100CE00045EA072582EA03074F407C40E4B21EF83C
:100CF0000440009F029125436F4097EAF54484EA3F
:100D0000752400F10C0100930192039441F82640F0
:100D1000761C202EC8D3BDE8FF8600BFB0A900080E
:100D200030A90008DCA90008002242600120886088
:100D30004FF48030704700002DE9F14F8CB092469F
:100D4000BAF1100FE74AE84BE84DDFF8A483E94E0B
:100D5000DFF8A4B30DF1040C08D0BAF1180F00F0BD
:100D60009280BAF1200F00F01881A8E1DBE90004BD
:100D70000DF1240EE14FCEE90004387800280CBFB5
:100D80004FF000094FF0040956F809405EF8097069
:100D90003C44236001232768A360D6F80090736861
:100DA0008C7B00945F40099C7C40DEF8047087EAED
:100DB000090784F0040487F0FC0E7444009F84F05B
:100DC000520EBE448CF80EE04FF0010E11F80E40AA
:100DD0000CF80E400EF1010EBEF10E0FF6D3DBE95A
:100DE00000470DF1240E0028CEE900470CBF002774
:100DF00004273C46F7595EF80440E4190127C4F87B
:100E000000800028D4F80080A76083EA0808099CC5
:100E10000F7884EA080484F00408DEF8044084EAC9
:100E2000090484F0FC04444484F00B08DBE9004E20
:100E3000B84409AF8DF80480C7E9004E0EBF4FF0EB
:100E4000000E0420864609AC365854F80E00861968
:100E5000356001253068B5604340CE7B09996068F4
:100E60004B4080EA090083F0040380F0FC00034457
:100E700083F085039B198CF80F300C9D287AC107ED
:100E800000F11F811BE1DBE900E909A89B4CC0E9E7
:100E900000E9207800280CBF4FF000094FF004094A
:100EA0000DF1240E56F809405EF809703C442560A7
:100EB00001252768A560D6F8009075688C7B0094A2
:100EC0006F40099C7C40DEF8047087EA090784F0D3
:100ED000040487F0FC0E7444009F84F0850EBE4429
:100EE0008CF80EE04FF0010E11F80E400CF80E4099
:100EF0000EF1010EBEF10E0FF6D3DBE900470DF146
:100F0000240E0028CEE900470CBF002704273C46EA
:100F1000F7595EF80440E419236001232768A360B1
:100F20006F40099B0C785F40DEF8043083EA0903C8
:100F300087F0040783F0FC031F4487F052073F1932
:100F40008DF8047009ACDBE90073C4E90073002874
:100F50000EBF0023042004233658E05886190123CD
:100F6000C6F800803068B3604540099B60685D400A
:100F700080EA090085F0040580F0FC00CE7B054482
:100F800085F00B05AD198CF80F5010200B5C0CF898
:100F90000030401C1828F9D36FE7DBE900E909A805
:100FA000564CC0E900E9207800280CBF4FF000093A
:100FB0004FF004090DF1240E56F809405EF809704F
:100FC0003C44C4F800804FF001082768C4F808804A
:100FD000D6F80090D6F80480CC7F009488EA070702
:100FE000099C7C40DEF8047087EA090784F0040459
:100FF00087F0FC0E7444009F84F00B0EBE448CF806
:101000001FE04FF0000E11F80E400CF80E400EF1EC
:10101000010EBEF1100FF6D3DBE900470DF1240EEF
:101020000028CEE900470CBF002704273C46F759AB
:101030005EF80440E419256001252768A56088EA68
:101040000707099D4C7C6F40DEF8045085EA0905CE
:1010500087F0040785F0FC052F4487F085073F19CA
:101060008CF8117009ADDBE90047C5E9004700289D
:101070000EBF4FF0000B04208346365855F80B0086
:101080008619336001233068B36088EA0000099B49
:101090000E7C584080F00408686880EA090080F0FF
:1010A000FC00404480F05208B0448CF810801220BC
:1010B0000B5C0CF80030401C1F28F9D3DDE610460D
:1010C0000DE02B685E68524601A92846B047A86823
:1010D000C5F804A040F00400A8604FF480300DB0C3
:1010E000BDE8F08F0300010054228EF77D138F2E90
:1010F000A40B0E91C4A90008CCA90008E4050020A7
:1011000030B5039C002C18BF002A01D1094830BD1E
:10111000002404E055592DBA41F82450641CA50060
:101120009D42F7D3416841F0010141604FF48030A6
:1011300030BD00BF030001004FF4803070474FF412
:10114000803070474FF4803070474FF480307047E4
:10115000004870470200010000487047020001008B
:1011600030B5002201EB820350F82240DC7050F8C9
:1011700022502D0A9D7050F82240240C5C7050F8CB
:101180002240521C240E042A1C70EBD330BD38B50B
:101190000C461219B2F5C86F054606D12CB1B4F54C
:1011A000C86F02D814F0070F01D0012032BD00F043
:1011B0005BFA05F1C80000210460416081600020F5
:1011C00032BD2DE9F047804608F1C8063568B068A1
:1011D000ED0810B97068A84201D3012035E0002461
:1011E000894692460EE02B4600224946404600F0D2
:1011F00057FB404602F026F9A944641BAC42F2D2E8
:10120000AAEB040454451FD27268AAEB040022B969
:1012100029198A4528BF0446F0D207464946D01905
:101220008542404638BFAF1A3B4600F039FB706834
:101230003C19B9443F18AF427760E3D1404602F011
:1012400001F900207060DDE70020BDE8F0870000B4
:101250002DE9FC41044604F1C80688463768FF08BA
:101260005FEA080001D0B06808B1012045E0244AD7
:101270002449D2E90030CDE900300878224B00281B
:101280000EBF00210420042101251A585DF8010039
:101290001E4982181160106895605A6800991B6891
:1012A000504041401A48019A80EA010E53401949C2
:1012B00019484B409E4490EA0E010846237818BF17
:1012C00001205840207041467268204600F0DEF947
:1012D0007F1EB8F1800F05D37068B84204BF204666
:1012E00002F0B0F83A468021204600F0CFF92046BF
:1012F00002F0A8F800207060B560BDE8F68100BF7C
:10130000D4A90008E4050020C4A900083FA233AC1A
:1013100004850012FC68017A1D7F42C42DE9F04764
:10132000804608F1C80692463568B2688946ED08DD
:101330002AB90121FFF78CFF08B1012032E0002417
:101340000EE0404602F07EF82B4600224946404619
:1013500000F054FCA944641BAC42F2D2AAEB040492
:1013600054451ED27068A842AAEB040709D1281977
:10137000824528BF3C46EFD2404602F063F8002089
:10138000706049467268D0198542404638BFAF1A2E
:101390003B4600F033FC70683C19B9443F18776055
:1013A000DEE70020BDE8F0872DE9F44D0B46054649
:1013B00083B099685868DA68EE68DFF844811B6882
:1013C00081EA0004544086EA040C4FEA1C674FEAA5
:1013D0000C2418F807E0240E4FF0010A18F80470E6
:1013E0004FEA0C44240E3F0418F8044047EA0E6705
:1013F00047EA042781EA000454406640F6B24FF001
:10140000080B18F80660009537437B404FEAB75C3D
:1014100093EAB7738CEA03034FEA372483EAB733BE
:101420006340009D05EB8A060AF1010AF56882EA2D
:1014300001065E406E40370E18F8074037024FEA4B
:10144000176E360418F80E70360E3F0418F8066052
:1014500047EA046782EA01045C406540EDB21E245D
:1014600018F80550029447EA06272F4378404FEAC0
:10147000B75480EAB770604080EAB73080EA372717
:10148000084611461A46BAF11E0FCDF804B03B4685
:10149000C7D9009C039F0C34E56F82EA01045C40CD
:1014A0006C404FEA042A4FEA1A6A260E240418F800
:1014B0000AC018F80660240E4FEA0C4C18F80440D5
:1014C0004CEA066646EA042482EA01065E4075405C
:1014D000EDB218F805502C43029D64FA05F86040FF
:1014E00088EA00004FEAB43690EAB450704080EACF
:1014F000342038607B60BA60F960BDE8FF8D00BFC2
:10150000DCA90008F8B501240094002300240DE0B4
:10151000009D065D0F5D7E40F643761CF60F86F05B
:10152000010635400095641C009DEB189442EFD3F2
:101530001846F2BDF8B5002301240094002A11E0FA
:10154000009C85188F1815F8016C17F8015C6E4027
:10155000F643761CF60F86F0010634400094009C9A
:10156000E318521EECD11846F2BD00000515000824
:1015700035150008010000002DE9F84F1D46DDF883
:1015800028900B9F0D9C4FF0FF3300930E46924620
:10159000D9F800B0804632465146D847834664B3F6
:1015A000D9F8043032465146404698476FEA0B025C
:1015B000521C42EA0B0200996FEAD2735B1C19407D
:1015C000C2430091521C024300996FEAD2735B1C24
:1015D0001940009186F05531484087EA000181F0BA
:1015E0005531216080F05531C943491C0843009AA8
:1015F0006FEAD070401C82430092D9F8080001289D
:1016000009D17540E943491C0D4300986FEAD57232
:10161000521C90430AE0F11C85EA9102D243521C0D
:10162000154300986FEAD5735B1C984386F0AA3681
:10163000009086EA0B0686F0AA33F243DB430C984F
:10164000C2F3C0725B1C42EAD3720099D243521CAF
:1016500091430091774000998843009987F0AA3719
:101660000F403843BDE8F28F30B400210022002340
:10167000002400253EC03EC03EC03EC03EC03EC02D
:101680003EC03EC03EC03EC030BC7047F0B422F009
:101690000703C01812F007020024002530B46A4482
:1016A000117030BCD0E9006704F0553343EA5303AE
:1016B00003F0333343EA930303F00F3343EA131386
:1016C00003F0FF1363F30F2386EA132605F0553367
:1016D00043EA530303F0333343EA930303F00F3336
:1016E00043EA131303F0FF1343EA132386EA034686
:1016F00004F0AA3343EA430303F0CC3343EA830301
:1017000003F0F03343EA031303F0FF2343EA032318
:1017100087EA134705F0AA3343EA430303F0CC33C7
:1017200043EA830303F0F03343EA031303F0FF2398
:1017300043EA03236FF30F035F40C0E90067F0BC87
:101740007047000051F8044B51F8045BD0E9006782
:1017500004F0553343EA530303F0333343EA93036E
:1017600003F00F3343EA131303F0FF1363F30F2364
:1017700086EA132605F0553343EA530303F0333367
:1017800043EA930303F00F3343EA131303F0FF1309
:1017900043EA132386EA034604F0AA3343EA4303E9
:1017A00003F0CC3343EA830303F0F03343EA03133B
:1017B00003F0FF2343EA032387EA134705F0AA3324
:1017C00043EA430303F0CC3343EA830303F0F033EB
:1017D00043EA031303F0FF2343EA03236FF30F03EA
:1017E0005F40E0E80267521EACD17047002400253C
:1017F00030B46A4411F8015B02F8015B5B1EF9D159
:1018000030BCD0E9006704F0553343EA530303F0DA
:10181000333343EA930303F00F3343EA131303F024
:10182000FF1363F30F2386EA132605F0553343EACB
:10183000530303F0333343EA930303F00F3343EAD4
:10184000131303F0FF1343EA132386EA034604F05D
:10185000AA3343EA430303F0CC3343EA830303F0A0
:10186000F03343EA031303F0FF2343EA032387EA39
:10187000134705F0AA3343EA430303F0CC3343EAAA
:10188000830303F0F03343EA031303F0FF2343EA37
:1018900003236FF30F035F40E0E802677047000027
:1018A00003B32DE9F04122F00704001912F00702FA
:1018B0000BD01C00C2F10805AC4200DD2C00A3EBEC
:1018C00004082300FFF792FF4346DA0804D0984645
:1018D000FFF738FF08F0070313B10022FFF786FF78
:1018E000BDE8F081704700000024002530B44FEAC5
:1018F00082076A440F26BE4037003E433F0111F87D
:10190000015B5B1E02F8015BF7D130BC04F0553778
:1019100047EA570707F0333747EA970707F00F37CB
:1019200047EA171707F0FF1767F30F274FEA172249
:1019300005F0553747EA570707F0333747EA970767
:1019400007F00F3747EA171707F0FF1747EA17277F
:1019500082EA074204F0AA3747EA470707F0CC3784
:1019600047EA870707F0F03747EA071707F0FF272E
:1019700047EA07274FEA174305F0AA3747EA470720
:1019800007F0CC3747EA870707F0F03747EA071731
:1019900007F0FF2747EA07276FF30F077B40D0E9DF
:1019A0000045B443B54322432B43E0E8022370478C
:1019B00051F8044B51F8045BD0E9006704F055334B
:1019C00043EA530303F0333343EA930303F00F3343
:1019D00043EA131303F0FF1363F30F234FEA1326B5
:1019E00005F0553343EA530303F0333343EA9303DB
:1019F00003F00F3343EA131303F0FF1343EA1323F7
:101A000086EA034604F0AA3343EA430303F0CC33E7
:101A100043EA830303F0F03343EA031303F0FF23A5
:101A200043EA03234FEA134705F0AA3343EA43038B
:101A300003F0CC3343EA830303F0F03343EA0313A8
:101A400003F0FF2343EA03236FF30F035F40E0E853
:101A50000267521EACD1704703B32DE9F04122F06A
:101A60000704001912F007020BD01C00C2F1080590
:101A7000AC4200DD2C00A3EB04082300FFF734FF89
:101A80004346DA0804D09846FFF792FF08F00703B0
:101A900013B10022FFF728FFBDE8F0817047000076
:101AA00030B4CA0805D000240025E0E80245521EE3
:101AB000FBD111F007010AD00F231A431B01491E65
:101AC000FBD1D0E9004594439543E0E8024530BCA2
:101AD00070470000F0E80245230065F31F446FF3F0
:101AE0000F0545EA134584EA142303F47F435C4061
:101AF00084EA032484EA141303F0F0135C4084EABC
:101B0000031484EA940303F00C335C4084EA8304F6
:101B100084EA540303F022335C4084EA430485EAF8
:101B2000152303F47F435D4085EA032585EA1513F9
:101B300003F0F0135D4085EA031585EA950303F091
:101B40000C335D4085EA830585EA550303F02233B3
:101B50005D4085EA430541F8044B521E41F8045BA1
:101B6000B8D17047F0E80245260065F31F446FF3D3
:101B70000F0545EA164584EA142606F47F467440AC
:101B800084EA062484EA141606F0F016744084EA07
:101B9000061484EA940606F00C36744084EA86043F
:101BA00084EA540606F02236744084EA460485EA44
:101BB000152606F47F46754085EA062585EA151642
:101BC00006F0F016754085EA061585EA950606F0DA
:101BD0000C36754085EA860585EA550606F02236FC
:101BE000754085EA460530B46A4412F8014B5B1E25
:101BF00001F8014BF9D102B07047000003B32DE9A1
:101C0000F04122F00704001912F007020BD01C006B
:101C1000C2F10805AC4200DD2C00A3EB0408230050
:101C2000FFF7A0FF4346DA0804D09846FFF752FFBB
:101C300008F0070313B10022FFF794FFBDE8F0811D
:101C400070470000F0E80245230065F31F446FF37E
:101C50000F0545EA134584EA142303F47F435C40EF
:101C600084EA032484EA141303F0F0135C4084EA4A
:101C7000031484EA940303F00C335C4084EA830485
:101C800084EA540303F022335C4084EA430485EA87
:101C9000152303F47F435D4085EA032585EA151388
:101CA00003F0F0135D4085EA031585EA950303F020
:101CB0000C335D4085EA830585EA550303F0223342
:101CC0005D4085EA430551F8043B5C4049F8044B0C
:101CD00051F8043B5D40521E49F8045BB2D1704795
:101CE000F0E80245260065F31F446FF30F0545EA4F
:101CF000164584EA142606F47F46744084EA0624D6
:101D000084EA141606F0F016744084EA061484EA95
:101D1000940606F00C36744084EA860484EA54067D
:101D200006F02236744084EA460485EA152606F455
:101D30007F46754085EA062585EA151606F0F016F9
:101D4000754085EA061585EA950606F00C3675405D
:101D500085EA860585EA550606F02236754085EA4D
:101D6000460530B46A4412F8014B11F8015B6C402F
:101D70005B1E09F8014BF6D102B070472DE9F04720
:101D800091461A46089BE3B122F00704001912F0AD
:101D900007020BD01C00C2F10805AC4200DD2C008C
:101DA000A3EB04082300FFF79BFF4346DA0804D0A7
:101DB0009846FFF747FF08F0070313B10022FFF72B
:101DC0008FFFBDE8F08700002DE9F05F86B0059138
:101DD000036A816C4B40016F4B40D0F898104B4028
:101DE000D0F8C0104B40C768416B4F40C16D4F40A9
:101DF000D0F884104F40D0F8AC104F4083EAF7760B
:101E00000096466AC16C4E40416F4E40D0F89C101F
:101E10004E40D0F8C4104E40D0F808E0016B9EEA66
:101E2000010E816D9EEA010ED0F880109EEA010E2F
:101E3000D0F8A8109EEA010E96EA0E08CDF80480AC
:101E40000569816B4D40016E4D40D0F888104D40C2
:101E5000D0F8B0104D4085EAF679CDF80890446985
:101E6000C16B4C40416E4C40D0F88C104C40D0F8C7
:101E7000B4104C40634003930368816A4B40016D8A
:101E80004B40816F4B40D0F8A0104B4083EAF47A6E
:101E90004668C16A4E40416D4E40C16F4E40D0F819
:101EA000A4104E4096EA050BC469416C4C40C16ECB
:101EB0004C40D0F894104C40D0F8BC104C408EEA06
:101EC000F47504958569016C4D40816E4D40D0F8E4
:101ED00090104D40D0F8B8104D4097EA050285EAC1
:101EE000F67C94EA030E456DD0F88460D0F8B470A7
:101EF0008369846C95EA0805574096EA0B0693EAD5
:101F0000090394EA0C045FEAB5755FEA76265FEA96
:101F100077075FEAB3435FEAB45425EA0401594006
:101F2000416526EA05016140C0F8841027EA0601F0
:101F30006940C0F8B41023EA07017140816124EAC6
:101F4000030179408164D0F8A4708368C46B856E06
:101F5000D0F89C6097EA0807544093EA0A0395EA90
:101F6000090596EA0E065FEAF7575FEA74745FEABE
:101F700035555FEA367625EA04015940C0F8A410C9
:101F800026EA05016140816027EA06016940C163D4
:101F900023EA07017140816624EA03017940C0F811
:101FA0009C10DDF80080846A856DD0F88C60D0F8D4
:101FB000B870436A94EA0804564095EA0A0597EA1D
:101FC000090793EA0E035FEAB4345FEAF5655FEA56
:101FD00036665FEA37175FEAB34325EA04015940E2
:101FE000816226EA05016140816527EA06016940B0
:101FF000C0F88C1023EA07017140C0F8B81024EA39
:10200000030179404162866FD0F8AC704369046C7B
:10201000056F96EA0806534097EA0B0794EA09040D
:1020200095EA0C055FEA36365FEAF7775FEA7303F5
:102030005FEA74145FEA753525EA04015940816747
:1020400026EA05016140C0F8AC1027EA06016940A4
:10205000416123EA07017140016424EA03017940E8
:102060000167DDF80C900368046B456ED0F894604E
:10207000D0F8C07093EA0803554094EA0A0496EA3F
:10208000090697EA0C075FEAB4245FEAB5255FEA20
:1020900076565FEA776726EA05016140016327EA21
:1020A00006016940416623EA07017140C0F89410B7
:1020B00024EA03017940C0F8C0100599A5430C68D3
:1020C0006B4063400360049A056DD0F88060D0F8DF
:1020D000B070C369C46C95EA0805574096EA0A06D1
:1020E00093EA090394EA0E045FEAF5755FEAB626FF
:1020F0005FEAB7075FEAB3435FEAB45425EA040135
:102100005940016526EA05016140C0F8801027EAC0
:1021100006016940C0F8B01023EA07017140C161AF
:1021200024EA03017940C164D0F8A070C368846BCD
:10213000C56ED0F8986097EA0807544093EA0B03FD
:1021400095EA090596EA0C065FEAF7575FEAF3732A
:102150005FEA74745FEAF5455FEA367625EA0401C2
:102160005940C0F8A01026EA05016140C16027EA85
:1021700006016940816323EA07017140C16624EAD0
:1021800003017940C0F89810DDF80480C46AC56D79
:10219000D0F88860D0F8BC70036A94EA080456400E
:1021A00095EA0B0597EA090793EA0C035FEAB43452
:1021B0005FEAF5655FEA76665FEA37175FEAF34341
:1021C00025EA04015940C16226EA05016140C16562
:1021D00027EA06016940C0F8881023EA0701714028
:1021E000C0F8BC1024EA030179400162C66FD0F840
:1021F000A8700369446C456F96EA0806534097EA55
:102200000A0794EA090495EA0E055FEAF6265FEAF2
:10221000F7775FEA73035FEA34145FEA353525EA3E
:1022200004015940C16726EA05016140C0F8A810C1
:1022300027EA06016940016123EA07017140416410
:1022400024EA030179404167DDF808904368446B54
:10225000056ED0F89060D0F8C47093EA080355403A
:1022600094EA0B0496EA090697EA0E075FEAB4249B
:102270005FEAF5255FEAB6565FEA776726EA050169
:102280006140416327EA06016940016623EA0701CC
:102290007140C0F8901024EA03017940C0F8C410DE
:1022A0000599A5434C686B4063404360D0F8C0304B
:1022B000816C4B40D0F898104B40416A4B40416FC5
:1022C0004B40476BD0F880104F4081684F40C16D44
:1022D0004F40D0F8AC104F4083EAF7760096D0F824
:1022E000C460C16C4E40D0F89C104E40016A4E4014
:1022F000016F4E40D0F830E0D0F884109EEA010E15
:10230000C1689EEA010E816D9EEA010ED0F8A81008
:102310009EEA010E96EA0E08CDF80480456ED0F8CC
:10232000B4104D40816B4D40D0F88C104D40016988
:102330004D4085EAF679CDF80890046ED0F8B010DB
:102340004C40C16B4C40D0F888104C4041694C4027
:10235000634003930368416D4B40D0F8A0104B409D
:10236000816A4B40C16F4B4083EAF47A4668016D45
:102370004E40D0F8A4104E40C16A4E40816F4E408E
:1023800096EA050BD0F89040C1694C40816E4C40F4
:10239000D0F8BC104C40016C4C408EEAF4750495AA
:1023A000D0F8945081694D40C16E4D40D0F8B810BE
:1023B0004D40416C4D4097EA050285EAF67C94EA6F
:1023C000030ED0F8A450C66D4769D0F89430846CE1
:1023D00095EA0805574096EA0B0693EA090394EA42
:1023E0000C045FEAB5755FEA76265FEA77075FEA75
:1023F000B3435FEAB45425EA04015940C0F8A4107D
:1024000026EA05016140C16527EA0601694041618C
:1024100023EA07017140C0F8941024EA03017940CF
:102420008164876F036BD0F8B040C56E066A97EA87
:102430000807544093EA0A0395EA090596EA0E064E
:102440005FEAF7575FEA74745FEA35555FEA3676FC
:1024500025EA04015940816726EA050161400163CC
:1024600027EA06016940C0F8B01023EA070171406D
:10247000C16624EA030179400162DDF80080446D01
:10248000C568D0F88860476CD0F8C43094EA080476
:10249000564095EA0A0597EA090793EA0E035FEAB0
:1024A000B4345FEAF5655FEA36665FEA37175FEADC
:1024B000B34325EA04015940416526EA050161401C
:1024C000C16027EA06016940C0F8881023EA0701C5
:1024D0007140416424EA03017940C0F8C410866A5F
:1024E000D0F8AC70036E8469D0F8985096EA08066C
:1024F000534097EA0B0794EA090495EA0C055FEA52
:1025000036365FEAF7775FEA73035FEA74145FEACF
:10251000753525EA04015940816226EA05016140CA
:10252000C0F8AC1027EA06016940016623EA0701FA
:102530007140816124EA03017940C0F89810DDF808
:102540000C900368D0F88440C56BD0F8BC60476F2E
:1025500093EA0803554094EA0A0496EA090697EAC2
:102560000C075FEAB4245FEAB5255FEA76565FEAB6
:10257000776726EA05016140C0F8841027EA060162
:102580006940C16323EA07017140C0F8BC1024EA26
:102590000301794041670599A5438C686B4063400E
:1025A0000360049AD0F8A050866D0769D0F8903087
:1025B000C46C95EA0805574096EA0A0693EA0903AF
:1025C00094EA0E045FEAF5755FEAB6265FEAB7079C
:1025D0005FEAB3435FEAB45425EA04015940C0F806
:1025E000A01026EA05016140816527EA06016940DD
:1025F000016123EA07017140C0F8901024EA030149
:102600007940C164C76F436BD0F8B440856E466AA9
:1026100097EA0807544093EA0B0395EA090596EAFE
:102620000C065FEAF7575FEAF3735FEA74745FEAD8
:10263000F5455FEA367625EA04015940C16726EA86
:1026400005016140416327EA06016940C0F8B41002
:1026500023EA07017140816624EA0301794041625F
:10266000DDF80480046D8568D0F88C60076CD0F8C4
:10267000C03094EA0804564095EA0B0597EA09072A
:1026800093EA0C035FEAB4345FEAF5655FEA7666C5
:102690005FEA37175FEAF34325EA04015940016511
:1026A00026EA05016140816027EA06016940C0F819
:1026B0008C1023EA07017140016424EA0301794088
:1026C000C0F8C010C66AD0F8A870436EC469D0F8CC
:1026D0009C5096EA0806534097EA0A0794EA0904D0
:1026E00095EA0E055FEAF6265FEAF7775FEA73037D
:1026F0005FEA34145FEA353525EA04015940C162C6
:1027000026EA05016140C0F8A81027EA06016940E1
:10271000416623EA07017140C16124EA030179405F
:10272000C0F89C10DDF808904368D0F88040856BB5
:10273000D0F8B860076F93EA0803554094EA0B0499
:1027400096EA090697EA0E075FEAB4245FEAF525E0
:102750005FEAB6565FEA776726EA05016140C0F88E
:10276000801027EA06016940816323EA070171406E
:10277000C0F8B81024EA0301794001670599A54320
:10278000CC686B4063404360436F816C4B40416A4F
:102790004B40D0F8C4104B40D0F89C104B40D0F8C0
:1027A0008070816D4F40016B4F4081684F40D0F881
:1027B000AC104F4083EAF7760096066FC16C4E402E
:1027C000016A4E40D0F8C0104E40D0F898104E40EC
:1027D000D0F884E0C16D9EEA010E416B9EEA010EC5
:1027E000C1689EEA010ED0F8A8109EEA010E96EA92
:1027F0000E08CDF80480C56B41694D40D0F8B41087
:102800004D40D0F888104D40416E4D4085EAF67934
:10281000CDF80890846B01694C40D0F8B0104C4062
:10282000D0F88C104C40016E4C4063400393036819
:10283000D0F8A4104B40C16F4B40416D4B40C16A72
:102840004B4083EAF47A4668D0F8A0104E40816F7E
:102850004E40016D4E40816A4E4096EA050BD0F81D
:10286000B840D0F890104C40C16E4C40016C4C40C8
:1028700081694C408EEAF4750495D0F8BC50D0F8CC
:1028800094104D40816E4D40416C4D40C1694D40AA
:1028900097EA050285EAF67C94EA030E856F86685E
:1028A000076ED0F8BC30846C95EA0805574096EA6C
:1028B0000B0693EA090394EA0C045FEAB5755FEA34
:1028C00076265FEA77075FEAB3435FEAB45425EA06
:1028D00004015940816726EA05016140816027EAC9
:1028E00006016940016623EA07017140C0F8BC1087
:1028F00024EA030179408164876AD0F8843004694E
:10290000856ED0F8C06097EA0807544093EA0A033E
:1029100095EA090596EA0E065FEAF7575FEA7474CE
:102920005FEA35555FEA367625EA0401594081624F
:1029300026EA05016140C0F8841027EA06016940D3
:10294000016123EA07017140816624EA03017940AD
:10295000C0F8C010DDF80080D0F8A440456BD0F876
:102960008C60C769036F94EA0804564095EA0A052B
:1029700097EA090793EA0E035FEAB4345FEAF56564
:102980005FEA36665FEA37175FEAB34325EA040178
:102990005940C0F8A41026EA05016140416327EAC6
:1029A00006016940C0F88C1023EA07017140C1613B
:1029B00024EA030179400167466DD0F8AC70836B5F
:1029C000D0F89440456A96EA0806534097EA0B0708
:1029D00094EA090495EA0C055FEA36365FEAF77770
:1029E0005FEA73035FEA74145FEA753525EA040150
:1029F0005940416526EA05016140C0F8AC1027EA5C
:102A000006016940816323EA07017140C0F8941010
:102A100024EA030179404162DDF80C900368C46D3B
:102A2000D0F8B050066CD0F89C7093EA080355407B
:102A300094EA0A0496EA090697EA0C075FEAB424C6
:102A40005FEAB5255FEA76565FEA776726EA050111
:102A50006140C16527EA06016940C0F8B01023EA69
:102A600007017140016424EA03017940C0F89C1019
:102A70000599A5430C696B4063400360049AC56FD8
:102A8000C668476ED0F8B830C46C95EA0805574060
:102A900096EA0A0693EA090394EA0E045FEAF575DA
:102AA0005FEAB6265FEAB7075FEAB3435FEAB4546A
:102AB00025EA04015940C16726EA05016140C16069
:102AC00027EA06016940416623EA07017140C0F820
:102AD000B81024EA03017940C164C76AD0F8803095
:102AE0004469C56ED0F8C46097EA0807544093EA79
:102AF0000B0395EA090596EA0C065FEAF7575FEAC9
:102B0000F3735FEA74745FEAF5455FEA367625EAA7
:102B100004015940C16226EA05016140C0F88010F5
:102B200027EA06016940416123EA07017140C16655
:102B300024EA03017940C0F8C410DDF80480D0F81D
:102B4000A040056BD0F888608769436F94EA080459
:102B5000564095EA0B0597EA090793EA0C035FEAEA
:102B6000B4345FEAF5655FEA76665FEA37175FEAD5
:102B7000F34325EA04015940C0F8A01026EA0501F4
:102B80006140016327EA06016940C0F8881023EA22
:102B900007017140816124EA030179404167066DB4
:102BA000D0F8A870C36BD0F89040056A96EA080682
:102BB000534097EA0A0794EA090495EA0E055FEA8A
:102BC000F6265FEAF7775FEA73035FEA34145FEA99
:102BD000353525EA04015940016526EA05016140C1
:102BE000C0F8A81027EA06016940C16323EA07017B
:102BF0007140C0F8901024EA030179400162DDF8C9
:102C000008904368846DD0F8B450466CD0F8987042
:102C100093EA0803554094EA0B0496EA090697EAFA
:102C20000E075FEAB4245FEAF5255FEAB6565FEA6D
:102C3000776726EA05016140816527EA0601694058
:102C4000C0F8B41023EA07017140416424EA03018B
:102C50007940C0F898100599A5434C696B406340D2
:102C60004360D0F89C30816C4B40D0F8C4104B408E
:102C7000016F4B40016A4B40876DC1684F40D0F8EF
:102C800084104F40016B4F40D0F8AC104F4083EAA6
:102C9000F7760096D0F89860C16C4E40D0F8C0101E
:102CA0004E40416F4E40416A4E40D0F85CE0816832
:102CB0009EEA010ED0F880109EEA010E416B9EEA5A
:102CC000010ED0F8A8109EEA010E96EA0E08CDF883
:102CD0000480D0F8B050016E4D4041694D40D0F8AD
:102CE0008C104D40C16B4D4085EAF679CDF80890C7
:102CF000D0F8B440416E4C4001694C40D0F8881087
:102D00004C40816B4C40634003930368816F4B40A0
:102D1000C16A4B40D0F8A4104B40016D4B4083EA90
:102D2000F47A4668C16F4E40816A4E40D0F8A010D8
:102D30004E40416D4E4096EA050B446CD0F8B810F9
:102D40004C40816E4C4081694C40D0F894104C400E
:102D50008EEAF4750495056CD0F8BC104D40C16E38
:102D60004D40C1694D40D0F890104D4097EA0502A2
:102D700085EAF67C94EA030E856A066B876B036C22
:102D8000846C95EA0805574096EA0B0693EA090316
:102D900094EA0C045FEAB5755FEA76265FEA770786
:102DA0005FEAB3435FEAB45425EA04015940816203
:102DB00026EA05016140016327EA06016940816353
:102DC00023EA07017140016424EA03017940816428
:102DD000476DC36D446EC56E466F97EA0807544051
:102DE00093EA0A0395EA090596EA0E065FEAF757A1
:102DF0005FEA74745FEA35555FEA367625EA0401C6
:102E00005940416526EA05016140C16527EA06018E
:102E10006940416623EA07017140C16624EA030163
:102E200079404167DDF80080846FD0F88050D0F899
:102E30008860D0F89070D0F8983094EA0804564032
:102E400095EA0A0597EA090793EA0E035FEAB434A4
:102E50005FEAF5655FEA36665FEA37175FEAB34314
:102E600025EA04015940816726EA05016140C0F85E
:102E7000801027EA06016940C0F8881023EA07019C
:102E80007140C0F8901024EA03017940C0F898100E
:102E9000D0F8A460D0F8AC70D0F8B430D0F8BC4012
:102EA000D0F8C45096EA0806534097EA0B0794EA14
:102EB000090495EA0C055FEA36365FEAF7775FEAC0
:102EC00073035FEA74145FEA753525EA040159401B
:102ED000C0F8A41026EA05016140C0F8AC1027EA4A
:102EE00006016940C0F8B41023EA07017140C0F838
:102EF000BC1024EA03017940C0F8C410DDF80C903E
:102F00000368846805698669076A93EA080355407F
:102F100094EA0A0496EA090697EA0C075FEAB424E1
:102F20005FEAB5255FEA76565FEA776726EA05012C
:102F30006140816027EA06016940016123EA0701D7
:102F40007140816124EA0301794001620599A5433A
:102F50008C696B4063400360049AC56A466BC76B1B
:102F6000436CC46C95EA0805574096EA0A0693EA52
:102F7000090394EA0E045FEAF5755FEAB6265FEA94
:102F8000B7075FEAB3435FEAB45425EA0401594046
:102F9000C16226EA05016140416327EA06016940F2
:102FA000C16323EA07017140416424EA03017940C7
:102FB000C164076D836D046E856E066F97EA08071E
:102FC000544093EA0B0395EA090596EA0C065FEA7A
:102FD000F7575FEAF3735FEA74745FEAF5455FEAF7
:102FE000367625EA04015940016526EA050161406B
:102FF000816527EA06016940016623EA07017140FD
:10300000816624EA030179400167DDF80480C46F1A
:10301000D0F88450D0F88C60D0F89470D0F89C3000
:1030200094EA0804564095EA0B0597EA090793EAE3
:103030000C035FEAB4345FEAF5655FEA76665FEA3F
:1030400037175FEAF34325EA04015940C16726EACE
:1030500005016140C0F8841027EA06016940C0F804
:103060008C1023EA07017140C0F8941024EA030190
:103070007940C0F89C10D0F8A060D0F8A870D0F8C3
:10308000B030D0F8B840D0F8C05096EA08065340A7
:1030900097EA0A0794EA090495EA0E055FEAF6261C
:1030A0005FEAF7775FEA73035FEA34145FEA353566
:1030B00025EA04015940C0F8A01026EA0501614044
:1030C000C0F8A81027EA06016940C0F8B01023EA4A
:1030D00007017140C0F8B81024EA03017940C0F834
:1030E000C010DDF808904368C4684569C669476A3E
:1030F00093EA0803554094EA0B0496EA090697EA16
:103100000E075FEAB4245FEAF5255FEAB6565FEA88
:10311000776726EA05016140C16027EA0601694038
:10312000416123EA07017140C16124EA030179404A
:1031300041620599A543CC696B40634051F8204F2B
:103140000591FF2C43607EF443AE06B0BDE8F09FCE
:103150008B0705D1CA000FF2B431891AFEF734BECD
:103160002DE9F05F86B08A0852010FF28031891A8A
:1031700005915B0079D2836AC46A026D416DC262B7
:103180008162D0F8A020D0F8A41002654165826F5A
:10319000C16FC0F8A420C0F8A0108367C46783681B
:1031A000C468026B416B8260C160D0F88020D0F8A7
:1031B000841042630163826DC16DC0F88020C0F845
:1031C0008410C365846503694469026E416E42617F
:1031D0000161826BC16B02664166D0F8B020D0F805
:1031E000B410C2638163C0F8B030C0F8B440D0F806
:1031F0008830D0F88C40C0F88C30C0F888408369A3
:10320000C469D0F89020D0F89410C2618161D0F8E0
:10321000B820D0F8BC10C0F89020C0F89410026C10
:10322000416CC0F8BC20C0F8B81003644464836EDD
:10323000C46EC3668466036A446AD0F8C020D0F8BE
:10324000C41002624162026F416FC0F8C420C0F82E
:10325000C010D0F89820D0F89C1002674167C0F8E1
:103260009C30C0F89840FFF7FCBC79D5836AC46AEB
:10327000826FC16F8262C162D0F8A020D0F8A41022
:10328000C2678167026D416DC0F8A020C0F8A4102C
:10329000436504658368C468826DC16DC2608160E6
:1032A000D0F88020D0F884108265C165026B416B34
:1032B000C0F88420C0F88010036344630369446944
:1032C000D0F8B020D0F8B41002614161826BC16BBC
:1032D000C0F8B420C0F8B010026E416E8263C163C2
:1032E00043660466D0F88830D0F88C40C0F88C3043
:1032F000C0F888408369C469026C416C8261C16115
:10330000D0F8B820D0F8BC1042640164D0F8902006
:10331000D0F89410C0F8B820C0F8BC10C0F89430B1
:10332000C0F89040836EC46EC3668466036A446AC4
:10333000D0F89820D0F89C1042620162026F416F71
:10334000C0F89820C0F89C10D0F8C020D0F8C41065
:1033500042670167C0F8C030C0F8C440FEF7A6BF9E
:10336000836AC46AD0F8A020D0F8A410C262816237
:10337000C0F8A430C0F8A040036D446D826FC16FE7
:1033800042650165C36784678368C468D0F880209C
:10339000D0F88410C2608160C0F88430C0F88040EA
:1033A000036B446B826DC16D42630163C3658465C9
:1033B00003694469826BC16B42610161C3638463C9
:1033C000036E446ED0F8B020D0F8B41042660166A7
:1033D000C0F8B430C0F8B0408369C469D0F8B820F0
:1033E000D0F8BC10C2618161C0F8BC30C0F8B840F0
:1033F000036C446CD0F89020D0F8941042640164BF
:10340000C0F89430C0F89040036A446A026F416F7C
:103410004262016243670467D0F89830D0F89C405C
:10342000D0F8C020D0F8C410C0F89C20C0F8981084
:10343000C0F8C430C0F8C040FFF7A6B90FF26C0165
:10344000FEF7C2BC0FF20401FEF7BEBC0100000093
:1034500000000000000000008900000000000000E3
:103460008B000080000000008080008001000000D0
:103470008B0000000100000000800000010000003F
:1034800088800080010000008200008000000000B1
:103490000B000000000000000A0000000100000016
:1034A0008280000000000000038000000100000096
:1034B0008B800000010000000B0000800100000074
:1034C0008A000080010000008100008000000000F0
:1034D0008100008000000000080000800000000063
:1034E0008300000000000000038000800100000055
:1034F000888000800000000088000080010000003B
:10350000008000000000000082800080FF000000BA
:10351000704770B5064600F099FB056806F10B0090
:1035200020F00704B4429CBF002070BD2B466A689F
:10353000BAB11068A04210D304F1080188423CBF20
:103540005068586007D35168101941601168091B11
:10355000016058601460101D70BD13465268002A47
:10356000E7D12146284600F079FB0028DED170BD66
:1035700070B50446051F00F069FB0068002C14BFFD
:10358000446870BD002C18BFAC423CBF2046646844
:10359000F8D301680A18AA4218BF456003D12A6807
:1035A00005461144016028684119A1421CBF6C60A6
:1035B00070BD6168696021680844286070BD70B59D
:1035C0000D460646041F00F041FBD0F800C0C5B10F
:1035D000E6B105F10B0020F00703AB423CBF002031
:1035E00070BD2068984238BFDCF8042013D3C11A9C
:1035F00008292FD3E01840F8041B2360FFF7B8FF19
:1036000028E03046FFF7B4FF002070BD2846BDE833
:103610007040FFF77EBF002A18BFA2423CBF94460D
:103620005268F8D30119914216D1116808449842A2
:1036300012D3C11A08293CBF2060506808D35168D2
:10364000E0184160216812681144C91A01602360C2
:10365000CCF80400201D70BD181FFFF75AFF0500AD
:1036600007D021680A1F211D00F04AFA201DFFF72C
:103670007FFF284670BD00000FB4044910B503AAAF
:10368000029800F0D1FD10BC5DF814FBD4000020BE
:103690000FB41CB5084B06AA7B44694600900598F8
:1036A00000F093FD04460020694600F0A1FD20468D
:1036B0001CBC5DF814FB0000550B000070B50446FF
:1036C00085690068C10601D5302600E02026C007C4
:1036D00007D070BDD4E9012130469047206A401CD4
:1036E00020626D1EF6D570BD70B504468569007800
:1036F000C00707D170BDD4E9012120209047206A7E
:10370000401C20626D1EF6D570BD70B50C46054696
:10371000012A05D02878800600D5EA69002302E056
:10372000012305E05B1C934202D2E05C0028F9D142
:10373000A869E618C01AA861286A184428622846B1
:10374000FFF7BCFF04E0D5E9012114F8010B904715
:10375000B442F8D32846FFF7C7FF70BD2DE9F0410A
:103760000646002410687529314616A510D0AFF31F
:103770000080002802DA404213A507E031688A077A
:1037800001D512A502E0490704D511A5012401E0E5
:10379000AFF3008000210A2206F1240709E0B0FB04
:1037A000F2FCB0FBF2F302FB1C00303078541846F8
:1037B000491C0028F3D123462A463046BDE8F04193
:1037C00000F096BA000000002D0000002B00000061
:1037D0002000000070B504460D4621461068AFF386
:1037E00000802188090502D50F4A7A4402E00E4A7A
:1037F0007A440E32002104F1240305E000F00F06A4
:103800000009965D5E54491C0028F7D120780023FA
:10381000000704D5702D02D009B1022311322046D1
:10382000BDE8704000F064BA336F00002DE9F05F2E
:10383000894604464FF0000ADFF874B1FB44C0F833
:1038400020A02046E1688847002874D0252806D0AB
:10385000D4E901219047206A401C2062F1E700264C
:103860005F462046E16888472028054607DB312D62
:1038700005D2781910F8200C08B10643F1E7B0071B
:1038800001D526F00406C4F81CA00027C4F818A02F
:103890002A2D09D0284604F088F938B304EB8708AC
:1038A000303DC8F8185019E059F8041B204604EBC5
:1038B00087029161E1688847012F054618D1E069C8
:1038C000002820DA26F020061DE0D8F8180000EBCA
:1038D000800005EB40003038C8F818002046E16849
:1038E0008847054604F061F90028EED1012F0AD07F
:1038F0002E2D08D12046E16888477F1C0546022FFF
:1039000046F02006C4DBA069002803DA404246F0F6
:103910000106A061F00701D026F010066C2D0BD037
:10392000682D09D04C2D39D06A2D35D0742D35D065
:103930007A2D33D016E038E0E1682F4620468847DC
:10394000B842054609D16C2F26D04FF48060E1685B
:10395000064320468847054604E06C2F1AD04FF4F2
:10396000807006430DB3A5F14100192802D8203517
:1039700046F400664A462946204626604E46FCF735
:1039800031FC80B101280BD0F61D26F0070000F1B4
:10399000080956E74020E4E78020D8E70020D6E772
:1039A00006F104094DE7284652E7206ABDE8F09F7A
:1039B000096F00000FB400B58DB010A909900091F7
:1039C0000B904FF0FF300A9000200C90064878448E
:1039D0000690064878446A4607900F9909A800F0B7
:1039E000B7FE0DB05DF814FB9F0D0000B70D000091
:1039F00040EA0103024630B59B0710D14FF0013475
:103A000000E008C208C91D1B9D4315EAC41FF8D079
:103A100013F0FF0102F8011B0DD01B0AF8E711F8A3
:103A2000013B002B02F8013B05D011F8013B002BB4
:103A300002F8013BF3D130BD10B5431C02E010F891
:103A4000011B71B18107FAD14FF0013202C88C1A03
:103A50008C4314EAC211F9D0C01A0A0603D0C01E62
:103A600010BDC01A10BD0A0401D0801E10BD09028D
:103A7000FCD0401E10BD032A40F2308010F0030C31
:103A800000F0158011F8013BBCF1020F624498BFB1
:103A900011F801CB00F8013B38BF11F8013BA2F14E
:103AA000040298BF00F801CB38BF00F8013B11F0C9
:103AB000030300F02580083AC0F0088051F8043B69
:103AC000083A51F804CBA0E80810F5E7121D5CBFD6
:103AD00051F8043B40F8043BAFF30080D20724BF09
:103AE00011F8013B11F801CB48BF11F8012B24BF9D
:103AF00000F8013B00F801CB48BF00F8012B7047EC
:103B000010B5203AC0F00B80B1E81850203AA0E878
:103B10001850B1E81850A0E81850BFF4F5AF5FEAAC
:103B2000027C24BFB1E81850A0E8185044BF18C95F
:103B300018C0BDE810405FEA827C24BF51F8043B06
:103B400040F8043B08BF7047D20728BF31F8023B5A
:103B500048BF11F8012B28BF20F8023B48BF00F8EE
:103B6000012B70474FF0000200B51346944696466D
:103B7000203922BFA0E80C50A0E80C50B1F1200180
:103B8000BFF4F7AF090728BFA0E80C5048BF0CC02E
:103B90005DF804EB890028BF40F8042B08BF70478C
:103BA00048BF20F8022B11F0804F18BF00F8012BFE
:103BB000704700004FF0013C50F8042B51F8043BD3
:103BC0009A4221D1A2EB0C03934313EACC1317D1F1
:103BD00050F8042B51F8043B9A4215D1A2EB0C0388
:103BE000934313EACC130BD150F8042B51F8043B48
:103BF0009A4209D1A2EB0C03934313EACC13DBD016
:103C00004FF00000704700BFD01A01BAB1FA81F13D
:103C100001F0180122FA01F0CB40C1F12001DBB222
:103C2000C0B2C01A2CFA01F3D11A914311EAC311A0
:103C3000E6D17047704770477047704710B500F085
:103C4000BBFD001D10BD00BFD161000000487047E2
:103C5000F0050020704770477047704738B504463C
:103C60000A4600206946AFF30080002808BF38BD2F
:103C700002460099204600F0A7FD012038BD012032
:103C800001F07AB8F8B5AFF30080054600200C4685
:103C9000102000BF0646A819A0420DD93246694639
:103CA0000020AFF30080070008BF01F065F800981E
:103CB000A04218BF0546C419FFF7C8FF05600746B4
:103CC000F01D20F007004619284600F00AF8B4421B
:103CD00008BFF8BDA21B31463868BDE8F84000F0C7
:103CE00073BD00210160C0E90110704710207047CA
:103CF0002DE9F0470D4699469246044600F1240806
:103D00000168880604D5E06921F01001216000E017
:103D10000120A84201DD471B00E00027A1697A19B4
:103D200002EB0900081AA0612078C00602D42046E0
:103D3000FFF7C4FC002608E0D4E901211AF80600C8
:103D40009047206A401C761C20624E45F4DB2078A8
:103D5000C0060AD52046FFF7B1FC06E0D4E90121F0
:103D600030209047206A401C2062381EA7F10107CE
:103D7000F4DC07E0D4E9012118F805009047206A37
:103D8000401C2062281EA5F10105F3DC2046FFF748
:103D9000ABFC2078000602D50220BDE8F0870120A8
:103DA000FBE770472DE9FF4F0C461E464FF0FF37EB
:103DB0008BB0D2E90001DDF860800A908A46C1F339
:103DC0000A5505B93D46002108464FF00000BAF1FA
:103DD000000F00F4400005DA00EB80004FF44001D2
:103DE00001EA50004FEA9059B9F1010F00DDB946E0
:103DF0000A9850EA4A000ED044F61050A5F2FF355A
:103E000045432F14B8F1000F1ED07542291E1EDD48
:103E1000C9F100021CE0B8F1010F4FF0000001D021
:103E2000302103E0F24305E02154401CB042FBDBAB
:103E300030460022002121540B99C1F80880C1E9C5
:103E400000200FB0BDE8F08FBD1B6D1CDEE74A46B9
:103E500000DA694206A800F019FF06AB93E80700F4
:103E600003AB83E8070050460A9901F057FA8DE842
:103E70000700A0F500501F3800900398002D0ADDC0
:103E800042F21F014A460844002303A903906846F2
:103E900001F002FD09E0A0F500504A461F3800235A
:103EA00003A90390684601F021FD8DE80700000496
:103EB000000C03D04FF0FF30410800E01046B8F18D
:103EC000000F03D00022009215461EE0751E05D497
:103ED00000F094FC303262556D1EF9D5B3460122D4
:103EE000084302D000227F1C04E02078302801D152
:103EF00000227F1E002A099784D01DE0112D07DAC9
:103F000000F07CFC303262556D1C50EA0102F5D1A4
:103F1000084302D00098C8B10EE00021681E05E0F9
:103F2000235C625C63542254401E491C8142F7DBCF
:103F3000AB46A81B401E0990002004F80B000B980C
:103F4000099AC0F80880C0E9002B7AE711264FF0E3
:103F5000000857E72DE9F04F88460446D21D22F0AD
:103F6000070191B0D1E90001CDE90A0103F06CFD30
:103F700002460B98C00F01D02D2007E02068810772
:103F800001D52B2002E0202101EAC000032A09907C
:103F900001D0072A05DB03464146204600F07CFCA1
:103FA0000BE12078800601D5E06900E00620B8F139
:103FB000650F814606D0B8F1660F18D0B8F1670FCB
:103FC00070D131E00020B9F1110F009001DB112315
:103FD00001E009F101030AAA01A90CA8FFF7E2FE1A
:103FE000DDE90C70002609F10105834647E0012058
:103FF0004B4600904FF000470AAA01A90CA8FFF712
:10400000D1FEDDE90DB00C995D46002610B909F12D
:1040100001000D18B9EB050003D4C0F1FF3609F11A
:104020000105A5EB09002BE0B9F1010F01DA4FF012
:1040300001090020B9F1110F0090484601DD11235C
:1040400000E003460AAA01A90CA8FFF7ABFEDDE9D0
:104050000C704D4600268346207800070AD4AB45F5
:1040600000DA5D4601A8012D04DD411911F8011C9B
:10407000302907D04F4502DA17F1040F04DA012086
:1040800082460FE06D1EEEE7002F02DCED1B3E4482
:1040900003E0781CA84200DD7D1CB81B00F1010A7A
:1040A0004FF000472078000703D4AA4501DB4FF00A
:1040B000FF3A0021B7F1004F0DF143088DF843108E
:1040C00024D002202B23002F01DA7F422D230A2146
:1040D000021EA0F1010000DC5FB197FBF1FC97FB31
:1040E000F1F201FB1C7C17460CF1300C08F801CDF5
:1040F000EEE7A8F1010003702188090501D54521EB
:1041000000E06521A0F1010800F8011C09980FA941
:10411000A1EB0807FF1D00B10120411901EBEA7076
:10412000A1693844081A401EA0612078C00602D454
:104130002046FFF7C3FA099828B1D4E90121904736
:10414000206A401C20622078C00622D52046FFF756
:10415000B5FA1EE0002E04DBB34502DD01A8805D48
:1041600000E03020D4E901219047206A401C206201
:10417000761CAAF101005FEA000A0AD100F01CFBDC
:10418000C0680168405CD4E901219047206A401C66
:104190002062281EA5F10105DCDC07E0D4E901213D
:1041A00018F8010B9047206A401C2062381EA7F1C6
:1041B0000107F3DC2046FFF797FA032011B041E630
:1041C00001694A1C02610878704700B58FB0CDE9DB
:1041D00001310021059105497944CDE903101146CB
:1041E0006846FFF723FB0FB000BD0000E5FFFFFFAF
:1041F0000A6802F8010B0A60704710B5436913B1F1
:10420000AFF3008001E0FFF780FA012010BD1278C3
:1042100000F124010A7000224A700122EDE71168C2
:104220004FF0FF32E9E70000074B70B50D467B44C5
:10423000FFF7CBFF0446284600F09AFD10B14FF07F
:10424000FF3070BD204670BDD73E00002DE9FF4F06
:1042500006468BB00878FF2806D0491C2D2805D0CB
:1042600000244FF0000908E000200CE00124F8E7EA
:1042700009EB8903491C00EB43090878FF28F7D1B3
:1042800014B1C9F100008146107800252C46AA46D9
:1042900029462D2801D02B2804D1521C2D2813D0BB
:1042A000002082468B461078FF280FD04FF0000C7C
:1042B0000A21521CA5FB017804FB018105FB0C11AE
:1042C000C5194BEB0104EEE70120EAE7002108469F
:1042D0004FF00000BAF1000F02D000EB8000400860
:1042E000C0F38157012F01DD4FF0FF370E9955EADA
:1042F000040009EB01080BD04FF0020918F5FA7F12
:1043000016DA4FEACA70002F706008DD012007E05E
:104310004FEACA70C6E900B00FB0BDE8F08F0020C8
:10432000306000F04DFAC0F800901821084616E001
:10433000B8F5FA7F18DD002F02DAF748784401E07B
:10434000F6487844D0E90010C6E9001040EACA7087
:10435000706000F035FAC0F80090142108460FB0E4
:10436000BDE8F04F06F025B9002108464FF00000E7
:10437000B8F10001099002DAC7F1000200E03A4604
:1043800001DAC8F1000106A800F080FC06AB93E852
:10439000070003AB83E8070044F23E005BEA040138
:1043A0000090584604D144F21E012C465D4600910F
:1043B000210C0904014306D10099240444EA154460
:1043C0002D041039009104F07F41014306D100997A
:1043D000240244EA15642D020839009104F070416A
:1043E000014306D10099240144EA15742D01091FE7
:1043F000009104F04041014306D10099A40044EA31
:104400009574AD00891E009104F00041084304D169
:1044100000986D196441401E00904FF001033A4628
:104420006846B8F1000FCDE9014503A902DD01F0AE
:1044300072FA01E001F045FABAF1000F04460D46A8
:1044400001D084F00044002108464FF00000099993
:1044500040F2FF77484010F00C0F07D124F00040E5
:10446000284303D0C4F30A50B84212D100F0A8F98F
:10447000C0F80090C4F30A50B8420AD1A848784462
:10448000D0E90010C6E9001004F000410843706054
:1044900042E7C6E900543FE72DE9FF4F1F464FF0C2
:1044A000000A4FF0FF38454691B0D7E90146CDF8F4
:1044B0003CA000F081F9C0680168405C1090B969C7
:1044C00012986D1C8847396A814688470028F6D1C2
:1044D000B9F1FF3F0AD0002E24F4D06411DDB9F108
:1044E0002B0F08D0B9F12D0F0BD102E0404615B0CB
:1044F00013E744F48064B96912986D1C8847761EEE
:104500008146600504A901D52D2000E02B20002E56
:1045100001F1010B0DF130088DF810003FDDB9F10C
:10452000690F08D0B9F1490F05D0B9F16E0F02D06B
:10453000B9F14E0F1CD13B4601A8009580E850020E
:10454000DDE912126FF0020006F09CF8C11CCED11A
:104550000EE0B96912986D1C884781461398761E43
:1045600044F4007405600F98401C002E0F9016DD77
:10457000B9F1300FEDD0B9F1780F02D0B9F1580F81
:104580000DD10F9801280AD13B46CDE90054DDE951
:104590001212001F029606F073F8C11CA7D11099E1
:1045A00089453ED144F0800406E01399681CAAF1C5
:1045B000010A44F400740860B9696D1C1298761EF3
:1045C000884730288146F0D02BE01099894505D1E5
:1045D000200603D4761E44F0800418E0484603F019
:1045E000E4FA08B3761E0DF123018B4544F4007400
:1045F00008D2A9F130000BF8010B200607D5AAF16B
:10460000010003E0200602D40AF101008246A00561
:1046100002D51399681C0860B96912986D1C884707
:104620008146002ED1DC53E0002E51DDB9F1650F3B
:1046300002D0B9F1450F4BD1A00549D5B9696D1C20
:104640001298761E24F440748847002E81460CDDB3
:104650002B2804D0B9F12D0F07D144F48074B96927
:1046600012986D1C8847761E8146E00501D52D21E4
:1046700000E02B2108F8011BCDF8008021E0761E18
:104680000DF13901884544F400740CD2A9F13000D1
:1046900010F0FF0088F8000002D10099884509D980
:1046A00008F1010806E0E00501D51E4801E042F2EC
:1046B0000F708246B96912986D1C8847814613981D
:1046C0000560002E04DD484603F06FFA0028D6D1BD
:1046D000F96912988847FF2053468BF8000088F844
:1046E000000000200A900B9004AA0CA90AA8FFF76A
:1046F000ADFDA00502D46FF00100F8E614F0240F20
:1047000012D0E0071CD13868DDE90A12031D3B60B6
:104710000068C0E9001213E0C4670000B66700003B
:104720007A660000F1D8FFFF0AA9684603F0CCF9C9
:10473000E00705D13868009A011D39600068026001
:104740002846D4E602681144137801601846704781
:10475000D1600549794451610449794411620021CD
:104760001161114600F0D8B8EDFFFFFF29010000EC
:10477000426842B1016811F8013B23B1521EC0E901
:104780000012184670470121C160881E70474268B8
:104790005AB1C368016843B983688B4205D0491E8A
:1047A000521CC0E90012002070474FF0FF307047E4
:1047B00000487047E80500200048704708060020C0
:1047C00000487047E8050020034640688C460028F2
:1047D00018BF88423CBF03464068F8D318681844A5
:1047E000884207D00CF1030020F00700001D411A99
:1047F000521A0146081D0A60FEF7BABE30B5B0F184
:104800000A024FEA900E71F100034EEA817EB0EB8E
:104810000E0061EB91014FEA101E4EEA017E10EB93
:104820000E0041EB11114FEA102E4EEA016E10EB13
:104830000E0041EB11214FEA104E4EEA014E10EBF3
:104840000E0041EB1141401841F100014FEAD00048
:1048500040EA41704FEAD10110EB80054FEA810434
:1048600044EA907444EB01046D1944EB0404521BB8
:10487000A3414FF0000348BF0A3200D530BD401CB1
:1048800041F1000130BD10B50446FFF7D7F90068CB
:10489000005D00F0010010BD2DE9F0411F46044607
:1048A00003260168072A01F4006004DB08B116A59D
:1048B00005E016A503E008B115A500E015A521F057
:1048C00010002060A069C01EA0610FB1401EA06151
:1048D0002046FEF7F3FE4FB1D4E901213846904758
:1048E000206A401C2062C01C206206E0206AFAE7B1
:1048F000D4E9012115F8010B9047761EF8D2204625
:10490000FEF7F2FEBDE8F0814E414E006E616E0092
:10491000494E4600696E66002DE9F34F4FF0000ADC
:104920000C4656468DB001200C9001F10C000B9006
:1049300062690B9801219047051E2DD0252D2CD0A2
:10494000216A8847C0B162690B9801219047216AAA
:1049500088470028F7D16269411E0B98904700E014
:10496000761CA1690D988847216A88470028F7D1ED
:10497000E1690D988847DBE7A1690D988847A8424F
:10498000074601D1761CD3E7E1690D9888477F1C63
:1049900002D1BAF1000F6FD06CE162690B98002769
:1049A0003D46394690472A2804D162690B98012177
:1049B00090470125DFF8D08262690B98012190476A
:1049C000A0F130010A290AD24745E5DC07EB87014F
:1049D00000EB4107303FDFD445F01005ECE7E90676
:1049E00001D46FF000476C280AD04C2814D06828F6
:1049F00015D06A280DD074281CD07A281AD01DE052
:104A000062690B98012190476C2802D045F004059B
:104A100014E045F002050DE045F020050AE062696A
:104A20000B9801219047682802D045F0080505E061
:104A300045F4006562690B9801219047C4E901576C
:104A400065283DD019DC58287AD00CDC452837D0B1
:104A500004DC252826D041289ED131E046282FD0DD
:104A6000472899D12CE05B2877D0612828D063288B
:104A70007CD0642823D15AE0F7E06F2848D008DCC6
:104A800066281DD067281BD0692821D06E2816D132
:104A900027E0702845D0732868D0752847D078283B
:104AA0000DD14DE0A1690D988847252805463FF4B2
:104AB00069AFE1690D9888476D1C3FF46AAFD9E092
:104AC0000D9923466A466FF0010005F0D7FDC6E058
:104AD00045F0400023464FF000026060A80736D43E
:104AE0003EE0E8077FF447AF2068011D21600068C1
:104AF000290501D506701BE7290701D5068017E7B0
:104B0000A90703D5F117C0E9006111E706600FE7B7
:104B100045F0400023464FF008026060A80716D415
:104B20001EE040F60E0125EA0100606016E045F047
:104B3000400023464FF00A026060A80707D40FE048
:104B400045F040006060A80708D5234610220D9963
:104B50006FF00100AFF3008081E007E010222346F0
:104B60000D996FF00100AFF3008078E04FF000097D
:104B700063284F46C8464B46CB4602D05B2807D039
:104B800039E02079C00601D40120A060012732E07D
:104B90006269D4F80CB00B98012190475E2807D1C8
:104BA0004FF0010949466269D4F80CB00B98904760
:104BB000216939B900210A4603AB43F82120491C79
:104BC0000829FADBD8B3216949B308F10108626901
:104BD0000B98012190475D28F4D1B9F1000F09D05D
:104BE000002003A951F82020D24341F82020401C86
:104BF0000828F7DB03AB2069002820794FEA4070D2
:104C00001ED05B462246CDF80080CDE901970D9974
:104C100000286FF0010020DAAFF300801FE0C11719
:104C200003AA00EBD1614B1121F01F0102EB8302BB
:104C3000411A13680120884003431360C7E719E055
:104C40000D99224600286FF00100009702DAAFF3B9
:104C5000008004E0AFF3008001E0AFF300800028A3
:104C60000ADA401C06D10C9820B14FF0FF300FB08B
:104C7000BDE8F08F5046FAE7E90701D10AF1010AD1
:104C8000064400200C9053E6CCCCCC0C2DE9F04728
:104C9000814616468AB0354878440DC88DE80D0027
:104CA00032487844801C03AC0DC884E80D0041F6FE
:104CB0009B300844372190FBF1F290FBF1F5A5F110
:104CC000800501FB12041B3C02D56442012000E078
:104CD0000020DFF898A080460027FA44AAF1BE0A17
:104CE0000EE0E0070AD03246684607EB4701012391
:104CF0000AEB810100F0FAFD8DE8070064107F1CCB
:104D0000002CEED1194F7F44AE3F19E0E80715D0D3
:104D100007EB04100DF1180A90E80E008AE80E0067
:104D2000C068F04201D1981908903246012306A9C3
:104D300003A800F0DBFD03AB83E807006D10641CE3
:104D4000002DE3D14FF0010332466946B8F1000F60
:104D500003A802D000F0A0FD01E000F0C7FDC9E902
:104D60000001C9F808200AB0BDE8F0873C5B0000EC
:104D7000007B00F08000704710B500F06DFABDE8D0
:104D8000104000F064BA7546FFF712FDAE4605000C
:104D90006946534620F00700854618B020B5FBF75A
:104DA00069FABDE820404FF000064FF000074FF0D1
:104DB00000084FF0000B21F00701AC46ACE8C00939
:104DC000ACE8C009ACE8C009ACE8C0098D46704742
:104DD00010B5FFF7F5FC006810BD10B50446FFF7ED
:104DE000EFFC046010BD00002DE9FF4F1F464FF09F
:104DF0003C0987B04FF00042DDE9141001F10108D1
:104E0000DDF858A002EA4050039000200590834648
:104E1000054604460490B969461E08988847AAF1D9
:104E2000010A0290BAF1000F3BDD02982E2815D03E
:104E3000102100F04CFA00282EDB4FF0010B0599F1
:104E4000014317D0B9F1000F0BDB4A46C11700F040
:104E50002BFA05430C43A9F1040905E00120049055
:104E60000BE008B145F0010501200590049820B938
:104E7000361D02E0049800B1361FB969089808F1A0
:104E800001088847BBF1000FAAF1010A0290C9D0BE
:104E90000999C1F80080C5E70298702808D0502809
:104EA00006D0F96908988847BBF1000F14D04FE08D
:104EB000002002900120BBF1000F049009D0B969D5
:104EC000089808F101088847AAF10109B9F1000F13
:104ED00007DCF969089888476FF001000BB0BDE85E
:104EE000F08F2B2804D02D280CD14FF0FF300490E8
:104EF000B969089808F101088847A9F10109B9F1D1
:104F0000000FE6DD411CE4D00A2100F0E0F90028A2
:104F1000DFDB029908F1010801EB810100EB4100A0
:104F20000290B969089888470A2100F0D0F9099AD7
:104F3000A9F10109B9F1000FC2F8008001DD0028D4
:104F4000E7DAF969089888470499029800FB016636
:104F500055EA040004D004F04041090002D006E004
:104F6000039898E0A40044EA9574AD00B61E04F0DE
:104F70000041080002D16D196441761E159810F0A9
:104F8000240F03D04FF00B095C4803E04FF02809D1
:104F90006FF07D008246564507DAAAEB0601894488
:104FA000B9F1410F01DD4FF0410901200021A9F1C4
:104FB000010200F079F9024628400B4621400843DF
:104FC00001D0012100E00021501E029143F1FF3188
:104FD00028402140084301D0012000E00020029930
:104FE000834651EA0B014FD0002108464FF00000E4
:104FF000039900F4400039B100EB80004FF4400108
:1050000000EBD07001EA60008015012802DD4FF04E
:10501000FF3000E013D0401C36D0029860B3BBF1E3
:10502000000F0CD14A460120002100F03DF9284034
:105030002140084301D0012000E00020E0B1012020
:105040004A46002100F030F9034640190A46614102
:105050002D1A8C4111D3B9F1400F09DD159810F0CC
:10506000240F02D0AAF1340603E0AAF1170600E0EB
:10507000761C00254FF0004406E05B1E42F1FF3233
:1050800020EA030521EA0204CAF10100B04206DA6F
:105090001B49039808430190002000900EE0039AFA
:1050A000C4F3D321E80A0A43164940EA44500A43AC
:1050B0003146CDE90002684602F06CFD159810F00B
:1050C000240F0BD01598C00715D13868DDE9001200
:1050D000031D3B600068C0E900120CE002A86946AD
:1050E00002F0F2FC1598C00705D13868029A011D3C
:1050F0003960006802604046F0E6000002FCFFFFF5
:105100000000F07F0000F03F2DE9FF4F92461D4662
:1051100085B04FF00041DDE9124BDDE914727F1ECE
:1051200001EA4B50414940F0FF4940EA01080021A3
:1051300022F020004928049102D04E2828D04CE0CB
:105140003BA0012607C88DE80700A9690698641CE2
:1051500088477F1E014606D41DF8060018B121F0CD
:10516000200181420BD0E96906988847032E34D08C
:10517000082E32D06FF0010009B0BDE8F08F761C28
:10518000032E01D0082EE0D1601CCAF80000DCE735
:10519000A9690698641C88477F1E2AD420F0200045
:1051A000412826D1A9690698641C88477F1E20D40F
:1051B00020F020004E281CD1A9690698641C88475D
:1051C0007F1E48F4002849F48009CAF8004001D441
:1051D000282806D0E969069888475FEACB7012D084
:1051E00022E0A9690698641C88477F1E01D4002824
:1051F00003DAE96906988847BCE72928F1D1641CDD
:10520000CAF80040E9E71BF0240F07D0286804998A
:10521000031D2B600068C0E9001805E02868021D26
:105220002A600068C0F800902046A5E70000F07FE3
:10523000494E46494E4954590000000010B50446F5
:10524000AFF300802046BDE81040FAF7FEBF00280B
:1052500001D002F0B1BC704710B5012805D0002183
:1052600003A000F042F8012010BD09A1F8E70000FA
:1052700053494752544D454D3A204F7574206F663F
:105280002068656170206D656D6F727900000000A7
:105290003A2048656170206D656D6F727920636F8B
:1052A0007272757074656400B2F120030AD5C2F1A0
:1052B000200301FA02F120FA03F300FA02F041EAB6
:1052C0000301704700FA03F14FF0000070473A28DD
:1052D00000D2303820F02002412A01D3A2F1370059
:1052E000884201D34FF0FF30704770B505460C4639
:1052F0000A2000E06D1C02F061FC35B1287800281E
:10530000F8D102E0641C02F059FC14B120780028A6
:10531000F8D1BDE870400A2002F050BC5FEA400CB2
:1053200008BF91F0000F4FEA8C234FEAC12243EAF5
:1053300051514FEA1C5018BF00F5F0404FEA3000C1
:1053400018BF41F000415FEA6C5C00F02980BCF1BD
:10535000FF3F08BF40F080407047130C06BF1204A7
:105360004FF0100C4FF0000C130E04BF12020CF1A2
:10537000080C130F04BF12010CF1040C930F04BFAF
:1053800092000CF1020CD30F04BF52000CF1010C7F
:1053900011464FF00002A0F11F00A0EB0C00704777
:1053A00011F0004F08BF704731F000413FF4D5AF16
:1053B0000B0C06BF09044FF0100C4FF0000C0B0E45
:1053C00004BF09020CF1080C0B0F04BF09010CF11A
:1053D000040C8B0F04BF89000CF1020CCB0F04BF2F
:1053E00049000CF1010CCCF12003A0EB0C0022FAD7
:1053F00003F302FA0CF241EA030100F101007047E5
:1054000020F07F4C80EA030023F07F47ACEB0703DA
:1054100003F57C5300F0004003F1FF032DE98049C0
:105420004FEA154B09B44FEA144325EA0B4E24EA20
:1054300003480FF2042606EB132749083E785FEA7B
:10544000320203FB0667C7F5000707FB06F64FEAC3
:1054500054374FEAD64606F1020607FB066CCCF13C
:10546000005C4FEA1C472CEA074C07FB06F40CFBD8
:1054700006F504EB15464FEA961634BF00204FF0B0
:1054800000404FEAD13706FB07FC4FEA1C4C0CFBEF
:105490000BF7D21B03FB0CF761EB07010CFB0EF7BC
:1054A000B0EB074072EB17420CFB08F734BFA2EBDE
:1054B0000742B2EB074261EB17414FEA0C444FEA57
:1054C000910706FB07FC4FEA1C4C0CFB0BF7B0EBFB
:1054D000C74072EB573203FB0CF734BFA2EBC74255
:1054E000B2EBC74261EB57310CFB0EF7B0EBC700D4
:1054F00072EB57720CFB08F734BFA2EBC702B2EB9A
:10550000C70261EB5771039F4FEA816141EA921133
:1055100004EBCC044FEAD1374FEA826206FB07FC6A
:1055200042EA90124FEA80604FEA1C4C0CFB0BF7EA
:10553000D21B03FB0CF761EB07010CFB0EF7B0EB82
:10554000074072EB17420CFB08F734BFA2EB07428F
:10555000B2EB074261EB17414FEA8C554FEA9107D6
:1055600004EB9C2406FB07FC4FEA1C4C0CFB0BF7DE
:10557000B0EBC74072EB573203FB0CF734BFA2EB22
:10558000C742B2EBC74261EB57310CFB0EF7B0EBF1
:10559000C70072EB57720CFB08F734BFA2EBC702CF
:1055A000B2EBC70261EB577115EB4C254FEA8161F5
:1055B00041EA92114FEA82624FEAD13742EA9012F1
:1055C00006FB07FC44F100044FEA80604FEA1C4CE4
:1055D0000CFB0BF7D21B03FB0CF761EB07010CFB79
:1055E0000EF7B0EB074072EB17420CFB08F734BF25
:1055F000A2EB0742B2EB074261EB174115EB1C151A
:105600004FEA813141EA92414FEA823242EA9042C6
:105610004FEA80304FEA0C7644F1000448EA034335
:105620004EEA0B484FF0000EB2EB080C71EB03078B
:1056300024BF624639464EEB0E0E4FF0000B0018A9
:10564000524149414BEB0B0BB2EB080C71EB0307DA
:105650007BF1000B24BF624639464EEB0E0E4FF035
:10566000000B0018524149414BEB0B0BB2EB080CFD
:1056700071EB03077BF1000B24BF624639464EEB0A
:105680000E0E51EA020718BF46F0010616EB0E7621
:1056900055F1000254F1000103D5BDE88901BDE8D0
:1056A0000088BDE88901BDE80048B619524141EBC8
:1056B0000101A3F10103704780807F7E7D7C7B7AAE
:1056C0007978777676757473727171706F6E6E6DAE
:1056D0006C6C6B6A6A696868676666656464636354
:1056E00062616160605F5F5E5E5D5D5C5C5B5B5ADA
:1056F0005A59595858575756565555555454535347
:1057000052525251515050504F4F4F4E4E4D4D4DA1
:105710004C4C4C4B4B4B4A4A4A49494948484847EC
:10572000474747464646454545444444444343432A
:10573000434242424241414146EA0646A3F5705384
:105740004FEA164646EA42564FEAD22242EA415210
:1057500010B54FEAD121A3F1010300F02FF820F09A
:10576000004000F1020C00F0004701EB0050114630
:10577000BCF5006F40EA070000D210BDBAF1000F7F
:105780000AD01CB503B44FF004004FF004014FF0F1
:1057900000000FBCBDE810404FF00001BBF1010F4D
:1057A000B9BF04484FF0FF310348002140EA070029
:1057B00010BD00BFFFFFEF7F0000F07F002B9C4675
:1057C00030D477002BD01CB54FEA370703B44FF025
:1057D00010004FF01001BAF1000F06D0BCF1000F1D
:1057E000DCBF40F0080040F008014FF000000FBCA3
:1057F000BDE810400BF1010BBBF1010F08BF5FEAE0
:10580000170722BF12F1010211F101014FF000410F
:1058100043F1000300F0004043EA00007047F9D371
:105820005708D0E746EA064613F1400F4FEA1646FE
:105830001FDD13F1200FDFBF16430A46002120337E
:105840005B42BED0C3F1200746EA064602FA07F7DC
:105850004FEA164646EA0706C3F1200722FA03F28A
:1058600001FA07F721FA03F14FF0000342EA0702B9
:10587000A7E746EA020646EA06464FEA164646EA21
:105880000106BCBF46EA0646360C4FF000034FF057
:1058900000024FF0000194E72DE9804C9A469346B0
:1058A00070B491E8380007C831EA400C48BF34EAC8
:1058B000430C03D5FFF7A4FDFFF780FFF0BCBDE864
:1058C000008C2DE9804C9A46934670B491E83800DC
:1058D00007C831EA400C48BF34EA430C03D5FFF750
:1058E0008FFDFFF729FFF0BCBDE8008C2DE9804C4F
:1058F0009A46934670B491E8380007C810F0804F7C
:1059000008BF13F0804F03D100F01AF8FFF756FFDD
:10591000F0BCBDE8008C2DE9804C9A46934670B4EB
:1059200091E8380007C810F0804F08BF13F0804F8F
:1059300003D100F005F8FFF7FFFEF0BCBDE8008CD6
:1059400020F07F4780EA030023F07F4C07EB0C0335
:10595000A3F57C5300F00040A3F1FE0392F0000F8A
:1059600000F0B38095F0000F00F077802DE9014939
:105970004FEA11404FEA144621EA004800FB06FCBA
:1059800024EA064708FB06F607FB08F800FB07F7C2
:1059900018EB06484CEB164C4FEA124B18EB074835
:1059A0004FEA15464CEB174022EA0B4E0BFB06FC68
:1059B00025EA06470EFB06F607FB0EFE0BFB07F774
:1059C0001EEB064E4CEB164C4FF000061EEB074E3E
:1059D0004CEB174B18EB0B0840F1000018EB0E0BCB
:1059E00058EB000840F100008F1A4FF000013CBF57
:1059F000C943661B14BFB5EB040C00213CBFC9436F
:105A0000F61B4FEA17444EEA8E0E27EA04454FEA8A
:105A10001C4704FB07622CEA074C05FB07F70CFB4D
:105A200005F604FB0CFC16EB074642EB174216EB9F
:105A30000C4642EB1C421BEB060658EB02024141AE
:105A400046EA9E0601D5BDE80189B619524141EBEF
:105A50000101A3F10103BDE801894FEA14454FEAB2
:105A6000114724EA054621EA074C05FB07F406FB2B
:105A700007F70CFB06F105FB0CFC11EB074144EBAF
:105A800017444FEA124711EB0C4144EB1C4422EA45
:105A9000074C05FB07F206FB07F70CFB06F605FBB8
:105AA0000CFC16EB074642EB174216EB0C4642EB9A
:105AB0001C456A1854F1000148BF7047B61952419D
:105AC00041EB0101A3F10103704795F0000F37D0BE
:105AD0004FEA11424FEA144721EA024624EA074CF2
